:020000040800F2
:1000000040C70124E1020008A771000893670008B7
:10001000A57100087D1800081D850008000000007B
:10002000000000000000000000000000E176000871
:10003000F11C000800000000B97200082D770008CC
:10004000FB020008FB020008FB020008FB0200089C
:10005000FB020008FB020008FB020008FB0200088C
:10006000FB020008FB020008FB020008A1180008C0
:10007000AD180008FB020008FB020008FB020008A4
:10008000FB020008FB020008FB020008FB0200085C
:10009000FB020008FB020008FB020008FB0200084C
:1000A000FB020008FB020008FB020008FB0200083C
:1000B000FB020008FB020008FB020008FB0200082C
:1000C000FB020008FB020008FB020008FB0200081C
:1000D000FB020008FB020008FB020008FD8100088B
:1000E000FB020008FB02000800000000FB02000801
:1000F000FB020008FB020008FB020008FB020008EC
:10010000FB020008FB020008FB020008FB020008DB
:1001100089780008FB020008FB020008FB020008C7
:10012000FB020008FB020008FB020008FB020008BB
:10013000FB020008FB020008FB020008FB020008AB
:1001400000000000000000000000000000000000AF
:10015000FB020008FB020008FB020008FB0200088B
:10016000FB020008FB020008FB020008FB0200087B
:10017000FB020008FB020008FB0200080000000070
:10018000FB020008FB02000895780008FB0200084B
:10019000FB020008FB020008FB020008FB0200084B
:1001A000FB020008FB020008FB0200080000000040
:1001B000FB020008FB020008FB020008FB0200082B
:1001C000FB020008FB020008000000000000000025
:1001D0000000000000000000FB020008000000001A
:1001E000000000000000000000000000000000000F
:1001F0000000000000000000FB020008FB020008F5
:10020000FB020008FB02000800000000FB020008DF
:10021000FB020008FB020008FB020008FB020008CA
:10022000FB02000800000000FB02000800000000C4
:10023000FB020008FB02000800000000FB020008AF
:10024000FB020008FB020008FB020008FB0200089A
:10025000FB020008FB020008FB020008FB0200088A
:10026000FB020008FB020008FB020008FB0200087A
:10027000FB020008FB020008FB020008000000006F
:10028000FB020008FB020008FB020008FB0200085A
:1002900000000000FB020008FB0200080000000054
:1002A00000000000FB020008FB020008FB0200083F
:1002B000FB020008FB020008FB020008FB0200082A
:1002C000FB020008FB020008FB020008DFF80CD06C
:1002D00000F018F900480047D1D4000840C70124B5
:1002E0000648804706480047FEE7FEE7FEE7FEE7D0
:1002F000FEE7FEE7FEE7FEE7FEE7FEE7C977000858
:10030000CD0200082DE9F05F0546002092469B468D
:1003100088460646814640241BE02846414647461B
:10032000224600F0AAF853465A46C01A914110D30B
:1003300011461846224600F091F82D1A67EB010885
:100340004F4622460120002100F088F817EB0009F3
:100350004E41201EA4F10104DFDC484631462A4606
:100360004346BDE8F09F2DE9F0410024061B2546D9
:1003700071F1000605DA01240027D0EB070067EBD6
:100380000101161E73F1000605DA0027D2EB070201
:10039000012567EB0303FFF7B5FF86460E461746B8
:1003A0009C46AC4204D00025D0EB050E65EB01065F
:1003B00024B10020D2EB000760EB030C70463146FD
:1003C0003A466346BDE8F08140EA01039B0703D04B
:1003D00009E008C9121F08C0042AFAD203E011F884
:1003E000013B00F8013B521EF9D27047D2B201E046
:1003F00000F8012B491EFBD270470022F6E710B52A
:1004000013460A4604461946FFF7F0FF204610BD82
:1004100030B505462A460B4612F8010B13F8014B7E
:1004200008B1A042F8D01CB1002802D06D1CF1E741
:10043000284630BD421C10F8011B0029FBD1801A50
:10044000704730B504460020034600E05B1C934231
:1004500003D2E05CCD5C401BF8D030BD202A04DB29
:10046000203A00FA02F1002070479140C2F12003C7
:1004700020FA03F3194390407047202A04DB203A06
:1004800021FA02F00021704721FA02F3D040C2F1B4
:100490002002914008431946704710B541000CD026
:1004A000C0F3C751962908DC7E2909DC06DB41022E
:1004B00004D000F0004040F07E5010BD002010BD80
:1004C000C1F19604C4F1200100FA01F1E04000F00E
:1004D0002BF8A04010BD70B521F0004303430CD0B1
:1004E000C1F30A550024D5EB040564EB0403D617C9
:1004F000AD1AB34102DB0020014670BD201841EB6C
:10050000025170BD064C074D06E0E06840F0010363
:1005100094E8070098471034AC42F6D3FFF7DAFEB0
:100520006C8E04088C8E04080029A8BF7047401CFC
:10053000490008BF20F00100704710B4B0FA80FCF9
:1005400000FA0CF050EA010404BF10BC704749B136
:10055000CCF1200421FA04F411FA0CF118BF0121A6
:1005600021430843A3EB0C01CB1D4FEA00614FEA86
:10057000102042BF002010BC704700EBC350104455
:100580000029A4BF10BC7047401C490008BF20F0E0
:10059000010010BC704770B58C1810F8015B15F0A5
:1005A000070301D110F8013B2A1106D110F8012BE5
:1005B00003E010F8016B01F8016B5B1EF9D12B070A
:1005C00005D40023521E0DD401F8013BFAE710F8C0
:1005D000013BCB1A921C03E013F8015B01F8015BAD
:1005E000521EF9D5A142D8D3002070BD2DE9F04F9D
:1005F00086B09DF8587000910392002F059318BFA4
:100600000123109C04FB033304930F9D14BF2F465A
:1006100001270197BDF844305B0800F09F80DDF8AA
:1006200050B0139A02EB83030293DDF848E0039F76
:100630005FEA9E08DDF800C057F8046B57F8043BEA
:1006400003971A46314622D05CF81E705CF8049B72
:1006500050F804AB2AFB096650F8045B2AFB07112B
:1006600050F804AB25FB07225CF81E7025FB09330C
:100670005CF8049B2AFB09662AFB071150F8045B0F
:1006800025FB0933B8F1010825FB0722DCD10EF068
:1006900003078FB13CF91E803CF902AB30F9025BD5
:1006A0000AFB056630F9029B09FB0A3308FB0511BA
:1006B000013F09FB0822EDDCDDF84CA0159F3AF95B
:1006C000024B57F804CB5BF8045BC4F1150999EAB7
:1006D000040940F3C8804FEA46064FEA410156FB41
:1006E00005C651FB05C146FA04F641FA04F13AF990
:1006F000024B57F804CB5BF8045BC4F1150999EA87
:10070000040940F399804FEA43034FEA420253FB46
:1007100005C352FB05C243FA04F342FA04F206F39E
:100720000706DDF80490179CDDF810802670A044C1
:1007300001F3070188F8001003F3070304F80930F8
:1007400002F3070208F8092004EB49021792CDF8DA
:100750004CA0029C1597A2457FF467AF119B13F044
:10076000010354D0BDF848E0039BDDF800C01968D0
:100770005FEA9E070CEB4E040E4615D05CF81E5047
:100780005CF8048B50F804AB50F8043B2AFB086675
:100790002AFB05115CF81EA05CF8048B23FB08669D
:1007A00023FB0A11013FE9D11EF003070BD03CF8EF
:1007B0001E303CF8029B30F902AB19FB0A66013F80
:1007C00013FB0A11F3DCDDF84CA0159FBAF90040C9
:1007D000D7F800C0DBF80050C4F1150999EA040904
:1007E00058DD4FEA46064FEA410156FB05C651FB6C
:1007F00005C146FA04F641FA04F106F30706179A12
:10080000049C167001F307011155019B1A441199BC
:10081000169B109C33B10F9B04F1020003FB1100E7
:10082000104406E0A2EB0100059A04F1020402FB69
:10083000040006B0BDE8F08F002C42DD4FF0010946
:1008400009FA04F94FEAA90953FB05934FEA430358
:1008500043FA04F3634452FB05924FEA420242FA20
:1008600004F262445BE7002C3CDD4FF0010909FA19
:1008700004F94FEAA90956FB05964FEA460646FADF
:1008800004F6664451FB05914FEA410141FA04F137
:1008900061442CE7002C36DD4FF0010909FA04F918
:1008A0004FEAA90956FB05964FEA460646FA04F6B2
:1008B000664451FB05914FEA410141FA04F161445C
:1008C0009BE7C4F1010903FA09F303F31F0353FB88
:1008D00015F302FA09F202F31F0252FB15F2634408
:1008E00062441CE7C4F1010906FA09F606F31F0683
:1008F00056FB15F601FA09F101F31F0151FB15F141
:1009000066446144F3E6C4F1010906FA09F606F308
:100910001F0656FB15F601FA09F101F31F0151FB01
:1009200015F16644614468E7000000000000000023
:100930002DE9F04F99B014901391169212932998C3
:1009400000F00303032B0CBF012600261796032893
:100950000CBF01260026189610F00200259B0028E7
:1009600014BF18460120109026980CBF0646012699
:100970001196DDE92C04002C18BF20462C902698F7
:10098000012840F3BE814FEA4303299C14F0020F73
:1009900001D14FF0020315934FF00008CDF83480D9
:1009A000DDF834B0239A02EB8B02B2F90030B2F9D1
:1009B0000240CDE90434229A02EBCB02D2E90012C4
:1009C000CDE902122B9A02EBCB02D2E90012CDE95B
:1009D0000012002BCCBF00204FF0FF30152BC8BFFA
:1009E0000120002CCCBF00214FF0FF31152CC8BFD7
:1009F0000121CDE906012D9B002B00F09782289B59
:100A0000002B40F0BB821A461846169901EBCB0129
:100A1000D1E9003403441444CDE90934129A2498EE
:100A200018992A9B00291CBF0332D218DDF8509078
:100A30000B92401000F044810F930E900B9B279F68
:100A4000119A2C9EDDE909CEE246F34613440C933D
:100A50005FEA271800F0948059F807502FFA85F4C0
:100A600056F8040B2FFA95F556F8041B24FB00AA40
:100A700025FB01AA56F8042B56F8043B24FB02BBC5
:100A800059F8044B25FB03BB2FFA84F52FFA94F495
:100A900025FB00CC56F8040B25FB02EE59F8075055
:100AA00024FB01CC24FB03EE2FFA85F42FFA95F5F5
:100AB00056F8041B24FB00AA56F8042B25FB01AAB8
:100AC00056F8043B24FB02BB59F8044B25FB03BB3F
:100AD0002FFA84F52FFA94F425FB00CC25FB02EEC7
:100AE00059F8075024FB01CC56F8040B24FB03EE05
:100AF0002FFA85F42FFA95F556F8041B24FB00AA6B
:100B000056F8042B25FB01AA56F8043B24FB02BB34
:100B100059F8044B25FB03BB2FFA84F52FFA94F404
:100B200025FB00CC25FB02EE56F8040B24FB01CC80
:100B300059F8075024FB03EE2FFA85F42FFA95F5A8
:100B400056F8041B24FB00AA56F8042B25FB01AA27
:100B500056F8043B24FB02BB59F8044B25FB03BBAE
:100B60002FFA84F52FFA94F425FB00CC25FB02EE36
:100B7000B8F1010824FB01CC24FB03EE3FF76CAF76
:100B800017F00F0046D0C7F38108B8F1000F26D048
:100B900059F807502FFA85F42FFA95F556F8040BFB
:100BA00056F8041B24FB00AA56F8042B25FB01AAC7
:100BB00056F8043B24FB02BB59F8044B25FB03BB4E
:100BC0002FFA84F52FFA94F425FB00CC25FB02EED6
:100BD00024FB01CC24FB03EEB8F10108D8DC17F0AC
:100BE0000308B8F1000F15D0279836F9023B36F903
:100BF000025B99F9001013FB01CC15FB01EE19F90A
:100C0000001013FB01AA15FB01BB09F10109B8F1A2
:100C10000108EADC0B9D2E46179868B10F9A901ECA
:100C200009DC0C9CC2F1020204EB42020C922A9AEB
:100C3000104405F102050F9000980299049A069B52
:100C40000C9F002B40F0C9804FEA4C0C4FEA4A0A37
:100C50005CFB010C5AFB010A4CFA02FC4AFA02FA4C
:100C60000CF3070C0AF3070A86F800C087F800A007
:100C700001980399059A079BDDF84080002B40F00E
:100C8000D4804FEA4E0E4FEA4B0B5EFB010E5BFB2E
:100C9000010B4EFA02FE4BFA02FB0EF3070E0BF3AA
:100CA000070B06F808E007F808B0119B279A05EB38
:100CB00043030B9391440E9B013B0E937FF4BEAE16
:100CC000CDF82090249B13F0010F40F0D680139BA9
:100CD000279A03EB42031393129B159A1344129322
:100CE0002D9B23B12C9B279A03EB82032C930D9A07
:100CF000269B4FEA630302F101020D9293423FF7F4
:100D00004FAE269D15F0010560D0DDF8A880189D36
:100D1000129E002D1CBF033646442499002955DD40
:100D2000CDF83C80169D269FA7F1010705EB870CA7
:100D3000DCF800C0229B03EB870424682B9B03EBA9
:100D400087000068239B03EB4707B7F90070289AD8
:100D5000002FCCBF4FF000094FF0FF39152FC8BF4F
:100D60004FF00109149DDDF89CB0BBF1000FE64681
:100D70000CDDDDF84C8015F9013B18F901ABA3EB54
:100D800002030AFB03EEBBF1010BF4DCB9F1000F27
:100D900040F064814FEA4E0E5EFB040E4EFA07FEF1
:100DA0000EF3070E86F800E0299B13F0020F11D016
:100DB00013F0010F05D00F9B013B02D12A9B06F1D6
:100DC000020606F101060F930139CCDC002019B0B0
:100DD000BDE8F08F269B1E44F6E7013314D04FF098
:100DE000010303FA02F34FEAA3035CFB013C4FEA61
:100DF0004C0C4CFA02FC84445AFB013A4FEA4A0A72
:100E00004AFA02FA82442BE7C2F101030CFA03FC0E
:100E10000CF31F0C5CFB11FC0AFA03FA0AF31F0A1D
:100E20005AFB11FA844482441AE7013314D04FF07C
:100E3000010303FA02F34FEAA3035EFB013E4FEA0C
:100E40004E0E4EFA02FE86445BFB013B4FEA4B0B13
:100E50004BFA02FB834420E7C2F101030EFA03FEC2
:100E60000EF31F0E5EFB11FE0BFA03FB0BF31F0BC1
:100E70005BFB11FB864483440FE7279FDDF820903E
:100E80002C9EDDE909CE5FEAA70818D059F8044B7B
:100E900056F8040B56F8041B56F8042B56F8043B7E
:100EA0002FFA84F52FFA94F425FB00CC25FB02EEF3
:100EB00024FB01CC24FB03EEB8F10108E6DC17F0BB
:100EC0000308B8F1000F0CD036F9023B36F9025B8B
:100ED00019F9011B13FB01CC15FB01EEB8F1010858
:100EE000F2DC00980299049A069B109F0B9E3744EF
:100EF000002B40F099804FEA4C0C5CFB010C4CFA43
:100F000002FC0CF3070C86F800C001980399059ABF
:100F1000079B002B66D14FEA4E0E5EFB010E4EFA88
:100F200002FE0EF3070E87F800E0D0E61398279F25
:100F300000EB07092C9B032F11DD4FEAA70650F8A1
:100F4000041B59F8044B2FFA91F22FFA81F12FFA72
:100F500094F82FFA84F4A3E81601013EEFDC17F0B1
:100F600003067FF74CAD10F9011B23F8021B19F99A
:100F7000011B23F8021B013EF5DC40E5279E2C9A5D
:100F80004FF000031846B11017D0B2E8801600FAEF
:100F900087F000FAA7F000FA89F000FAA9F003FA46
:100FA0008AF303FAAAF303FA8CF303FAACF30139D8
:100FB000EBDCC0F10000C3F1000316F003010BD01D
:100FC000B2F90040A0EB0400B2F90240A3EB040325
:100FD000013902F10402F3DC289A02FB00F003FB62
:100FE00002F212E5013311D04FF0010303FA02F3CC
:100FF0004FEAA3035EFB013E4FEA4E0E4EFA02FE9D
:1010000086440EF3070E87F800E060E6C2F10103A4
:101010000EFA03FE0EF31F0E5EFB11FE86440EF366
:10102000070E87F800E052E601330DD04FF00103C0
:1010300003FA02F34FEAA3035CFB013C4FEA4C0CBA
:101040004CFA02FC84445CE7C2F101030CFA03FC95
:101050000CF31F0C5CFB11FC844452E77B1C0DD08D
:101060004FF0010303FA07F34FEAA3035EFB043ECC
:101070004FEA4E0E4EFA07FE864491E6C7F1010391
:101080000EFA03FE0EF31F0E5EFB14FE864487E687
:101090002DE9F04F99B000BF14901391169212935E
:1010A0004FF00008CDF83480DDF834B0239A02EB1D
:1010B0008B02B2F90030B2F90240CDE90434229A31
:1010C00002EBCB02D2E90012CDE902122B9A02EB1D
:1010D000CB02D2E90012CDE9001213982C9B4FF0FD
:1010E0001006046C50F8041B2FFA91F22FFA81F1CC
:1010F0002FFA94F82FFA84F4A3E81601013EF0DCED
:10110000289B2C9A4FF0000318464FF01001B2E8CC
:10111000001700FA88F000FAA8F000FA89F000FA47
:10112000A9F003FA8AF303FAAAF303FA8CF303FA99
:10113000ACF30139EBDCC0F10000C3F10003289AE5
:1011400002FB00F003FB02F2169901EBCB01D1E99F
:10115000003403441444CDE90934129A4FF00503D6
:1011600002F103021A44DDF850900B924FF03E0753
:101170000F930B9B2C9EDDE909CEE246F34603F16B
:1011800001030C934FF00408D9F840502FFA85F46E
:1011900056F8040B2FFA95F556F8041B24FB00AA09
:1011A00025FB01AA56F8042B56F8043B24FB02BB8E
:1011B00059F8044B25FB03BB2FFA84F52FFA94F45E
:1011C00025FB00CC56F8040B25FB02EED9F8405065
:1011D00024FB01CC24FB03EE2FFA85F42FFA95F5BE
:1011E00056F8041B24FB00AA56F8042B25FB01AA81
:1011F00056F8043B24FB02BB59F8044B25FB03BB08
:101200002FFA84F52FFA94F425FB00CC25FB02EE8F
:10121000D9F8405024FB01CC56F8040B24FB03EE14
:101220002FFA85F42FFA95F556F8041B24FB00AA33
:1012300056F8042B25FB01AA56F8043B24FB02BBFD
:1012400059F8044B25FB03BB2FFA84F52FFA94F4CD
:1012500025FB00CC25FB02EE56F8040B24FB01CC49
:10126000D9F8405024FB03EE2FFA85F42FFA95F5B8
:1012700056F8041B24FB00AA56F8042B25FB01AAF0
:1012800056F8043B24FB02BB59F8044B25FB03BB77
:101290002FFA84F52FFA94F425FB00CC25FB02EEFF
:1012A000B8F1010824FB01CC24FB03EE3FF76CAF3F
:1012B0000B9D2E460F9A901E09DC0C9CC2F1020277
:1012C00004EB42020C9200F1050005F102050F90BB
:1012D00000980299049A0C9C4FEA4C0C4FEA4A0A77
:1012E0005CFB010C5AFB010A4CFA02FC4AFA02FAB6
:1012F0000CF3070C0AF3070A86F800C084F800A074
:1013000001980399059A4FEA4E0E4FEA4B0B5EFB8C
:10131000010E5BFB010B4EFA02FE4BFA02FB0EF3D1
:10132000070E0BF3070B86F8BDE084F8BDB005F19E
:1013300002030B9309F14009013F7FF41AAFCDF886
:101340002090DDF820902C9EDDE909CE4FF01008AA
:1013500059F8044B56F8040B56F8041B56F8042BA6
:1013600056F8043B2FFA84F52FFA94F425FB00CCB1
:1013700025FB02EE24FB01CC24FB03EEB8F10108AF
:10138000E6DC00980299049A0B9E4FEA4C0C5CFB39
:10139000010C4CFA02FC0CF3070C86F800C0019813
:1013A0000399059A4FEA4E0E5EFB010E4EFA02FEBD
:1013B0000EF3070E86F8BDE0139B03F18003139331
:1013C000129B159A03F5BD7312930D9A02F1010257
:1013D0000D92202AFFF668AE002019B0BDE8F08F0C
:1013E0002DE9F74F06460D4600242DED020B2DED9D
:1013F0000C8B88B0B0EE608AF0EE40BAB0F882068E
:101400000290304605F072FCF0EE408A29463046E4
:1014100005F012FCB0EE409A9FEDFEAAB1EE001B63
:1014200039EE0A0AB7EEC00A07F0E2F8F7EEC09B01
:1014300038EE0A0AB1EE001BB7EEC00A07F0D8F882
:1014400095ED0B2AB7EE008ADFEDF32AB7EEC00B5D
:10145000F249F0EE480A30EE691ADFEDF1AAC1EE6A
:101460002B1AB0EE601A02EE221A80EE812A30EEBC
:1014700061BA8DED042ACDED050AB5F9400095ED70
:101480000D1A00EE100AF8EEC01AB0EE600A01EE76
:10149000210A8DED060AB5F94220D5ED0E1A101A73
:1014A00001EE100AB8EEC11A41EE810A20EE800A60
:1014B0008DED070AB6F8140600EE100AB8EE400AE1
:1014C00010EE100A884201DD30EE6A0AB6F81026E6
:1014D0008027B5F9140000EE902AB6F880366A46E7
:1014E000B8EE601A00EE900A07EA531A8DED001A62
:1014F000F8EEE00AB6F8500680EE80CA00EE100A58
:10150000B8EE400A8DED010A02EB84008B4690EDA7
:10151000000A10EE103A8B4203DD30EE6A0A80EDCD
:10152000000A20EE0C0A641C022C80ED000AEBDBA2
:1015300095ED082AF3EE091A05F500509FEDB90A5A
:10154000D5ED072A9DED001AF0EE480A79EE61CA42
:1015500005F520510391B0F94C1A38EEC0DAB0EE1F
:10156000600A01EE901A02EE2C0A42EE8D0AF8EEA5
:10157000E11A60EE211A01EEE01A8DED001A95F8DD
:10158000252052450ED1B0F94E0ADDED011A01EECB
:10159000100AB8EEC11A20EE010A40EE601ACDED35
:1015A000011A12E0B0F94E1A039801EE901A9DED5F
:1015B000011A90ED942AF8EEE11A71EE821A21EEEA
:1015C000800A00EE601A8DED011A002404F1020C6D
:1015D000E0174FEAEC7804EB906204EBD0619211D3
:1015E0005242491101EB420104EB9077E31C04EBFA
:1015F000D4720CEB987052104FEAE378524204F127
:10160000010903EB9878801004EB42024FEAE97C71
:1016100049B24A40A0EBA80809EB9C704FFA82FE41
:101620004A42012308EBA00003EB4202A0EBA70013
:101630005043BAF1000F42B27DD07046B6F8823600
:10164000834279D136F8140000EE100AB8EE400A51
:1016500010EE100A584501DD30EE6A0A05EB8400F1
:1016600000F5805705EB4403D7ED911A60EE0C0AA4
:10167000B0EE480AB3F9443C00F5E05C01EEAC0A78
:1016800001EE903A9CED912AB0EE481AF8EEE11A7C
:1016900002EE0D1A95F8257020EE210A574540EE0E
:1016A000410A14D000EE102A4FF0FF37039B07EBDE
:1016B0004101B8EEC02A00EE101AD3ED961A93ED50
:1016C000951AB8EEC00A41EE800A41EE420A02992C
:1016D00095ED060AF0EE489A05EB8101029A01F5B4
:1016E0002051C0EEAB8AD0ED110A91ED911A95ED23
:1016F0000A2A684640EE410AB0EE691A00EB820001
:1017000002EE2C1AD0ED001A20EE819A40EE618A8A
:10171000B7EEC90AB0EE081B06F06AFFB0EE681A11
:1017200009EE0B1AB7EEC11A20EE010BB7EEC00B93
:10173000B7EEC00A01E02FE08FE007F025FC07F0CC
:1017400023FC95ED0C1AB7EEC12A20EE020BB7EE82
:10175000C00BF0EE690A41EE4A0A09EE200AC8EE13
:10176000800A30EE8B0AB7EEC00A07F00DFC07F0D6
:101770000BFC9FED2D1BB5F93E0030EE411B00EE3A
:10178000900AF8EEE00AB7EEC10BF4EEC00AF1EEF3
:1017900010FA03DD00201CE008464FE7B5F94000D1
:1017A00000EE900AF8EEE00AF4EEC00AF1EE10FA4C
:1017B00001DD01200DE0B5F9420000EE900AF8EEDF
:1017C000E00AF4EEC00AF1EE10FA01DD022000E0BA
:1017D000032004AA05EB400105EB800302EB800027
:1017E000B1F93C1093ED0B1A00EE901AD0ED001AEF
:1017F000F8EEE00A30EE600A61EE890A41EE009AE6
:1018000029EEA00AC8EE800A30EE8B0AB7EEC00AB5
:101810000EE00000339388430000204200FEFF46A4
:10182000000080473333534000000060661271406F
:1018300007F0AAFB07F0A8FB9FED0D2B9FED0E1AFA
:10184000189930EE420BB7EEC00B20EE010ABCEE49
:10185000C00A10EE100A21F81400641CB4F5407F91
:10186000FFF6B4AE08B0BDEC0C8B05B0BDE8F08F50
:1018700066666666661271400000C842FEE7401A5E
:1018800000F1210103296FF0050205D3411C032952
:1018900002D31F38032801D210467047002070473A
:1018A000014801F055BB000038B10124014801F0A6
:1018B0004FBB0000B0B10124294A016891423AD0DF
:1018C000274A1832914236D0254A3032914232D0DE
:1018D000234A483291422ED0214A603291422AD086
:1018E0001F4A7832914226D01D4A9032914222D02E
:1018F0001B4AA83291421ED01A4A91421BD0194A63
:101900001832914217D0174A3032914213D0154AFB
:10191000483291420FD0134A603291420BD0114AA3
:101920007832914207D00F4A9032914203D00D4A4B
:10193000A832914211D1CAB21823103AB2FBF3F285
:101940006FF30901032A02F00703074AD25CC2655C
:1019500000D9091D81650846704721F0FF01F9E7AC
:10196000100002401004024018F6000830B5224A68
:10197000012301689142CAB21BD01F4C1434A1420A
:1019800017D01D4C2834A14213D01B4C3C34A1422B
:101990000FD0194C5034A1420BD0174C6434A142E3
:1019A00007D0154C7834A14203D0134C8C34A1429B
:1019B0000CD11421114C083AB2FBF1F10F4A8032DC
:1019C00001F01F0504EB8101AB4010E00C4D182421
:1019D000103A0D44B2FBF4F1A82D00D80831094AA1
:1019E00001F01F0402EB8101064AA34080326030FF
:1019F00080E80E0030BD000008540258005802581C
:101A0000F0FBFDBF0008024010B50279531E072B02
:101A10002DD8174C0168A1421BD0154C1434A1429B
:101A200017D0134C2834A14213D0114C3C34A1429E
:101A30000FD00F4C5034A1420BD00D4C6434A14256
:101A400007D00B4C7834A14203D0094C8C34A1420E
:101A500003D10849074C443102E00749064C4431A0
:101A600004EB8202C0E91B2101219940416710BDAE
:101A700008540258FC580258FC08024010B583690B
:101A80004FF0C074826A0146002053B1B3F5005F85
:101A900015D072B1012A0CD0022A0AD0032A09D12A
:101AA00004E01AB1012A06D0022A03D1C96AC90189
:101AB00000D5012010BDC96AA142FAD010BD002A8C
:101AC000F7D0012AF2D0022AF3D0032AF3D010BDB6
:101AD0002DE9F04F804E804FDFF8FC911836DFF88B
:101AE000F8A148370468856D0AF1300ADFF8ECB1D7
:101AF0004C45DFF8ECC1DFF8ECE16DD0B4426BD0BF
:101B0000544569D0BC4267D0DFF8D081A8F11808ED
:101B1000444561D05C455FD064455DD074455BD081
:101B2000DFF8C481444557D0DFF8BC8108F11808BC
:101B3000444551D0DFF8B08108F1300844454BD01E
:101B4000DFF8A48108F14808444545D0DFF89881C2
:101B500008F1600844453FD0DFF88C8108F178082F
:101B6000444539D0DFF8808108F19008444533D0EE
:101B7000DFF8748108F1A80844452DD0DFF86C81A6
:101B8000444529D0DFF8648108F11408444523D086
:101B9000DFF8588108F1280844451DD0DFF84C8152
:101BA00008F13C08444517D0DFF8408108F150089F
:101BB000444511D0DFF8348108F1640844450BD066
:101BC000DFF8288108F17808444505D0DFF81C814A
:101BD00008F18C08444509D1D0E91948C4F80480BB
:101BE000C46E1CB1D0E91C48C4F8048004684C459C
:101BF0002ED0B4422CD054452AD0BC4228D0374EE7
:101C0000183EB44224D05C4522D0644520D07445AF
:101C10001ED0354EB4421BD0334E1836B44217D0C6
:101C2000314E3036B44213D02F4E4836B4420FD026
:101C30002D4E6036B4420BD02B4E7836B44207D0CE
:101C4000294E9036B44203D0274EA836B44215D15F
:101C500090F85C603F2406F01F06B440AC60046856
:101C6000256825F4802525602EE09A600068C16013
:101C7000BDE8F08F99600068C260F9E71B4EB4427E
:101C80001BD01A4E1436B44217D0184E2836B44220
:101C900013D0164E3C36B4420FD0144E5036B442D8
:101CA0000BD0124E6436B44207D0104E7836B44290
:101CB00003D00E4E8C36B442DAD190F85C60012429
:101CC00006F01F06B4406C60046863608368402BB4
:101CD0000368CFD1C9E7000010000240880002402D
:101CE000A0000240B800024010040240085402580C
:101CF0007047000010B5A0B01CA006F011FC4FF416
:101D00007A7423480322234620A104F095FC204640
:101D100001F0BEFF1FA122461FA000F08FF822A0F5
:101D200006F0FEFB25A140F6B83226A000F086F8AA
:101D3000204601F0ADFF26A006F0F2FB15A140F20F
:101D4000DC5229A000F07AF82BA006F0E9FB2EA3C4
:101D5000684630A230A106F00BFC35A142F21072A9
:101D6000684600F06BF820B010BD00002D2D2D202E
:101D7000BFAACABCC7BFD6C6BBBDD0D12045535031
:101D800038323636202D2D2D0D0A00002B2B2B003E
:101D9000E8AE01244F4B000041542B4349504D4FB6
:101DA00044453D300D0A0000B8B4CEBB4553503811
:101DB0003236362E2E2E0D0A000000007265616448
:101DC0007900000041542B5253540D0A00000000CA
:101DD000C9E8D6C353746174696F6EC4A3CABD2EBB
:101DE0002E2E0D0A0000000041542B43574D4F4446
:101DF000453D310D0A000000C1ACBDD357694669AD
:101E00002E2E2E0D0A00000031323334353637388D
:101E1000000000003100000041542B43574A41505C
:101E20003D222573222C222573220D0A000000007A
:101E30005749464920474F54204950002DE9F8435F
:101E400016468846044602F049F80546642001F02B
:101E50001FFF1D490868826942F008028261086814
:101E6000816941F0100181612046FEF7E3FA82B2F8
:101E700015484FF47A73214604F0DEFB13484FF403
:101E80008071FEF7BAFA114F002415E00E480523C1
:101E90000122694604F036FB70B9FF2C04D29DF88C
:101EA0000010601C395584B208484146FEF7B0FA6C
:101EB00010B10120BDE8F88302F010F8401BB042D9
:101EC000E4D30020F6E70000E8AE012428B801249E
:101ED000F0B50023864618462EE003D21EF80340D4
:101EE0005B1C00E000248B4203D21EF803605B1CE5
:101EF00000E000268B4203D21EF803505B1C00E07A
:101F0000002527041A4C47EA062C4CEA050C4FEA38
:101F10009C45CCF30536CCF38517655D0CF03F0C82
:101F20001554401CA55D1554401CE55D1554401C1E
:101F300014F80C401454401C8B42CED34FF00304D1
:101F40004FF03D03B1FBF4F504FB1511012902D05C
:101F5000022906D008E0111801F8013C01F8023C02
:101F600002E0111801F8013C00211154F0BD0000FD
:101F700058F6000872B6FEE72DE9F34FB0F84010AE
:101F80001E23BBB0B0F842B001F00F090446C1F304
:101F9000031203EB113AC1F303210020CDE93812FB
:101FA0000DF1800804EB40018200401CB1F84410A0
:101FB00001F00F030F0BC1F30315C1F3032608EB68
:101FC000820101F1040148F82230062881E8E0008E
:101FD000E8DB002058F82010072902DD103948F806
:101FE0002010401C1828F5DB0020694604EB400354
:101FF0008200401CB3F85030082803F00F054FEA68
:10200000133CC3F30316C3F3032701EB820303F16D
:10201000040341F8225083E8C010E7DB5FF00000C2
:1020200051F82020072A02DD103A41F82020401CF8
:102030002028F5DB0120002500FA09F95FF00006F1
:102040003C9A06EB4510274904EB400302EB80075E
:10205000B3F88000C0F3051000EE100AB8EE400A95
:1020600010EE100A87ED110A884205DDDFED1E0A29
:1020700030EE600A87ED110A58F8252038985DF88F
:102080002610B0EE402A824039985A4400EE909AC9
:1020900000EE10AA81405018F8EEE00AB8EE401B9E
:1020A00000EE100A62EE200AB8EEC00A30EE200AF6
:1020B00087ED110AB0EE000B06F09AFA97ED111AAF
:1020C000761C202EB7EEC11A81EE002BB7EEC20BA4
:1020D00087ED110AB4DB6D1C182DAFDB3DB0BDE8F8
:1020E000F08F00000000F8410000804230B5838A84
:1020F0008024B0F86A20224D04EA131002F03F0455
:1021000000EE104A80F08003B8EE400A10EE100A8C
:10211000A84203DDDFED1B0A30EE600AC2F3841033
:10212000194C00EE900A9FED191ADFED191AF8EE1E
:10213000600A20EE011A10EE900AA04201DD70EE56
:10214000E10AD00A00EE100AB6EE002AB8EE400A04
:1021500060EE820A10EE100AA04201DD30EE610A44
:10216000F4EE001A01F5205281F8253020EE210A04
:1021700082ED941AC2ED950A82ED960A30BD0000F8
:102180000000F84100008042000070410000803DE6
:10219000000000422DE9F04106460D461B212DEDC1
:1021A000048BB0F84000B6F8742001EB1031C2F394
:1021B0000900B0F5007F60F30F0403DBA0F5806039
:1021C00060F30F04900A1F2860F31F4402DD4038BB
:1021D00060F31F44B6F87230484A04EB2440C3F35E
:1021E000090300EE103A60F31F44B8EE408A18EE7F
:1021F000100A904203DD9FED420A38EE408A00EE5D
:10220000101AB8EE401BB0EE000B06F0F1F9B7EE75
:10221000C82AB6F872003B49800A82EE001B00EE25
:10222000100AB8EE400A10EE100A8842F7EEC18B91
:1022300003DDDFED350A30EE600A9FED341AF7EE6C
:10224000000A96F8760040EE010A00EE100A304FC0
:10225000DFED309AB8EE408AB0EE680A18EE100A48
:1022600020EE809AB84201DD38EE698A96F8700057
:10227000C0F30310083000EE100AB8EE401BB0EEB9
:10228000000B06F0B5F9B7EEC81A81EE002BB7EED9
:10229000C20B85ED080AB6F87600000A00EE100AB7
:1022A000B8EE408A18EE100AB84201DD38EE698AAD
:1022B000B6F87000C0F3032000EE100AB8EE401B21
:1022C000B0EE000B06F094F9B7EEC81A05F52050F1
:1022D00005F50051221481EE002BB7EEC20B85EDFF
:1022E000070AC0ED918A80ED929AA1F84C4AA1F8B4
:1022F0004E2ABDEC048BBDE8F08100000080FF4356
:10230000000080440000F841000080420000003CD2
:102310000000FE42000080432DE9F0410E46844655
:1023200000214FF6FF730C460D46084606EB4102AE
:1023300002F500524F1CB9B2A2F85C3A0529A2F886
:10234000663AF3D300214FF4407300BF0CEB410217
:10235000B2F88020BAB1D20707D006EB450202F5E9
:1023600000526D1CADB2A2F8661A491C89B299429E
:1023700003D2052C01D2052DE8D3042C0CD96FF023
:102380000200BDE8F08106EB440202F50052641C35
:10239000A4B2A2F85C1AE8E7042D02D96FF003009A
:1023A000EFE76119042902D96FF00400E9E700237F
:1023B00017E000BF06EB43015F1C01F500580CE07D
:1023C00006EB470000F50050B0F85C1AB8F85C0A5C
:1023D000FFF755FA0028D4D17F1CA742F0DB5B1C25
:1023E0009BB2A342E6D3002317E000BF06EB4301F4
:1023F0005F1C01F500580CE006EB470000F50050AB
:10240000B0F8661AB8F8660AFFF739FA0028B8D1AA
:102410007F1CAF42F0DB5B1C9BB2AB42E6D30023D8
:1024200017E000BF06EB4301002701F500580CE060
:1024300006EB470000F50050B0F8661AB8F85C0AE1
:10244000FFF71DFA00289CD17F1CAF42F0DB5B1C1C
:102450009BB2A342E6D394E7B0F96000B0F5004F19
:1024600000DB00B288827047B0F878000A4A000AA0
:1024700000EE100AB8EE400A10EE100A904203DD9A
:10248000DFED060A30EE600ADFED050A20EE200AD5
:1024900081ED0A0A704700000000FE420000804300
:1024A00000000039F0B530F87E4F00252D4E6FF05A
:1024B00027028A872A46CD8710F80459C4F30134CD
:1024C000012304EB8404C5F30315A1F84050878869
:1024D0006400DFED250A15FB04F5C7F30327A1F817
:1024E000405017FB0454A1F842400578047900EEEF
:1024F000105A04F00F040834B8EE400AA34081EDEE
:102500000B0A0488240A00EE104AB8EE400A81ED56
:102510000C0A847800EE104AB8EE400A81ED0D0AEC
:102520004088000A00EE100AB8EE400A81ED0E0A5B
:1025300001EB820090ED0B0A10EE104AB44203DD6D
:1025400030EE600A80ED0B0A00EE103A90ED0B1AA7
:10255000521CB8EEC00A042AC1EE001AC0ED0B1AD4
:10256000E6DBF0BD0000FE42000080432DE9F34FA2
:102570000646B0F86C00002581B040F307217F29A2
:1025800000DD49B28DF8001040B27F2800DD40B276
:102590008DF80200B6F86E0040F307217F2900DDB8
:1025A00049B28DF8011040B27F2800DD40B28DF8AD
:1025B000030096F870200120DFF8CCA0EB46C2F3B0
:1025C000031102F00F0201F1080900FA02F80024D9
:1025D00004EB4511C81701EBD17201EB906301EBDD
:1025E000D067981140427B1122F0010203EB4000BA
:1025F0008A1A02EB400006EB4103C2B2029800EBDC
:10260000810793F8800007F58057C0F3420000EE81
:10261000100AB8EE400A10EE100A87ED910A5045F4
:1026200005DDF2EE000A30EE600A87ED910A00EE59
:10263000108A00EE909A1BF90210B8EEC00AB8EEAC
:10264000601B97ED912A00EE901A22EE000AF8EE38
:10265000E00A30EE800A87ED910AB0EE000B05F03B
:10266000C7FF97ED911A641C202CB7EEC11A81EEBA
:10267000002BB7EEC20B87ED910AA9DB6D1C182D5C
:10268000A5DBBDE8FE8F0000000040402DE9F843C7
:10269000B0F8683000258946190B072900DD10398C
:1026A0008DF80010C3F30322072A00DD103A8DF8DD
:1026B0000220C3F30311072900DD10398DF8011042
:1026C00003F00F02072A00DD103A8DF80320B0F85E
:1026D0007000E846C0F303265FF0000404EB4510E9
:1026E00000EE106AC11700EBD07200EB916300EBB3
:1026F000D1679B115B4222F001017A1102EB430288
:10270000411A01EB4201C9B209EB8007B8EE401B48
:1027100018F9010007F5E05700EE900AB8EEE00A5C
:1027200087ED910AB0EE000B05F062FF97ED911A6C
:10273000641C202CB7EEC12A82EE001BB7EEC10B41
:1027400087ED910ACADB6D1C182DC5DBBDE8F88347
:102750002DE9F34F028C0021B0F92230B8B002F01D
:102760000F0AB3F5004FC2F30319C2F3032E00DBC7
:102770001BB220AA00EB41048D00491CA48C062941
:1027800004F00F064FEA143CC4F30317C4F3032804
:1027900002EB850404F1040442F8256084E880110A
:1027A000E8DB0021934652F82140072C03DD103C62
:1027B0005A464BF82140491C1829F3DB0022694690
:1027C00000EB42049500521C248E082A04F00F06E8
:1027D0004FEA143CC4F30317C4F3032801EB850448
:1027E00004F1040441F8256084E88011E8DB00224C
:1027F00051F82240072C02DD103C41F82240521CC7
:10280000202AF5DB002400225BF8245005FA0EF59F
:1028100002EB4416DDF8E4C000EB46070CEB46067D
:10282000B7F88070BF0AA6F8447C1F2F02DD403F36
:10283000A6F8447CBFB231F8228007FA0AF7521C8E
:10284000202A08FA09F805EB080C1F446744A6F88B
:10285000447CDDDB641C182CD5DB3AB0BDE8F08F7E
:1028600070B50C460546254A2DED028BB0F8641074
:10287000880A00EE100AB8EE400A10EE100A9042E4
:1028800003DDDFED1F0A30EE600A9FED1E1AC1F373
:1028900009001D4900EE900A20EE018AB8EE600A98
:1028A00010EE100A884203DDDFED180A30EE600AF0
:1028B000F4EE000AB5F86260B2EE0C1B60EE208AFE
:1028C000B0EE000B05F094FE288CB2EE002B00F465
:1028D000704001EE100A84ED018AC4ED028AB8EE60
:1028E000411BA68181EE003B33EE020BB7EEC00B1D
:1028F00084ED040ABDEC028B70BD00000000F841BD
:1029000000008042000080390080FF4300008044C6
:1029100090F87800094A00EE100AB8EE400A10EE6E
:10292000100A904203DDDFED060A30EE600ADFEDAB
:10293000050A20EE200A81ED060A70470000FE42DB
:10294000000080430000003DB0F86620100A7F2898
:1029500001DDA0F58070D2B24FF440434001088001
:1029600003EB42124A8070472DE9F84F044601F00C
:10297000B5FA00903CB194F83500022806D08021C9
:1029800061650020E4E00120BDE8F88FC74DC74E27
:10299000C649183520683036DFF81483DFF8149301
:1029A0008842DFF814A3DFF814B32ED0A8422CD04D
:1029B000B0422AD0404528D0484526D0504524D0A2
:1029C000584522D0BD4A183290421ED0BC4A90428F
:1029D0001BD0BB4A1832904217D0B94A30329042CD
:1029E00013D0B74A483290420FD0B54A6032904275
:1029F0000BD0B34A7832904207D0B14A903290421D
:102A000003D0AF4AA832904209D1026822F01E02D8
:102A100002602068426922F08002426103E002689D
:102A200022F00E02026027688F4238464DD0A8423D
:102A30004BD0B04249D0404547D0484545D050459D
:102A400043D0584541D09D4A183290423DD09C4ACF
:102A500090423AD09A4A1832904236D0984A303250
:102A6000904232D0964A483290422ED0944A6032F8
:102A700090422AD0924A7832904226D0904A9032A0
:102A8000904222D08E4AA83290421ED08D4A904267
:102A90001BD08C4A1432904217D08A4A2832904276
:102AA00013D0884A3C3290420FD0864A503290422E
:102AB0000BD0844A6432904207D0824A78329042E6
:102AC00003D0804A8C32974204D1206E026822F4EF
:102AD0008072026075492068884228D0A84226D0BA
:102AE000B04224D0404522D0484520D050451ED089
:102AF00058451CD071491831884218D07049884215
:102B000015D06F491831884211D06D493031884253
:102B10000DD06B494831884209D0694960318842FB
:102B200005D067497831884201D065499031016804
:102B300021F0010101600EE001F0D0F90099401A86
:102B4000052808D9202262650321002084F8351069
:102B500084F8340017E73868C007EDD1534A0121E3
:102B6000206890422ED0A8422CD0B0422AD04045B6
:102B700028D0484526D0504524D0584522D04F4B28
:102B8000183398421ED04E4B98421BD04C4B1833F2
:102B9000984217D04A4B3033984213D0484B4833B1
:102BA00098420FD0464B603398420BD0444B783359
:102BB000984207D0424B9033984203D0404BA83301
:102BC000984208D194F85C703F23A06D07F01F076E
:102BD000BB40836007E094F85C30A06D03F01F03F6
:102BE00001FA03F34360206890424DD0A8424BD0D5
:102BF000B04249D0404547D0484545D0504543D0E4
:102C0000584541D02D4A183290423DD02C4A90422E
:102C10003AD02B4A1832904236D0294A303290426C
:102C200032D0274A483290422ED0254A6032904214
:102C30002AD0234A7832904226D0214A90329042BC
:102C400022D01F4AA83290421ED01E4A90421BD06A
:102C50001C4A1432904217D01A4A2832904213D09C
:102C6000184A3C3290420FD0164A503290420BD054
:102C7000144A6432904207D0124A7832904203D00C
:102C8000104A8C3290420BD1D4E919024260E06EB6
:102C900030B1026822F480720260D4E91C02426002
:102CA000002084F8351084F834006DE610000240EE
:102CB000580002407000024088000240A00002401C
:102CC00010040240085402582DE9F05F28B190F832
:102CD0003510022904D0802141650120BDE8F09F14
:102CE000904C904B0168183C18338E4ADFF83C92A8
:102CF000A1428D4CDFF838E28E4FDFF83CB2DFF8AE
:102D00003CA28F4D8F4E31D091422FD099422DD081
:102D1000A1422BD0494529D0714527D0B94225D0B1
:102D2000DFF810C20CF1180C61451FD0DFF808C2A3
:102D3000ACF1600C614519D0DFF8FCC1ACF1480C76
:102D4000614513D0DFF8F0C1ACF1300C61450DD016
:102D5000DFF8E4C1ACF1180C614507D0594505D046
:102D6000514503D0A94201D0B1422CD1DFF8B4C102
:102D70004FF0040880F83580ACF1180C61451DD087
:102D800091421BD0994219D0A14217D0494515D084
:102D9000714513D0B94211D06648183081420DD028
:102DA00065486038814209D063484838814205D07F
:102DB00061483038814201D05F481838086820F0F7
:102DC00001000860ABE0D1F800C02CF00E08DFF87D
:102DD00054C1C1F80080ACF1180C0168614527D0DE
:102DE000914225D0994223D0A14221D049451FD0FC
:102DF00071451DD0B9421BD0DFF838C10CF1180C59
:102E0000614515D0DFF830C1ACF1600C61450FD0E1
:102E1000DFF824C1ACF1480C614509D0DFF818C1D6
:102E2000ACF1300C614503D0DFF80CC1ACF1180CEB
:102E3000D1F800C02CF0010CC1F800C0DFF8E4802C
:102E40004FF0010C0168A8F11808414546D09142A5
:102E500044D0994242D0A14240D049453ED071452C
:102E60003CD0B9423AD0334A1832914236D0324A35
:102E7000603A914232D0304A483A91422ED02E4A9E
:102E8000303A91422AD02C4A183A914226D05945DC
:102E900024D0514522D0A94220D0B1421ED02A4A86
:102EA00091421BD0284A1432914217D0264A283228
:102EB000914213D0244A3C3291420FD0224A5032E0
:102EC00091420BD0204A6432914207D01E4A783298
:102ED000914203D01C4A8C32914218D1016E0A688B
:102EE00022F480720A6090F85C20816D02F01F026B
:102EF0000CFA02F24A60D0E919124A60C16E31B18F
:102F00000A6822F480720A60D0E91C124A6000222A
:102F1000016D80F835C080F8342001B18847002069
:102F2000DCE6000028000240580002407000024029
:102F300088000240A0000240700402408804024061
:102F4000A0040240B804024008540258406D704783
:102F50002DE9FC5F0446F74E0020DFF8D88300908F
:102F60004FF41652F44808F11808A56DDFF8C49321
:102F7000DFF8C0A3016809F1300920680AF1480AA6
:102F8000B1FBF2F1B04201912F68D5F800C0DFF833
:102F9000ACB335D04146884232D0484530D0504558
:102FA0002ED058452CD0E5491831884228D0E34925
:102FB0003031884224D0E1494831884220D0E0496C
:102FC00088421DD0DE491831884219D0DC493031A1
:102FD000884215D0DA494831884211D0DFF860E3E1
:102FE0000EF1600E70450BD0D54A7832904207D072
:102FF000D34B9033984203D0D149A83188427DD138
:1030000094F85C20082102F01F0201FA02F23A4211
:103010004AD0B04232D0404530D048452ED05045FD
:103020002CD058452AD0C54A1832904226D0C34ADF
:103030003032904222D0C14A483290421ED0C04A1B
:1030400090421BD0BE4A1832904217D0BC4A303250
:10305000904213D0BA4A483290420FD0B84A6032F8
:1030600090420BD0B64A7832904207D0B44A9032A0
:10307000904203D0B24AA832904203D1026802F0D3
:10308000040202E0026802F008026AB1026822F05B
:103090000402026094F85C0000F01F008140A96007
:1030A000606D40F00100606594F85C00012100F063
:1030B0001F008140394240D02068B04234D04045A2
:1030C00032D0484530D050452ED058452CD09B4A60
:1030D0001832904228D0994A3032904224D0974AF0
:1030E0004832904220D0964A90421DD0944A1832DD
:1030F000904219D0924A3032904200E0AFE113D0B2
:103100008F4A483290420FD08D4A603290420BD0A5
:103110008B4A7832904207D0894A9032904203D04D
:10312000874AA83290427DD1406910F0800F04D0C8
:10313000A960606D40F00200606594F85C000421B5
:1031400000F01F00814039423ED02068B04232D0AA
:10315000404530D048452ED050452CD058452AD037
:10316000764A1832904226D0744A3032904222D0A9
:10317000724A483290421ED0714A90421BD0704A27
:103180001832904217D06E4A3032904213D06C4AB7
:10319000483290420FD06A4A603290420BD0684A5F
:1031A0007832904207D0664A9032904203D0644A07
:1031B000A83290424ED1006810F0020F04D0A960EE
:1031C000606D40F00400606594F85C00102100F030
:1031D0001F008140394258D02068B04234D0404569
:1031E00032D0484530D050452ED058452CD0534A87
:1031F0001832904228D0514A3032904224D04F4A5F
:103200004832904220D04E4A90421DD04C4A18324B
:10321000904219D04A4A3032904215D0484A48323A
:10322000904200E014E00FD0454A603290420BD04B
:10323000434A7832904207D0414A9032904203D0BC
:103240003F4AA832904207D1006800F0080006E02B
:10325000006872E70068B7E7006800F00400A0B1FA
:10326000A96020680168490304D50068000308D5F7
:10327000A16C07E00168C90503D4016821F00801C9
:103280000160216C09B12046884794F85C00202138
:1032900000F01F008140394279D02068B04232D01E
:1032A000404530D048452ED050452CD058452AD0E6
:1032B000224A1832904226D0204A3032904222D000
:1032C0001E4A483290421ED01D4A90421BD01C4AD2
:1032D0001832904217D01A4A3032904213D0184A0E
:1032E000483290420FD0164A603290420BD0144AB6
:1032F0007832904207D0124A9032904203D0104A5E
:10330000A832904203D1006800F0100002E000688B
:1033100000F00200B0B3A96094F8350004282068DA
:1033200001680FD049037ED5006800032BD4616C7F
:103330002AE0000010000240E4DC0024700002409B
:103340001004024021F0160101602068416921F05B
:1033500080014161206C08B9A06C20B1206801682F
:1033600021F00801016094F85C303F21012003F056
:103370001F0300229940A96084F8350084F83420A6
:10338000216D65E003E0E16B09B120468847606D7F
:1033900000287DD0606DC00759D02068042184F8D2
:1033A0003510B0422BD0404529D0484527D0504554
:1033B00025D0584523D09D49884220D09B491831BB
:1033C00088421CD099493031884218D098498842A7
:1033D00015D097491831884211D09549303188422B
:1033E0000DD093494831884209D0914960318842D3
:1033F00005D08F497831884201D08D4990310168DC
:1034000021F00101016020680099019A491C009196
:10341000914202D80168C907F6D10068C00710D0F0
:1034200003200FE0FFE70168C905ACD40368012160
:10343000002223F01003036084F8351084F8342050
:10344000A1E7012084F83500002084F83400E16C05
:1034500000291DD002B02046BDE8F05F084775493D
:1034600088421DD073491431884219D071492831DE
:10347000884215D06F493C31884211D06D49503196
:1034800088420DD06B496431884209D0694900E017
:1034900084E07831884203D066498C3188427DD1FE
:1034A00094F85C800427016808F01F0807FA08F701
:1034B00017EA0C0F009746D04F0744D500980F0429
:1034C000686003D5C8033CD4A16CC1E7880638D432
:1034D0002068B0422DD055496039884229D04845EE
:1034E00027D0504525D0584523D05049884220D078
:1034F0004E49183188421CD04C493031884218D08E
:103500004B49884215D04A491831884211D0484960
:10351000303188420DD046494831884209D0704543
:1035200007D0904205D0984203D04149A831884243
:1035300003D1016821F0080102E0016821F00401D3
:103540000160216C84E7022707FA08F717EA0C0FDD
:1035500000974ED08F074CD500980F04686003D5B4
:10356000C80344D4616C73E7880640D42068B04235
:103570002FD02E49603988422BD0484529D050455C
:1035800027D0584525D02949884222D027491831CB
:1035900088421ED025493031884200E044E018D0EE
:1035A0002349884215D022491831884211D0204938
:1035B000303188420DD01E494831884209D07045CB
:1035C00007D0904205D0984203D01949A8318842CB
:1035D00003D1016821F0140102E0016821F00A0121
:1035E0000160012184F83510002084F83400E16B7B
:1035F0002EE7082202FA08F212EA0C0F14D009078B
:1036000012D5016821F00E01016094F85C100120D0
:10361000002201F01F0100FA01F16960606584F881
:10362000350084F8342012E7BDE8FC9F8800024092
:1036300010040240085402582DE9F05F044600F0DF
:103640004DFC002C07467DD0E24E022120684FF051
:103650000308DFF884934FF00005DFF880A3B04241
:10366000DFF87CB334D0DB4A1832904230D0484582
:103670002ED050452CD058452AD0D94A18329042E5
:1036800026D0D74A3032904222D0D54A4832904292
:103690001ED0D44A90421BD0D24A1832904217D042
:1036A000D04A3032904213D0CE4A483290420FD0A6
:1036B000CC4A603290420BD0CA4A7832904207D04E
:1036C000C84A9032904203D0C64AA83290427DD177
:1036D00084F83510B04284F834502ED0BD491831EA
:1036E00088422AD0484528D0504526D0584524D075
:1036F000BB491831884220D0B949303188421CD0AA
:10370000B7494831884218D0B649884215D0B549E2
:103710001831884211D0B349303188420DD0B149B7
:103720004831884209D0AF496031884205D0AD495F
:103730007831884201D0AB499031016821F0010114
:10374000016008E025E100BF00F0C8FBC01B0528B0
:1037500001D920211AE120680068C007F4D1D4E91A
:1037600002032168103418438E4694E88410D4E98B
:10377000033809683A4310439B4A40EA0C006769E2
:1037800018431140103C40EA0800042F40EA0100B1
:1037900003D1D4E90B12114308436168A1F1290256
:1037A000052A0BD9163A032A08D9083A012A05D95D
:1037B000083A032A02D97439032901D840F4801049
:1037C000CEF800002068676A406900E020E0042F1E
:1037D00020F0070047EA00070DD1D4E90A010743AA
:1037E00049B12046FEF74AF928B140206065012121
:1037F00084F83510CDE0206847612046FEF75CF87C
:1038000094F85C203F2102F01F029140816055E056
:10381000764A90421BD0754B1433984217D0734BA5
:103820002833984213D0714B3C3398420FD06F4BE2
:10383000503398420BD06D4B6433984207D06B4B9A
:103840007833984203D0694B8C3398427ED184F808
:10385000351084F83450664B0168A26801EA030E03
:10386000402A74D0802A73D05FF00002D4E9037834
:10387000D4E9053142EAD70242EAD8085B4AD4E9E2
:10388000077C48EAD30848EAD10141EAD70152420D
:1038900041EA1C11142341EA0E0101602068104422
:1038A000B0FBF3F08000E0652046FEF705F894F8E1
:1038B0005C20012102F01F02914041602068B0426B
:1038C00057D044491831884253D0484551D05045CB
:1038D0004FD058454DD042491831884249D04049CF
:1038E0003031884245D03E494831884241D03D4937
:1038F00088423ED03B49183188423AD0394930316C
:10390000884236D037494831884232D03549603113
:1039100088422ED03349783188422AD031499031BB
:10392000884226D02F49A831884222D02F49884288
:103930001FD02E49143188421BD02C49283188428F
:1039400017D02A493C31884213D002E01DE017E02D
:1039500018E02649503188420BD02449643188420E
:1039600007D022497831884203D020498C318842DF
:1039700029D12046FDF7FAFFA06880280CD00CE082
:10398000102273E74FF4804270E74021616584F8AC
:1039900035800120BDE8F09F6560216E20790860C8
:1039A000D4E9190141606068401E072808D8204604
:1039B000FEF72AF8E06E0560D4E91C01416002E0E0
:1039C000E566256765670120656584F83500002098
:1039D000E0E70000100002404000024058000240B2
:1039E00070000240100402403F8010FE085402584C
:1039F0000F00FEFF2DE9F84F04008C464FF0000049
:103A0000009014D094F83400012812D094F8355066
:103A10000120002184F83400012D0CD0C002606523
:103A20000120009084F834100098BDE8F88F012040
:103A3000FBE70220F9E78C4D0226206884F8356008
:103A4000A8428A4D61658A4E8A4FDFF82C82DFF8E2
:103A50002C92DFF82CA2DFF82CB226D0A84224D07A
:103A6000B04222D0B84220D040451ED048451CD09C
:103A700050451AD0584518D08349884215D08249FC
:103A80001831884211D08049303188420DD07E49AA
:103A90004831884209D07C496031884205D07A4952
:103AA0007831884201D078499031016821F00101D4
:103AB000016061462046FEF70BF86B49206888429A
:103AC0002CD0A8422AD0B04228D0B84226D04045B7
:103AD00024D0484522D0504520D058451ED06A4AAF
:103AE00090421BD0684A1832904217D0664A303252
:103AF000904213D0644A483290420FD0624A6032FA
:103B000090420BD0604A7832904207D05E4A9032A1
:103B1000904203D05C4AA83290420CD1026822F055
:103B20001E0242F016020260206C88B12068026812
:103B300042F008020BE0026822F00E0242F00A0294
:103B40000260206C20B12068026842F0040202602A
:103B5000206888424BD0A84249D0B04247D0B842F2
:103B600045D0404543D0484541D050453FD05845C9
:103B70003DD0454A90423AD0434A1832904236D01E
:103B8000414A3032904232D03F4A483290422ED0A1
:103B90003D4A603290422AD03B4A7832904226D049
:103BA000394A9032904222D0374AA83290421ED0F1
:103BB000364A90421BD0354A1432904217D0334ACD
:103BC0002832904213D0314A3C3290420FD02F4AD3
:103BD000503290420BD02D4A6432904207D02B4A8B
:103BE0007832904203D0294A8C3290420DD1206E17
:103BF0000268D20303D5026842F480720260E06E6C
:103C000018B1026842F4807202602068884226D0AF
:103C1000A84224D0B04222D0B84220D040451ED085
:103C200048451CD050451AD0584518D016498842EE
:103C300015D015491831884211D0134930318842C6
:103C40000DD011494831884209D00F49603188426E
:103C500005D00D497831884201D00B499031016877
:103C600041F001010160DFE610000240280002403F
:103C700040000240580002407000024088000240AC
:103C8000A0000240B800024010040240085402584C
:103C900070B5044600F022F90546601C02D00448C5
:103CA0000078044400F01AF9401BA042FAD370BD1A
:103CB000D8DC00242DE9F84F03247A4D00234FF07F
:103CC00001094FF0B04B4FF00F0AE4E009FA03F698
:103CD000324078D00F7907F00307012F01D0022F6F
:103CE0001AD187684FEA430ED1F80CC004FA0EF8D7
:103CF00027EA08070CFA0EFC4CEA070CC0F808C0CB
:103D0000476891F804C0B743CCF3001C0CFA03FCDD
:103D10004CEA070CC0F804C00E79F643B6070BD086
:103D2000C6684FEA43088F6804FA08FC26EA0C06C6
:103D300007FA08F73743C7600E7906F00306022E2C
:103D400012D1DE080F694FEA437C00EB8606B646C7
:103D5000366A4FEADC6C0AFA0CF807FA0CF726EA26
:103D600008063743CEF820700F7906684FEA4308FB
:103D700007F0030704FA08FC07FA08F726EA0C061E
:103D8000374307604E6816F4403F1CD0464E3768F4
:103D900047F00207376036689F0706F00206009674
:103DA00023F0030606F1B046B6463F0FD6F8086486
:103DB000DFF8F8800AFA07FC404526EA0C0603D132
:103DC0004FF0000C3AE065E0DFF8E4C0604502D156
:103DD0004FF0010C32E0DFF8DCC0604502D14FF05B
:103DE000020C2BE0DFF8D0C0604502D14FF0030C8D
:103DF00024E0DFF8C8C0604502D14FF0040C1DE09C
:103E0000DFF8BCC0604502D14FF0050C16E0DFF8CA
:103E1000B4C0604502D14FF0060C0FE0DFF8A8C037
:103E2000604502D14FF0070C08E0DFF8A0C0604504
:103E300002D14FF0090C01E04FF00A0C0CFA07FC1C
:103E40004CEA060CCEF808C44F68DBF80060FF02AD
:103E500026EA020600D516435F46CBF80060D1F88B
:103E600004C0DBF804605FEA8C2C26EA020600D569
:103E700016437E606E684F6826EA0206BF0300D5CF
:103E800016436E602E684F6826EA0206FF0300D5CF
:103E900016432E605B1C0A6832FA03F67FF416AFF5
:103EA000BDE8F88F80000058F44402580000025822
:103EB0000004025800080258000C02580010025872
:103EC0000014025800180258001C0258002402581E
:103ED0000AB1816170470904FBE70000014880686E
:103EE00070470000D8DC002430B590F84120202A2B
:103EF00024D190F84020012A20D0012380F84030BE
:103F0000242280F84120202300240268156825F02F
:103F1000010515600268156825F480551560026872
:103F200015680D43156001680A6842F001020A60D5
:103F300080F8413080F84040002030BD022030BD84
:103F400030B590F84120202A22D190F84020012A53
:103F50001ED0012380F84030242280F84120202404
:103F600000250268136823F00103136002681368D8
:103F700023F4706343EA0121116001680A6842F08A
:103F800001020A6080F8414080F84050002030BDB6
:103F9000022030BD074908B50A6842F002020A60F3
:103FA000096801F00201009103490A6802430A60AE
:103FB00008BD0000F44402580404005870B5040021
:103FC00004D094F84100002510B106E0012070BD36
:103FD000204684F8405000F0AFF9242084F84100D6
:103FE0002068016821F001010160D4E9001020F08F
:103FF000706008612068816821F400418160E06898
:1040000021680128A06830D040F404408860E0684E
:104010000228206841682BD021F4006141602068AB
:104020002021154A4368134343602068C26822F484
:104030000042C26054F8106B0DCC104340EA0320DC
:10404000F06054F81C3CD4E900021043186054F8A6
:104050001C0D026842F001020260656484F84110A0
:10406000256384F84250002070BD40F40040CDE745
:1040700041F40061D2E70000008000022DE9FF4F0B
:1040800083B0044690F841009A469346DDE91087D4
:10409000DDF84890202874D15FEA080014D09FB161
:1040A00094F8400001286CD0012084F84000FFF70C
:1040B00015FF0122064619230090D103204602F085
:1040C0007FFC002871D103E04FF4007060646CE065
:1040D0000025C4F82480222184F84110402084F86F
:1040E000420065646785534665635A4604992046D5
:1040F000CDE9009602F0E8FB10B184F8405054E09E
:10410000618DFF2734484FF08078FF294FF0007A07
:1041100004D927853A464346009005E0618D534611
:104120002185009094F828202046049902F030FC64
:1041300000224B4604212046009602F041FCA0BB21
:104140002068616A406A0870606A401C6062208D65
:10415000401E81B22185608D401E6085608DD8B182
:10416000D1B900224B4680212046009602F028FC5F
:10417000D8B9608DFF2805D927853A464346009572
:1041800006E026E0608D53462085009594F82820AF
:104190002046049902F0FCFB608D0028C8D132460D
:1041A0004946204602F04AFC18B1012007B0BDE89C
:1041B000F08F21682020094AC86121684B681340AC
:1041C0004B6084F8410084F84250002084F840504D
:1041D000ECE70220EAE700000024008000E800FE8F
:1041E0002DE9FF4F83B0044690F841009A4693466C
:1041F000DDE91087DDF84890202871D15FEA0800DA
:1042000014D09FB194F84000012869D0012084F8AF
:104210004000FFF763FE0122064619230090D103F8
:10422000204602F0CDFB00286ED103E04FF4007071
:10423000606469E00025C4F82480212184F84110DD
:10424000402084F8420065646785534665635A469A
:1042500004992046CDE9009602F068FB10B184F87D
:10426000405051E0608DFF274FF08078FF284FF0DD
:10427000007A04D927853A464346009505E0608DCB
:1042800053462085009594F828202046049902F092
:104290007FFB32464946204602F0FCFBA0BB606A29
:1042A000216800788862606A401C6062608D401EF0
:1042B0006085208D401E80B22085618DD9B1D0B936
:1042C00000224B4680212046009602F079FBD8B9A7
:1042D000608DFF2805D927853A464346009506E0BC
:1042E00026E0608D53462085009594F828202046CE
:1042F000049902F04DFB608D0028CAD13246494630
:10430000204602F09BFB18B1012007B0BDE8F08FFA
:1043100020682021074AC161206843681340436038
:1043200084F8411084F84250002084F84050ECE7B3
:104330000220EAE700E800FE10B5B4B004461421FC
:104340002EA8FCF75AF8B8216846FCF756F8194928
:10435000206888422CD10020209008210446CDE915
:104360000010684600F09EFA08B1FDF703FE1248FF
:10437000016841F00201016000680DF1B80C1221E2
:1043800000F002003390C02004238CE813000222C6
:104390000A48CDE931232EA9FFF78CFC06480830E6
:1043A000016841F400110160006800F400103390CE
:1043B00034B010BD00540040E044025800040258DC
:1043C000024881680278114481607047D8DC00247B
:1043D000032010B500F0D4F801F076F80F4A104928
:1043E00014681368C4F3032203F00F038A5CC95CEA
:1043F00002F01F0201F01F01D0400A4A20FA01F129
:104400001160094908600F2000F010F808B1012080
:1044100010BD00F079F8002010BD000018440258CB
:1044200048F60008E8DC0024E4DC002470B50D4DFB
:1044300004462878A0B14FF47A71B1FBF0F00A4934
:104440000968B1FBF0F001F06FFC48B9102C07D2FD
:1044500000222146501E00F073F800206C6070BDF1
:10446000012070BDD8DC0024E4DC0024154BF0B53D
:10447000083B427813491A600B680A1F23F00103B6
:104480000B6043681360057BC67A827A437B2D07F5
:10449000847B45EA0665C77B90F809C0067A90F8E8
:1044A00000E045EAC24040EA834040EA444040EA36
:1044B000074040EA0C2040EA460040EA0E0008604F
:1044C000F0BD0000A0ED00E0BFF35F8F04480021C5
:1044D0000368034A23F4803303607032116070472D
:1044E00024ED00E0074A40F00100064970321060F8
:1044F000086840F480300860BFF34F8FBFF36F8FC0
:104500007047000024ED00E0054808B5016841F05F
:1045100002010160006800F00200009008BD000088
:10452000F4440258002809DB410900F01F02890009
:10453000012001F1E0219040C1F800017047000026
:104540000E4BF0B41B680D46C3F30223C3F10706FC
:10455000042E00D90426191D072901D2002300E0EA
:10456000DB1E012404FA06F19C40491E2940641E0A
:10457000994014402143F0BC04F026B80CED00E053
:10458000064900F0070210B54FF6FF040868044B17
:10459000204040EA02201843086010BD0CED00E006
:1045A0000000FA05134970B50A68D243520705D5D1
:1045B000096801F00701814213D118E00A6822F06E
:1045C000070202430A60FFF789FC0A4D4FF47A762E
:1045D0000446083D07E000BFFFF780FC001BB04227
:1045E00001D9012070BD2868C0438004F4D40020A4
:1045F00070BD00000C48025810B500F01FFF0549BF
:104600000968054AC1F30211515C01F01F01C8405D
:1046100010BD00002044025848F60008494930B552
:10462000484C0B1D0A68143409681D68246802F0A0
:104630000303C5F30012C1F30531C4F3CC04002910
:1046400014FB02F200EE102AF8EE400A75D03F4A41
:104650009FED3D1AB7EE000A6BB1DFED3D1A012B5D
:1046600001D0022B64D002EE101A1168F8EE422A33
:1046700081EEA22A21E0334C283C23689B0612D508
:10468000344B246801EE901A1168C4F3C104F8EEAB
:10469000612AE34001EE903AC1F30801F8EE611A95
:1046A00081EEA22A0BE001EE901ADFED2B2A00BF6B
:1046B000F8EE611A116882EEA12AC1F3080101EE39
:1046C000901A1168F8EE611A40EE811A71EE800AB4
:1046D00062EE200AC1F3462101EE101AB8EE411A2B
:1046E00031EE001AC0EE811ABCEEE11A80ED001A1C
:1046F0001168C1F3064101EE101AB8EE411A31EE0D
:10470000001AC0EE811ABCEEE11A80ED011A1168A0
:10471000C1F3066101EE101AB8EE411A31EE000A3B
:1047200080EE801ABCEEC10A80ED020A30BD04E0C2
:1047300001EE901ADFED092ABAE70021016041601D
:104740008160F3E7284402580000003938440258D9
:104750000024744A0090D0030024744C20BCBE4B4B
:10476000494930B5484C0B1D0A681C3409681D685E
:10477000246802F00303C5F30022C1F30551C4F31A
:10478000CC04002914FB02F200EE102AF8EE400AD5
:1047900075D03F4A9FED3D1AB7EE000A6BB1DFEDD1
:1047A0003D1A012B01D0022B64D002EE101A1168C1
:1047B000F8EE422A81EEA22A21E0334C283C2368FD
:1047C0009B0612D5344B246801EE901A1168C4F38D
:1047D000C104F8EE612AE34001EE903AC1F308010A
:1047E000F8EE611A81EEA22A0BE001EE901ADFEDDD
:1047F0002B2A00BFF8EE611A116882EEA12AC1F3DC
:10480000080101EE901A1168F8EE611A40EE811A63
:1048100071EE800A62EE200AC1F3462101EE101A01
:10482000B8EE411A31EE001AC0EE811ABCEEE11A60
:1048300080ED001A1168C1F3064101EE101AB8EEBE
:10484000411A31EE001AC0EE811ABCEEE11A80ED79
:10485000011A1168C1F3066101EE101AB8EE411A8F
:1048600031EE000A80EE801ABCEEC10A80ED020A29
:1048700030BD04E001EE901ADFED092ABAE700210D
:10488000016041608160F3E728440258000000396C
:10489000404402580024744A0090D0030024744C11
:1048A00020BCBE4B2DE9FE4F0546DFF800A450F8B2
:1048B000081B0024FD4FC943019005F1280026463E
:1048C0000AF1240A009008011DD4686E50B1B0F5B9
:1048D000801F0CD0B0F5001F0ED0B0F5401F1ED0C9
:1048E00001240FE0386840F40030386017E0019888
:1048F000022102F0E3FC03E00098022102F06EFDC9
:1049000004000CD026462888C043C00523D4A86DD7
:1049100005281ED2DFE800F00C11161B1B006A6E82
:10492000DAF8001021F440111143CAF80010EAE748
:10493000386840F40030386009E00198002102F046
:10494000BDFC03E00098002102F048FD0446C4B11C
:1049500000E0012426462888DFF85083C04308F190
:104960002C0840052FD4D5F8A400B0F5C00F28D0EE
:1049700010DCB8B1B0F5001F19D0B0F5800F0FD121
:104980001AE0AA6DDAF8001021F007011143CAF805
:104990000010E0E7B0F5000F13D0B0F5200F10D0F5
:1049A00001240FE0386840F40030386009E00198D5
:1049B000002102F083FC03E00098002102F00EFDCC
:1049C000044694B126462888C043000530D4D5F863
:1049D000A800B0F1407F29D011DCC0B1B0F1807FD8
:1049E0001AD0B0F1007F10D11BE0D5F8A420D8F880
:1049F000001021F460011143C8F80010E3E7B0F1A2
:104A0000806F13D0B0F1A06F10D001240FE0386890
:104A100040F40030386009E00198002102F04EFCBB
:104A200003E00098002102F0D9FC044694B1264628
:104A30002868DFF878B2C0430BF1200B80011FD447
:104A4000E86CD8B110280FD0202812D0302815D00B
:104A5000012414E0D5F8A820D8F8001021F0E06176
:104A60001143C8F80010E3E7386840F400303860BC
:104A700004E00198022102F021FC044674B12646AC
:104A80002888C043C0042BD4E86DB0F5005F20D067
:104A90000DDCA0B1B0F5805F0FD115E0EA6CDBF85A
:104AA000001021F030011143CBF80010E8E7B0F519
:104AB000405F13D0B0F5804F10D001240FE038686C
:104AC00040F40030386009E00198002102F0F6FB64
:104AD00003E00098002102F081FC04468CB12646D8
:104AE0002888C043800429D4286EB0F5403F23D0E5
:104AF00010DC08B3B0F5803F14D0B0F5003F0FD103
:104B000015E0EA6DDAF8001021F4E0411143CAF82B
:104B10000010E5E7B0F5802F0ED0B0F5A02F0BD038
:104B200001240AE00198012102F0C8FB03E000988B
:104B3000012102F053FC044694B126462888C04364
:104B400040042AD4D5F8AC00B0F1405F23D010DC8B
:104B500008B3B0F1805F14D0B0F1005F0FD115E061
:104B60002A6EDAF8001021F4E0211143CAF800108F
:104B7000E4E7B0F1804F0ED0B0F1A04F0BD001248C
:104B80000AE00198012102F099FB03E0009801215D
:104B900002F024FC044674B126462888C043000471
:104BA0001FD4E86ED8B1B0F1805F0ED0B0F1005FD5
:104BB00010D0012414E0D5F8AC20D8F8001021F072
:104BC000E0411143C8F80010E7E7386840F40030CE
:104BD000386004E00198012102F070FB044674B1D2
:104BE00026462868C043C0011ED4A86CD0B1012855
:104BF0000ED0022811D0032814D0012413E0EA6E4D
:104C0000DAF8001021F040511143CAF80010E8E72B
:104C1000386840F40030386004E00198022102F066
:104C20004DFB04466CB126462868C043400255D46B
:104C30001F48016841F480710160FFF74FF9814618
:104C40000EE0AA6CDBF8001021F003011143CBF851
:104C50000010E9E7FFF742F9A0EB090064283BD810
:104C600013480068C005F5D5BCBBDFF84090B5F827
:104C7000B01009F14409D9F8000001F4407100F4C2
:104C80004070884211D0D9F80010D9F8002021F4E2
:104C9000407142F48032C9F80020D9F8002022F493
:104CA0008032C9F80020C9F8001003E02C440258F3
:104CB00000480258D5F8B000B0F5807F19D1FFF751
:104CC0000DF9029011E000BFFFF708F90299411AAF
:104CD00041F28830814208D9032426462878DFF83B
:104CE0001494C043C00721D03CE0D9F800008007ED
:104CF000EAD5D5F8B010C1F301200328FE480DD045
:104D0000016821F47C510160B5F8B020D9F8001099
:104D1000C2F30B021143C9F80010DFE7F74A03683A
:104D200002EA111223F47C511143ECE7A86F182812
:104D300016D005DCA0B1082808D0102804D10AE05C
:104D400020280DD028280BD001240AE00198012149
:104D500002F0B4FA03E00098012102F03FFB0446A0
:104D600064B126462878C04380071ED4686F0628A1
:104D700019D2DFE800F0160C11161616AA6FD9F832
:104D8000001021F038011143C9F80010EAE701983A
:104D9000012102F093FA03E00098012102F01EFBCA
:104DA00004467CB100E0012426462878C043400731
:104DB0001FD4D5F89000062819D2DFE800F0160CB1
:104DC000111616166A6FD9F8001021F00701114369
:104DD000C9F80010E9E70198012102F06FFA03E039
:104DE0000098012102F0FAFA0446A4B100E001247F
:104DF00026462878C04380062BD4D5F88C00B0F125
:104E0000405F24D011DC10B3B0F1805F15D0B0F159
:104E1000005F10D116E0D5F89020D8F8001021F0EE
:104E200007011143C8F80010E3E7B0F1804F0ED03E
:104E3000B0F1A04F0BD001240AE00198002102F04C
:104E40003DFA03E00098022102F0C8FA044694B14A
:104E500026462878C04340062BD4D5F89800B0F5F4
:104E6000406F24D011DC10B3B0F5806F15D0B0F5D1
:104E7000006F10D116E0D5F88C20D9F8001021F081
:104E8000E0411143C9F80010E3E7B0F5805F0ED0B0
:104E9000B0F5A05F0BD001240AE00198002102F0D8
:104EA0000DFA03E00098022102F098FA044694B14A
:104EB00026462878C04300062BD4D5F89C00B0F5D0
:104EC000C04F24D011DC10B3B0F5005F15D0B0F5A1
:104ED000804F10D116E0D5F89820D8F8001021F4B2
:104EE000E0511143C8F80010E3E7B0F5004F0ED0D1
:104EF000B0F5204F0BD001240AE00198002102F008
:104F0000DDF903E00098022102F068FA044654B18A
:104F100026462878C04300071ED4D5F88000B0F597
:104F2000805F0AD00FE0D5F89C20D8F8001021F45B
:104F300060411143C8F80010EBE70098022102F02D
:104F40004DFA00B10126D5F88020D9F8001021F4DF
:104F500040511143C9F800102878C043C00613D44B
:104F6000D5F89400B0F5807F05D10098022102F0B9
:104F700035FA00B10126D5F89420D8F8001021F4B4
:104F800040711143C8F800102868C043000316D4CC
:104F9000D5F8A00038B1B0F5803F09D0B0F5003F9A
:104FA0000BD001240AE00198002102F087F903E008
:104FB0000098022102F012FA04468CB126462868B5
:104FC000C043400322D4D5F88400B0F5801F11D02F
:104FD000B0F5001F13D0B0F5401F15D0012414E028
:104FE000D5F8A020D8F8001021F440311143C8F8BA
:104FF0000010E4E7386840F40030386004E00098BE
:10500000012102F0EBF904465CB126462868C04352
:10501000C0031CD4286D70B1B0F5803F10D00124BE
:1050200014E0D5F88420D9F8001021F44011114380
:10503000C9F80010EAE7386840F40030386004E04E
:105040000198022102F03AF90446DCB126462868AC
:10505000C043800005D40098022102F0BFF900B1DE
:1050600001262868C04380031BD4E86FB8B1B0F5AF
:10507000807F10D0B0F5007F11D0B0F5407F0ED00A
:1050800001240DE02A6DDBF8001021F4803111437A
:10509000CBF80010DBE7386840F4003038607CB3B0
:1050A00026462868C043C00207D42A6FDAF80010E9
:1050B00021F000411143CAF800102868C043800263
:1050C00007D4AA6EDAF8001021F080711143CAF8F3
:1050D00000102868C043400009D40748016821F443
:1050E000004101600168D5F8B420114301602868CF
:1050F000C04306E05444025810440258CFFFFF005A
:105100001DE007D46A6DDBF8001021F04051114317
:10511000CBF800102868C043000208D4D5F88820D6
:10512000D9F8001021F440011143C9F80010287982
:105130000024C04300F00100204309D00EE0EA6FD4
:10514000D9F8001021F440711143C9F80010A8E704
:105150000198002102F0B2F800B106462879C04358
:1051600000F00200204305D10198012102F0A6F8C9
:1051700000B106462879C04300F00400204305D161
:105180000198022102F09AF800B106462879C0433E
:1051900000F00800204305D10098002102F01EF91C
:1051A00000B106462879C04300F01000204305D125
:1051B0000098012102F012F900B106462879C04397
:1051C00000F02000044304D10098022102F006F907
:1051D00000B916B10120BDE8FE8F0020FBE70000FA
:1051E0002DE9F05F04000F467ED0DFF83882D8F852
:1051F000000000F00F00B8420CD2D8F8001021F0E7
:105200000F013943C8F80010D8F8000000F00F0073
:10521000B84269D12078844D40070AD520692968B1
:1052200001F07001884204D9296821F0700101431E
:10523000296020787C4E361D00070AD560693168E8
:1052400001F07001884204D9316821F070010143F6
:1052500031602078C0060AD5A069316801F4E061A8
:10526000884204D9316821F4E0610143316020783B
:10527000DFF8B4B180060BF1080B0CD5E169584694
:10528000DBF8002002F07002914204D9026822F09B
:1052900070020A430260207880070AD5E068296816
:1052A00001F00F01884204D9296821F00F01014360
:1052B00029602078C0073ED05B49A2682868183969
:1052C00020F47060104328606068022818D003281A
:1052D00019D00968012819D0490700294ADADFF8EE
:1052E00048A1AAF1080A00E044E0DAF8002022F020
:1052F00007020243CAF80020FEF7F0FD814612E0E3
:1053000009688903E9E709688901E6E7C905E4E76F
:10531000FEF7E4FDA0EB090141F28830814202D999
:105320000320BDE8F09F6168DAF8000000F0380063
:10533000B0EBC10FECD1207880070AD5E06829686E
:1053400001F00F01884204D2296821F00F010143C6
:105350002960D8F80010404601F00F01B9420BD97E
:10536000016821F00F0139430160006800F00F006F
:10537000B84201D00120D4E7207840070AD520693F
:10538000296801F07001884204D2296821F0700177
:1053900001432960207800070AD56069316801F06F
:1053A0007001884204D2316821F0700101433160FC
:1053B0002078C0060AD5A069316801F4E06188420E
:1053C00004D2316821F4E061014331602078800625
:1053D0000CD5E1695846DBF8002002F070029142DA
:1053E00004D2026822F070020A43026000F06CF8F6
:1053F0000E492A682B68C2F3032203F00F038A5C6C
:10540000C95C02F01F0201F01F01D040084A20FAD7
:1054100001F111600749086007480068BDE8F05FC6
:10542000FFF704B8002000521844025848F600085C
:10543000E8DC0024E4DC0024DCDC002430B500F0EF
:1054400043F80B4A0B490C4B15681468C5F303224B
:1054500004F00F048A5C095D02F01F0201F01F01D5
:10546000D040064A20FA01F119601060084630BDAC
:105470001844025848F60008E8DC0024E4DC002464
:1054800000B5FFF7DBFF05490968054AC1F30211C2
:10549000515C01F01F01C84000BD00001C440258CF
:1054A00048F6000800B5FFF7C9FF05490968054A35
:1054B000C1F30221515C01F01F01C84000BD000092
:1054C0001C44025848F60008454970B5454809682B
:1054D000434B103B11F0380208D00111082A03D0C9
:1054E000102A0BD0182A0BD0084670BD19688906FF
:1054F000FBD51968C1F3C101C84070BD3A4870BD01
:105500003749374D18310C1D24350A68096826685B
:105510002D6802F0030406F00102C1F30511C5F382
:10552000CC0515FB02F200EE102AB8EE400AE9B3F2
:105530002F4ADFED2E0AB7EE001A6CB1DFED2D1AFF
:10554000012C01D0022C43D002EE101A1068F8EEA4
:10555000422A81EEA22A1EE01C68A40611D51B680F
:1055600001EE901A1168C3F3C103F8EE612AD84026
:1055700001EE900AC1F30800F8EE611A81EEA22A4A
:105580000BE001EE901ADFED1C2A00BFF8EE611A65
:10559000106882EEA12AC0F3080001EE900AF8EE2E
:1055A000611A40EE201A31EE810A00E015E022EE89
:1055B000000A1068C0F34620401C00EE900AF8EE86
:1055C000600A80EE201ABCEEC10A10EE100A70BD0F
:1055D00001EE901ADFED092AD8E7002070BD000027
:1055E000104402580090D00340787D01000000393B
:1055F000304402580024744A0024744C20BCBE4B32
:105600002DE9F05F04007DD0FF4F2078FE4D183764
:10561000DFF8F483103DC00748D0D8F8000039689F
:1056200000F03800102815D0182803D101F003002D
:1056300002280FD06068B0F5803F12D010B1B0F5ED
:10564000A02F18D0286820F480302860286820F423
:10565000802009E02868800328D560680028D2D01F
:1056600024E0286840F480302860606888B1FEF744
:1056700035FC064609E0286840F480202860F0E701
:10568000FEF72CFC801B64287ED828688003F7D5A1
:105690000CE0FEF723FC064605E000BFFEF71EFC0B
:1056A000801B6428F0D828688003F7D4207880070E
:1056B00056D5D8F80000DFF85093396810F038005C
:1056C000A9F10C090ED0182801D188070AD0E0688A
:1056D000A8B3296821F0190101432960FEF7FEFBF8
:1056E000064628E02868400702D5E06800288AD0EE
:1056F000E168286820F0190008432860FEF7EEFBF7
:10570000064606E0D2E000BFFEF7E8FB801B022859
:10571000BAD828684007F7D5217CD9F8002022F0B4
:10572000FE4242EA0161C9F8001019E0FEF7D6FB1B
:10573000801B0228A8D828684007F7D5ECE7FFE7C8
:10574000286820F001002860FEF7C8FB064604E048
:10575000FEF7C4FB801B022896D828684007F7D4C0
:105760002078C00646D5D8F80000DFF89C9239684A
:1057700000F03800A9F10409082812D0182805D132
:1057800001F00300012800E0CEE00AD0E069002823
:10579000286820D040F080002860FEF79FFB064676
:1057A00015E02868C00502D5E06980287ED194F80C
:1057B0002010D9F8002022F07C5242EA0161C9F899
:1057C000001017E0FEF78AFB801B0228A0D828688B
:1057D000C005F7D5EBE720F080002860FEF77EFBE0
:1057E000064604E0FEF77AFB801B022890D8286862
:1057F000C005F7D42078000729D583486169643053
:1058000000298146016811D041F001010160FEF7D5
:1058100065FB064605E000BFFEF760FB801B022823
:1058200088D8D9F800008007F6D510E021F00101F2
:105830000160FEF753FB064605E000BFFEF74EFB96
:10584000801B022870D8D9F800008007F6D4207891
:10585000800623D5A0690028286810D040F4805025
:105860002860FEF73BFB064605E000BFFEF736FB6F
:10587000801B022858D828688004F7D50EE020F451
:1058800080502860FEF72AFB064604E0FEF726FB60
:10589000801B022848D828688004F7D42078400765
:1058A00051D5DFF86891D9F8001000E015E141F416
:1058B0008071C9F80010FEF711FB064605E000BF35
:1058C000FEF70CFB801B64282ED8D9F80000C00519
:1058D000F6D54D4EA068603601280AD008B10528DB
:1058E00013D0306820F001003060306820F00400F0
:1058F00002E0306840F001003060A06841F2883A70
:1059000098B1FEF7EBFA81460AE0306840F00400F7
:105910003060EEE7FEF7E2FAA0EB0901514503D84B
:1059200030688007F6D50EE072E0FEF7D7FA8146C0
:1059300006E000BFFEF7D2FAA0EB0901514567D897
:1059400030688007F6D4606A00287CD0DFF8B8A001
:10595000D8F800100AF1200A4FF6F87B0AF1040883
:10596000C1F3C2010329AAF104096DD002282868F5
:1059700020F08070286003D0FEF7B0FA044681E082
:10598000FEF7ACFA064604E0FEF7A8FA801B0228F0
:1059900075D828688001F7D4E26A40F2F33138689C
:1059A00054F8283F884340EA021018433860217BAE
:1059B0004FF4FE0C22894FF0FE47208A4902267DD3
:1059C000521E401EA1F5007189B2C2F308021143B4
:1059D000761E0CEA00400143484607EA066211437E
:1059E000CAF80010D9F8001021F00101C9F8001020
:1059F000D8F80030266A23EA0B0343EAC601C8F848
:105A00000010D9F8001004E0104402580048025871
:105A100035E0A26921F00C011143C9F800100168BA
:105A2000E26921F0020111430160016841F4803113
:105A30000160016841F400310160016841F4802196
:105A40000160016801E06CE020E041F001010160CB
:105A5000286840F080702860FEF740FA044604E0B1
:105A6000FEF73CFA001B022809D828688001F7D508
:105A700057E000BFFEF732FA001B022802D90320CC
:105A8000BDE8F09F28688001F4D44AE03968012815
:105A9000DAF8000021D0A26A01F0030393421CD17E
:105AA000E26AC1F305118A4217D1216BC0F30802E3
:105AB000491E8A4211D1616BC0F34622491E9142B0
:105AC0000BD1A16BC0F30642491E914205D1E16B97
:105AD000C0F30660491E814201D00120D0E7A16CCD
