:020000040800F2
:1000000068260124E10200085B580008C94B00087B
:1000100059580008CD1C0008A9670008000000001E
:10002000000000000000000000000000CF5F00089A
:10003000F11C0008000000005D580008D15F0008B6
:10004000FB020008FB020008FB020008FB0200089C
:10005000FB020008FB020008FB020008FB0200088C
:10006000FB020008FB020008FB020008FB0200087C
:10007000FB020008FB020008FB020008FB0200086C
:10008000FB020008FB020008FB020008FB0200085C
:10009000FB020008FB020008FB020008FB0200084C
:1000A000FB020008FB020008FB020008FB0200083C
:1000B000FB020008FB020008FB020008FB0200082C
:1000C000FB020008FB020008FB020008FB0200081C
:1000D000FB020008FB020008FB020008FB0200080C
:1000E000FB020008FB02000800000000FB02000801
:1000F000FB020008FB020008FB020008FB020008EC
:10010000FB020008FB020008FB020008FB020008DB
:10011000FB020008FB020008FB020008FB020008CB
:10012000FB020008FB020008FB020008FB020008BB
:10013000FB020008FB020008FB020008FB020008AB
:1001400000000000000000000000000000000000AF
:10015000FB020008FB020008FB020008FB0200088B
:10016000FB020008FB020008FB020008FB0200087B
:10017000FB020008FB020008FB0200080000000070
:10018000FB020008FB020008FB020008FB0200085B
:10019000FB020008FB020008FB020008FB0200084B
:1001A000FB020008FB020008FB0200080000000040
:1001B000FB020008FB020008FB020008FB0200082B
:1001C000FB020008FB020008000000000000000025
:1001D0000000000000000000FB020008000000001A
:1001E000000000000000000000000000000000000F
:1001F0000000000000000000FB020008FB020008F5
:10020000FB020008FB02000800000000FB020008DF
:10021000FB020008FB020008FB020008FB020008CA
:10022000FB02000800000000FB02000800000000C4
:10023000FB020008FB02000800000000FB020008AF
:10024000FB020008FB020008FB020008FB0200089A
:10025000FB020008FB020008FB020008FB0200088A
:10026000FB020008FB020008FB020008FB0200087A
:10027000FB020008FB020008FB020008000000006F
:10028000FB020008FB020008FB020008FB0200085A
:1002900000000000FB020008FB0200080000000054
:1002A00000000000FB020008FB020008FB0200083F
:1002B000FB020008FB020008FB020008FB0200082A
:1002C000FB020008FB020008FB020008DFF80CD06C
:1002D00000F0CEFA0048004795BD000868260124CA
:1002E0000648804706480047FEE7FEE7FEE7FEE7D0
:1002F000FEE7FEE7FEE7FEE7FEE7FEE76D600008CB
:10030000CD0200082DE9F05F0546002092469B468D
:1003100088460646814640241BE02846414647461B
:10032000224600F0A7F853465A46C01A914110D30E
:1003300011461846224600F08EF82D1A67EB010888
:100340004F4622460120002100F085F817EB0009F6
:100350004E41201EA4F10104DFDC484631462A4606
:100360004346BDE8F09F2DE9F0410024061B2546D9
:1003700071F1000605DA01240027D0EB070067EBD6
:100380000101161E73F1000605DA0027D2EB070201
:10039000012567EB0303FFF7B5FF86460E461746B8
:1003A0009C46AC4204D00025D0EB050E65EB01065F
:1003B00024B10020D2EB000760EB030C70463146FD
:1003C0003A466346BDE8F08140EA01039B0703D04B
:1003D00009E008C9121F08C0042AFAD203E011F884
:1003E000013B00F8013B521EF9D27047D2B201E046
:1003F00000F8012B491EFBD270470022F6E710B52A
:1004000013460A4604461946FFF7F0FF204610BD82
:1004100030B504460020034600E05B1C934203D243
:10042000E05CCD5C401BF8D030BD30B50B460146DA
:1004300000202022012409E021FA02F59D4205D383
:1004400003FA02F5491B04FA02F52844151EA2F12D
:100450000102F1DC30BD202A04DB203A00FA02F16F
:10046000002070479140C2F1200320FA03F31943A2
:1004700090407047202A04DB203A21FA02F0002144
:10048000704721FA02F3D040C2F1200291400843A4
:100490001946704710B541000CD0C0F3C7519629DA
:1004A00008DC7E2909DC06DB410204D000F00040B4
:1004B00040F07E5010BD002010BDC1F19604C4F183
:1004C000200100FA01F1E04000F0F6F9A04010BD73
:1004D0002DE9FE4F804681EA0300C00F0C460090D4
:1004E00021F0004123F00045B8EB0200A94105D2FC
:1004F0004046214690461C460B46024623F00040EB
:10050000104347D0270DC7F30A00C3F30A510290E6
:10051000401A019040286BDAC3F3130040F4801BAB
:100520000098924620B10023D2EB030A63EB0B0B39
:1005300001985946C0F140025046FFF78CFF06462D
:100540000D4650465946019A00F0A4F910EB0800F8
:100550006141002487EA115284EAE7731A4340D0CC
:10056000009A62B3019A012A4FEA075215DC001B78
:1005700061EB02014FF0004202EA0752CDE900426E
:10058000001C41F5801132462B4600F0DBF903B028
:10059000BDE8F08F40462146F9E7001B61EB020100
:1005A000001C41F5801300185B412018A2F50017CC
:1005B00047EB030140EAD570B6196D4111E06D08B3
:1005C0004FEA360645EAC0754FEA0752001B61EB59
:1005D0000201001C41F5801149084FEA3000001962
:1005E000514132462B4603B0BDE8F04F00F09BB9B5
:1005F0000098012240000023D0EB020263EBE0737D
:10060000009821464FEAE074B8EB000061EB04016A
:10061000E9E783F000435BE781F0004158E72DE90B
:10062000FE4F81EA030404F0004421F000410094ED
:100630004FF0000B23F0004350EA01045ED052EA71
:1006400003045BD0C3F30A54C1F30A552C44A4F24B
:10065000F3340194A0FB0254C1F3130141F480115F
:10066000C3F3130343F4801301FB024400FB034E66
:10067000840A970A44EA815447EA8357A4FB07682F
:1006800002958D0A05FB07854FEA932C04FB0C5459
:100690002705029D4FEA065847EA1637B5EB0805CD
:1006A0006EEB070C870E920E47EA811742EA83121F
:1006B000A7FB0201B6EB0B0164EB00042B0D43EA30
:1006C0000C335E1844EB1C50DA465146E7FB02013E
:1006D000C5F313044FEA0B3343EA14534FEA0432D1
:1006E000019C43EA0603A4F10C040294009CCDE9AA
:1006F00000B400F027F903B0BDE8F08F00200146F8
:10070000F9E72DE9F04D81EA030404F0004B21F0F4
:10071000004514464FF0000A23F0004150EA05025C
:1007200020D054EA01021DD0C5F30A570246C5F392
:100730001303C1F31300C1F30A5640F4801543F4C8
:100740008013A7EB0608101BD64608F2FD3873EBA2
:10075000050002D308F1010801E092185B41B8F1ED
:10076000000F03DA00200146BDE8F08D00204FF4B1
:100770008011064684460EE0171B73EB050705D370
:10078000121B63EB050306434CEA010C49084FEAD0
:10079000300092185B4150EA0107EDD152EA0300A4
:1007A00012D082EA040083EA0501084305D0101B39
:1007B000AB4106D20122002306E000224FF00043A5
:1007C00002E06FF0010253101AEB06004CEB0851E7
:1007D00010EB0A0041EB0B01BDE8F04D00F0A3B8AF
:1007E00070B521F0004303430CD0C1F30A55002437
:1007F000D5EB040564EB0403D617AD1AB34102DB55
:100800000020014670BD201841EB025170BDC1F3BC
:100810000A52C1F3130140F2FF3341F480119A42AE
:1008200002DA00200146704740F233439A42A2F2B6
:10083000334202DC5242FFF71DBEFFF70CBE000040
:1008400030B5041E71F1000404DB4FF00044404257
:1008500064EB0101141E73F1000405DB1C464FF02C
:100860000043524263EB0403994208BF904230BDFB
:10087000064C074D06E0E06840F0010394E80700ED
:1008800098471034AC42F6D3FFF724FDA89704082C
:10089000C8970408202A06DBCB17203A41FA02F059
:1008A00043EAE07306E041FA02F3D040C2F12002CD
:1008B00091400843194670470029A8BF7047401C63
:1008C000490008BF20F00100704710B4B0FA80FC66
:1008D00000FA0CF050EA010404BF10BC704749B1A3
:1008E000CCF1200421FA04F411FA0CF118BF012113
:1008F00021430843A3EB0C01CB1D4FEA00614FEAF3
:10090000102042BF002010BC704700EBC3501044C1
:100910000029A4BF10BC7047401C490008BF20F04C
:10092000010010BC704710B5141E73F1000408DA02
:10093000401C41F1000192185B411A4301D120F0A3
:10094000010010BD2DE9F04D92469B4611B1B1FA60
:1009500081F202E0B0FA80F220329046FFF77BFD90
:1009600004460F4640EA0A0041EA0B0153465A4644
:10097000084313D0114653EA010019D0C8F14002D0
:100980005046FFF777FD05460E465046594642460B
:10099000FFF761FD084305D0012004E020463946F9
:1009A000BDE8F08D0020054346EAE0762C4337434E
:1009B0000A986305E40AA0EB08000022FD0A44EA55
:1009C00047540A3002D500200146E9E70105101915
:1009D0006941DDE9084500196941BDE8F04DA2E72C
:1009E00070B58C1810F8015B15F0070301D110F8F1
:1009F000013B2A1106D110F8012B03E010F8016B1E
:100A000001F8016B5B1EF9D12B0705D40023521EA0
:100A10000DD401F8013BFAE710F8013BCB1A921C08
:100A200003E013F8015B01F8015B521EF9D5A14206
:100A3000D8D3002070BD2DE9F04F86B09DF85870D6
:100A400000910392002F059318BF0123109C04FB13
:100A5000033304930F9D14BF2F4601270197BDF860
:100A600044305B0800F09F80DDF850B0139A02EB31
:100A700083030293DDF848E0039F5FEA9E08DDF8F8
:100A800000C057F8046B57F8043B03971A463146E9
:100A900022D05CF81E705CF8049B50F804AB2AFB73
:100AA000096650F8045B2AFB071150F804AB25FBDC
:100AB00007225CF81E7025FB09335CF8049B2AFBB7
:100AC00009662AFB071150F8045B25FB0933B8F1CE
:100AD000010825FB0722DCD10EF003078FB13CF99A
:100AE0001E803CF902AB30F9025B0AFB056630F967
:100AF000029B09FB0A3308FB0511013F09FB082291
:100B0000EDDCDDF84CA0159F3AF9024B57F804CB09
:100B10005BF8045BC4F1150999EA040940F3C88045
:100B20004FEA46064FEA410156FB05C651FB05C197
:100B300046FA04F641FA04F13AF9024B57F804CBAD
:100B40005BF8045BC4F1150999EA040940F3998044
:100B50004FEA43034FEA420253FB05C352FB05C26F
:100B600043FA04F342FA04F206F30706DDF80490B0
:100B7000179CDDF810802670A04401F3070188F867
:100B8000001003F3070304F8093002F3070208F822
:100B9000092004EB49021792CDF84CA0029C15974E
:100BA000A2457FF467AF119B13F0010354D0BDF849
:100BB00048E0039BDDF800C019685FEA9E070CEB74
:100BC0004E040E4615D05CF81E505CF8048B50F8AD
:100BD00004AB50F8043B2AFB08662AFB05115CF8BD
:100BE0001EA05CF8048B23FB086623FB0A11013F5F
:100BF000E9D11EF003070BD03CF81E303CF8029BF5
:100C000030F902AB19FB0A66013F13FB0A11F3DC52
:100C1000DDF84CA0159FBAF90040D7F800C0DBF80A
:100C20000050C4F1150999EA040958DD4FEA460657
:100C30004FEA410156FB05C651FB05C146FA04F6D1
:100C400041FA04F106F30706179A049C167001F3A3
:100C500007011155019B1A441199169B109C33B141
:100C60000F9B04F1020003FB1100104406E0A2EB0D
:100C70000100059A04F1020402FB040006B0BDE87D
:100C8000F08F002C42DD4FF0010909FA04F94FEA18
:100C9000A90953FB05934FEA430343FA04F3634462
:100CA00052FB05924FEA420242FA04F262445BE7C9
:100CB000002C3CDD4FF0010909FA04F94FEAA909BB
:100CC00056FB05964FEA460646FA04F6664451FB83
:100CD00005914FEA410141FA04F161442CE7002CEF
:100CE00036DD4FF0010909FA04F94FEAA90956FB6C
:100CF00005964FEA460646FA04F6664451FB05910E
:100D00004FEA410141FA04F161449BE7C4F1010952
:100D100003FA09F303F31F0353FB15F302FA09F275
:100D200002F31F0252FB15F2634462441CE7C4F154
:100D3000010906FA09F606F31F0656FB15F601FA35
:100D400009F101F31F0151FB15F166446144F3E61B
:100D5000C4F1010906FA09F606F31F0656FB15F65B
:100D600001FA09F101F31F0151FB15F166446144D9
:100D700068E7000000000000000000000000000024
:100D80002DE9F04F99B0149013911692129329986F
:100D900000F00303032B0CBF01260026179603283F
:100DA0000CBF01260026189610F00200259B002893
:100DB00014BF18460120109026980CBF0646012645
:100DC0001196DDE92C04002C18BF20462C902698A3
:100DD000012840F3BE814FEA4303299C14F0020F1F
:100DE00001D14FF0020315934FF00008CDF8348085
:100DF000DDF834B0239A02EB8B02B2F90030B2F97D
:100E00000240CDE90434229A02EBCB02D2E900126F
:100E1000CDE902122B9A02EBCB02D2E90012CDE906
:100E20000012002BCCBF00204FF0FF30152BC8BFA5
:100E30000120002CCCBF00214FF0FF31152CC8BF82
:100E40000121CDE906012D9B002B00F09782289B04
:100E5000002B40F0BB821A461846169901EBCB01D5
:100E6000D1E9003403441444CDE90934129A24989A
:100E700018992A9B00291CBF0332D218DDF8509024
:100E80000B92401000F044810F930E900B9B279F14
:100E9000119A2C9EDDE909CEE246F34613440C93E9
:100EA0005FEA271800F0948059F807502FFA85F46C
:100EB00056F8040B2FFA95F556F8041B24FB00AAEC
:100EC00025FB01AA56F8042B56F8043B24FB02BB71
:100ED00059F8044B25FB03BB2FFA84F52FFA94F441
:100EE00025FB00CC56F8040B25FB02EE59F8075001
:100EF00024FB01CC24FB03EE2FFA85F42FFA95F5A1
:100F000056F8041B24FB00AA56F8042B25FB01AA63
:100F100056F8043B24FB02BB59F8044B25FB03BBEA
:100F20002FFA84F52FFA94F425FB00CC25FB02EE72
:100F300059F8075024FB01CC56F8040B24FB03EEB0
:100F40002FFA85F42FFA95F556F8041B24FB00AA16
:100F500056F8042B25FB01AA56F8043B24FB02BBE0
:100F600059F8044B25FB03BB2FFA84F52FFA94F4B0
:100F700025FB00CC25FB02EE56F8040B24FB01CC2C
:100F800059F8075024FB03EE2FFA85F42FFA95F554
:100F900056F8041B24FB00AA56F8042B25FB01AAD3
:100FA00056F8043B24FB02BB59F8044B25FB03BB5A
:100FB0002FFA84F52FFA94F425FB00CC25FB02EEE2
:100FC000B8F1010824FB01CC24FB03EE3FF76CAF22
:100FD00017F00F0046D0C7F38108B8F1000F26D0F4
:100FE00059F807502FFA85F42FFA95F556F8040BA7
:100FF00056F8041B24FB00AA56F8042B25FB01AA73
:1010000056F8043B24FB02BB59F8044B25FB03BBF9
:101010002FFA84F52FFA94F425FB00CC25FB02EE81
:1010200024FB01CC24FB03EEB8F10108D8DC17F057
:101030000308B8F1000F15D0279836F9023B36F9AE
:10104000025B99F9001013FB01CC15FB01EE19F9B5
:10105000001013FB01AA15FB01BB09F10109B8F14E
:101060000108EADC0B9D2E46179868B10F9A901E76
:1010700009DC0C9CC2F1020204EB42020C922A9A97
:10108000104405F102050F9000980299049A069BFE
:101090000C9F002B40F0C9804FEA4C0C4FEA4A0AE3
:1010A0005CFB010C5AFB010A4CFA02FC4AFA02FAF8
:1010B0000CF3070C0AF3070A86F800C087F800A0B3
:1010C00001980399059A079BDDF84080002B40F0BA
:1010D000D4804FEA4E0E4FEA4B0B5EFB010E5BFBDA
:1010E000010B4EFA02FE4BFA02FB0EF3070E0BF356
:1010F000070B06F808E007F808B0119B279A05EBE4
:1011000043030B9391440E9B013B0E937FF4BEAEC1
:10111000CDF82090249B13F0010F40F0D680139B54
:10112000279A03EB42031393129B159A13441293CD
:101130002D9B23B12C9B279A03EB82032C930D9AB2
:10114000269B4FEA630302F101020D9293423FF79F
:101150004FAE269D15F0010560D0DDF8A880189DE2
:10116000129E002D1CBF033646442499002955DDEC
:10117000CDF83C80169D269FA7F1010705EB870C53
:10118000DCF800C0229B03EB870424682B9B03EB55
:1011900087000068239B03EB4707B7F90070289A84
:1011A000002FCCBF4FF000094FF0FF39152FC8BFFB
:1011B0004FF00109149DDDF89CB0BBF1000FE6462D
:1011C0000CDDDDF84C8015F9013B18F901ABA3EB00
:1011D00002030AFB03EEBBF1010BF4DCB9F1000FD3
:1011E00040F064814FEA4E0E5EFB040E4EFA07FE9D
:1011F0000EF3070E86F800E0299B13F0020F11D0C2
:1012000013F0010F05D00F9B013B02D12A9B06F181
:10121000020606F101060F930139CCDC002019B05B
:10122000BDE8F08F269B1E44F6E7013314D04FF043
:10123000010303FA02F34FEAA3035CFB013C4FEA0C
:101240004C0C4CFA02FC84445AFB013A4FEA4A0A1D
:101250004AFA02FA82442BE7C2F101030CFA03FCBA
:101260000CF31F0C5CFB11FC0AFA03FA0AF31F0AC9
:101270005AFB11FA844482441AE7013314D04FF028
:10128000010303FA02F34FEAA3035EFB013E4FEAB8
:101290004E0E4EFA02FE86445BFB013B4FEA4B0BBF
:1012A0004BFA02FB834420E7C2F101030EFA03FE6E
:1012B0000EF31F0E5EFB11FE0BFA03FB0BF31F0B6D
:1012C0005BFB11FB864483440FE7279FDDF82090EA
:1012D0002C9EDDE909CE5FEAA70818D059F8044B27
:1012E00056F8040B56F8041B56F8042B56F8043B2A
:1012F0002FFA84F52FFA94F425FB00CC25FB02EE9F
:1013000024FB01CC24FB03EEB8F10108E6DC17F066
:101310000308B8F1000F0CD036F9023B36F9025B36
:1013200019F9011B13FB01CC15FB01EEB8F1010803
:10133000F2DC00980299049A069B109F0B9E37449A
:10134000002B40F099804FEA4C0C5CFB010C4CFAEE
:1013500002FC0CF3070C86F800C001980399059A6B
:10136000079B002B66D14FEA4E0E5EFB010E4EFA34
:1013700002FE0EF3070E87F800E0D0E61398279FD1
:1013800000EB07092C9B032F11DD4FEAA70650F84D
:10139000041B59F8044B2FFA91F22FFA81F12FFA1E
:1013A00094F82FFA84F4A3E81601013EEFDC17F05D
:1013B00003067FF74CAD10F9011B23F8021B19F946
:1013C000011B23F8021B013EF5DC40E5279E2C9A09
:1013D0004FF000031846B11017D0B2E8801600FA9B
:1013E00087F000FAA7F000FA89F000FAA9F003FAF2
:1013F0008AF303FAAAF303FA8CF303FAACF3013984
:10140000EBDCC0F10000C3F1000316F003010BD0C8
:10141000B2F90040A0EB0400B2F90240A3EB0403D0
:10142000013902F10402F3DC289A02FB00F003FB0D
:1014300002F212E5013311D04FF0010303FA02F377
:101440004FEAA3035EFB013E4FEA4E0E4EFA02FE48
:1014500086440EF3070E87F800E060E6C2F1010350
:101460000EFA03FE0EF31F0E5EFB11FE86440EF312
:10147000070E87F800E052E601330DD04FF001036C
:1014800003FA02F34FEAA3035CFB013C4FEA4C0C66
:101490004CFA02FC84445CE7C2F101030CFA03FC41
:1014A0000CF31F0C5CFB11FC844452E77B1C0DD039
:1014B0004FF0010303FA07F34FEAA3035EFB043E78
:1014C0004FEA4E0E4EFA07FE864491E6C7F101033D
:1014D0000EFA03FE0EF31F0E5EFB14FE864487E633
:1014E0002DE9F04F99B000BF14901391169212930A
:1014F0004FF00008CDF83480DDF834B0239A02EBC9
:101500008B02B2F90030B2F90240CDE90434229ADC
:1015100002EBCB02D2E90012CDE902122B9A02EBC8
:10152000CB02D2E90012CDE9001213982C9B4FF0A8
:101530001006046C50F8041B2FFA91F22FFA81F177
:101540002FFA94F82FFA84F4A3E81601013EF0DC98
:10155000289B2C9A4FF0000318464FF01001B2E878
:10156000001700FA88F000FAA8F000FA89F000FAF3
:10157000A9F003FA8AF303FAAAF303FA8CF303FA45
:10158000ACF30139EBDCC0F10000C3F10003289A91
:1015900002FB00F003FB02F2169901EBCB01D1E94B
:1015A000003403441444CDE90934129A4FF0050382
:1015B00002F103021A44DDF850900B924FF03E07FF
:1015C0000F930B9B2C9EDDE909CEE246F34603F117
:1015D00001030C934FF00408D9F840502FFA85F41A
:1015E00056F8040B2FFA95F556F8041B24FB00AAB5
:1015F00025FB01AA56F8042B56F8043B24FB02BB3A
:1016000059F8044B25FB03BB2FFA84F52FFA94F409
:1016100025FB00CC56F8040B25FB02EED9F8405010
:1016200024FB01CC24FB03EE2FFA85F42FFA95F569
:1016300056F8041B24FB00AA56F8042B25FB01AA2C
:1016400056F8043B24FB02BB59F8044B25FB03BBB3
:101650002FFA84F52FFA94F425FB00CC25FB02EE3B
:10166000D9F8405024FB01CC56F8040B24FB03EEC0
:101670002FFA85F42FFA95F556F8041B24FB00AADF
:1016800056F8042B25FB01AA56F8043B24FB02BBA9
:1016900059F8044B25FB03BB2FFA84F52FFA94F479
:1016A00025FB00CC25FB02EE56F8040B24FB01CCF5
:1016B000D9F8405024FB03EE2FFA85F42FFA95F564
:1016C00056F8041B24FB00AA56F8042B25FB01AA9C
:1016D00056F8043B24FB02BB59F8044B25FB03BB23
:1016E0002FFA84F52FFA94F425FB00CC25FB02EEAB
:1016F000B8F1010824FB01CC24FB03EE3FF76CAFEB
:101700000B9D2E460F9A901E09DC0C9CC2F1020222
:1017100004EB42020C9200F1050005F102050F9066
:1017200000980299049A0C9C4FEA4C0C4FEA4A0A22
:101730005CFB010C5AFB010A4CFA02FC4AFA02FA61
:101740000CF3070C0AF3070A86F800C084F800A01F
:1017500001980399059A4FEA4E0E4FEA4B0B5EFB38
:10176000010E5BFB010B4EFA02FE4BFA02FB0EF37D
:10177000070E0BF3070B86F8BDE084F8BDB005F14A
:1017800002030B9309F14009013F7FF41AAFCDF832
:101790002090DDF820902C9EDDE909CE4FF0100856
:1017A00059F8044B56F8040B56F8041B56F8042B52
:1017B00056F8043B2FFA84F52FFA94F425FB00CC5D
:1017C00025FB02EE24FB01CC24FB03EEB8F101085B
:1017D000E6DC00980299049A0B9E4FEA4C0C5CFBE5
:1017E000010C4CFA02FC0CF3070C86F800C00198BF
:1017F0000399059A4FEA4E0E5EFB010E4EFA02FE69
:101800000EF3070E86F8BDE0139B03F180031393DC
:10181000129B159A03F5BD7312930D9A02F1010202
:101820000D92202AFFF668AE002019B0BDE8F08FB7
:101830002DE9F74F06460D4600242DED020B2DED48
:101840000C8B88B0B0EE608AF0EE40BAB0F8820639
:101850000290304603F05CFEF0EE408A29463046A6
:1018600003F0FCFDB0EE409A9FEDFEAAB1EE001B26
:1018700039EE0A0AB7EEC00A04F0E6FFF7EEC09BA5
:1018800038EE0A0AB1EE001BB7EEC00A04F0DCFF26
:1018900095ED0B2AB7EE008ADFEDF32AB7EEC00B09
:1018A000F249F0EE480A30EE691ADFEDF1AAC1EE16
:1018B0002B1AB0EE601A02EE221A80EE812A30EE68
:1018C00061BA8DED042ACDED050AB5F9400095ED1C
:1018D0000D1A00EE100AF8EEC01AB0EE600A01EE22
:1018E000210A8DED060AB5F94220D5ED0E1A101A1F
:1018F00001EE100AB8EEC11A41EE810A20EE800A0C
:101900008DED070AB6F8140600EE100AB8EE400A8C
:1019100010EE100A884201DD30EE6A0AB6F8102691
:101920008027B5F9140000EE902AB6F880366A4692
:10193000B8EE601A00EE900A07EA531A8DED001A0D
:10194000F8EEE00AB6F8500680EE80CA00EE100A03
:10195000B8EE400A8DED010A02EB84008B4690ED53
:10196000000A10EE103A8B4203DD30EE6A0A80ED79
:10197000000A20EE0C0A641C022C80ED000AEBDB4E
:1019800095ED082AF3EE091A05F500509FEDB90A06
:10199000D5ED072A9DED001AF0EE480A79EE61CAEE
:1019A00005F520510391B0F94C1A38EEC0DAB0EECB
:1019B000600A01EE901A02EE2C0A42EE8D0AF8EE51
:1019C000E11A60EE211A01EEE01A8DED001A95F889
:1019D000252052450ED1B0F94E0ADDED011A01EE77
:1019E000100AB8EEC11A20EE010A40EE601ACDEDE1
:1019F000011A12E0B0F94E1A039801EE901A9DED0B
:101A0000011A90ED942AF8EEE11A71EE821A21EE95
:101A1000800A00EE601A8DED011A002404F1020C18
:101A2000E0174FEAEC7804EB906204EBD06192117E
:101A30005242491101EB420104EB9077E31C04EBA5
:101A4000D4720CEB987052104FEAE378524204F1D2
:101A5000010903EB9878801004EB42024FEAE97C1D
:101A600049B24A40A0EBA80809EB9C704FFA82FEED
:101A70004A42012308EBA00003EB4202A0EBA700BF
:101A80005043BAF1000F42B27DD07046B6F88236AC
:101A9000834279D136F8140000EE100AB8EE400AFD
:101AA00010EE100A584501DD30EE6A0A05EB84009D
:101AB00000F5805705EB4403D7ED911A60EE0C0A50
:101AC000B0EE480AB3F9443C00F5E05C01EEAC0A24
:101AD00001EE903A9CED912AB0EE481AF8EEE11A28
:101AE00002EE0D1A95F8257020EE210A574540EEBA
:101AF000410A14D000EE102A4FF0FF37039B07EB8A
:101B00004101B8EEC02A00EE101AD3ED961A93EDFB
:101B1000951AB8EEC00A41EE800A41EE420A0299D7
:101B200095ED060AF0EE489A05EB8101029A01F55F
:101B30002051C0EEAB8AD0ED110A91ED911A95EDCE
:101B40000A2A684640EE410AB0EE691A00EB8200AC
:101B500002EE2C1AD0ED001A20EE819A40EE618A36
:101B6000B7EEC90AB0EE081B04F06EFEB0EE681ABC
:101B700009EE0B1AB7EEC11A20EE010BB7EEC00B3F
:101B8000B7EEC00A01E02FE08FE005F029FB05F079
:101B900027FB95ED0C1AB7EEC12A20EE020BB7EE2B
:101BA000C00BF0EE690A41EE4A0A09EE200AC8EEBF
:101BB000800A30EE8B0AB7EEC00A05F011FB05F083
:101BC0000FFB9FED2D1BB5F93E0030EE411B00EEE3
:101BD000900AF8EEE00AB7EEC10BF4EEC00AF1EE9F
:101BE00010FA03DD00201CE008464FE7B5F940007D
:101BF00000EE900AF8EEE00AF4EEC00AF1EE10FAF8
:101C000001DD01200DE0B5F9420000EE900AF8EE8A
:101C1000E00AF4EEC00AF1EE10FA01DD022000E065
:101C2000032004AA05EB400105EB800302EB8000D2
:101C3000B1F93C1093ED0B1A00EE901AD0ED001A9A
:101C4000F8EEE00A30EE600A61EE890A41EE009A91
:101C500029EEA00AC8EE800A30EE8B0AB7EEC00A61
:101C60000EE00000339388430000204200FEFF4650
:101C7000000080473333534000000060661271401B
:101C800005F0AEFA05F0ACFA9FED0D2B9FED0E1AA4
:101C9000189930EE420BB7EEC00B20EE010ABCEEF5
:101CA000C00A10EE100A21F81400641CB4F5407F3D
:101CB000FFF6B4AE08B0BDEC0C8B05B0BDE8F08FFC
:101CC00066666666661271400000C842FEE7401A0A
:101CD00000F1210103296FF0050205D3411C0329FE
:101CE00002D31F38032801D21046704700207047E6
:101CF000704772B6FEE700002DE9F34FB0F84010D0
:101D00001E23BBB0B0F842B001F00F090446C1F386
:101D1000031203EB113AC1F303210020CDE938127D
:101D20000DF1800804EB40018200401CB1F8441022
:101D300001F00F030F0BC1F30315C1F3032608EBEA
:101D4000820101F1040148F82230062881E8E00010
:101D5000E8DB002058F82010072902DD103948F888
:101D60002010401C1828F5DB0020694604EB4003D6
:101D70008200401CB3F85030082803F00F054FEAEA
:101D8000133CC3F30316C3F3032701EB820303F1F0
:101D9000040341F8225083E8C010E7DB5FF0000045
:101DA00051F82020072A02DD103A41F82020401C7B
:101DB0002028F5DB0120002500FA09F95FF0000674
:101DC0003C9A06EB4510274904EB400302EB8007E1
:101DD000B3F88000C0F3051000EE100AB8EE400A18
:101DE00010EE100A87ED110A884205DDDFED1E0AAC
:101DF00030EE600A87ED110A58F8252038985DF812
:101E00002610B0EE402A824039985A4400EE909A4B
:101E100000EE10AA81405018F8EEE00AB8EE401B20
:101E200000EE100A62EE200AB8EEC00A30EE200A78
:101E300087ED110AB0EE000B04F006FD97ED111AC4
:101E4000761C202EB7EEC11A81EE002BB7EEC20B26
:101E500087ED110AB4DB6D1C182DAFDB3DB0BDE87A
:101E6000F08F00000000F8410000804230B5838A06
:101E70008024B0F86A20224D04EA131002F03F04D7
:101E800000EE104A80F08003B8EE400A10EE100A0F
:101E9000A84203DDDFED1B0A30EE600AC2F38410B6
:101EA000194C00EE900A9FED191ADFED191AF8EEA1
:101EB000600A20EE011A10EE900AA04201DD70EED9
:101EC000E10AD00A00EE100AB6EE002AB8EE400A87
:101ED00060EE820A10EE100AA04201DD30EE610AC7
:101EE000F4EE001A01F5205281F8253020EE210A87
:101EF00082ED941AC2ED950A82ED960A30BD00007B
:101F00000000F84100008042000070410000803D68
:101F1000000000422DE9F04106460D461B212DED43
:101F2000048BB0F84000B6F8742001EB1031C2F316
:101F30000900B0F5007F60F30F0403DBA0F58060BB
:101F400060F30F04900A1F2860F31F4402DD40383D
:101F500060F31F44B6F87230484A04EB2440C3F3E0
:101F6000090300EE103A60F31F44B8EE408A18EE01
:101F7000100A904203DD9FED420A38EE408A00EEDF
:101F8000101AB8EE401BB0EE000B04F05DFCB7EE8B
:101F9000C82AB6F872003B49800A82EE001B00EEA8
:101FA000100AB8EE400A10EE100A8842F7EEC18B14
:101FB00003DDDFED350A30EE600A9FED341AF7EEEF
:101FC000000A96F8760040EE010A00EE100A304F43
:101FD000DFED309AB8EE408AB0EE680A18EE100ACB
:101FE00020EE809AB84201DD38EE698A96F87000DA
:101FF000C0F30310083000EE100AB8EE401BB0EE3C
:10200000000B04F021FCB7EEC81A81EE002BB7EEEE
:10201000C20B85ED080AB6F87600000A00EE100A39
:10202000B8EE408A18EE100AB84201DD38EE698A2F
:10203000B6F87000C0F3032000EE100AB8EE401BA3
:10204000B0EE000B04F000FCB7EEC81A05F5205006
:1020500005F50051221481EE002BB7EEC20B85ED81
:10206000070AC0ED918A80ED929AA1F84C4AA1F836
:102070004E2ABDEC048BBDE8F08100000080FF43D8
:10208000000080440000F841000080420000003C55
:102090000000FE42000080432DE9F0410E468446D8
:1020A00000214FF6FF730C460D46084606EB410231
:1020B00002F500524F1CB9B2A2F85C3A0529A2F809
:1020C000663AF3D300214FF4407300BF0CEB41029A
:1020D000B2F88020BAB1D20707D006EB450202F56C
:1020E00000526D1CADB2A2F8661A491C89B2994221
:1020F00003D2052C01D2052DE8D3042C0CD96FF0A6
:102100000200BDE8F08106EB440202F50052641CB7
:10211000A4B2A2F85C1AE8E7042D02D96FF003001C
:10212000EFE76119042902D96FF00400E9E7002301
:1021300017E000BF06EB43015F1C01F500580CE0FF
:1021400006EB470000F50050B0F85C1AB8F85C0ADE
:10215000FFF7BDFD0028D4D17F1CA742F0DB5B1C3C
:102160009BB2A342E6D3002317E000BF06EB430176
:102170005F1C01F500580CE006EB470000F500502D
:10218000B0F8661AB8F8660AFFF7A1FD0028B8D1C2
:102190007F1CAF42F0DB5B1C9BB2AB42E6D300235B
:1021A00017E000BF06EB4301002701F500580CE0E3
:1021B00006EB470000F50050B0F8661AB8F85C0A64
:1021C000FFF785FD00289CD17F1CAF42F0DB5B1C34
:1021D0009BB2A342E6D394E7B0F96000B0F5004F9C
:1021E00000DB00B288827047B0F878000A4A000A23
:1021F00000EE100AB8EE400A10EE100A904203DD1D
:10220000DFED060A30EE600ADFED050A20EE200A57
:1022100081ED0A0A704700000000FE420000804382
:1022200000000039F0B530F87E4F00252D4E6FF0DC
:1022300027028A872A46CD8710F80459C4F301344F
:10224000012304EB8404C5F30315A1F840508788EB
:102250006400DFED250A15FB04F5C7F30327A1F899
:10226000405017FB0454A1F842400578047900EE71
:10227000105A04F00F040834B8EE400AA34081ED70
:102280000B0A0488240A00EE104AB8EE400A81EDD9
:102290000C0A847800EE104AB8EE400A81ED0D0A6F
:1022A0004088000A00EE100AB8EE400A81ED0E0ADE
:1022B00001EB820090ED0B0A10EE104AB44203DDF0
:1022C00030EE600A80ED0B0A00EE103A90ED0B1A2A
:1022D000521CB8EEC00A042AC1EE001AC0ED0B1A57
:1022E000E6DBF0BD0000FE42000080432DE9F34F25
:1022F0000646B0F86C00002581B040F307217F2925
:1023000000DD49B28DF8001040B27F2800DD40B2F8
:102310008DF80200B6F86E0040F307217F2900DD3A
:1023200049B28DF8011040B27F2800DD40B28DF82F
:10233000030096F870200120DFF8CCA0EB46C2F332
:10234000031102F00F0201F1080900FA02F800245B
:1023500004EB4511C81701EBD17201EB906301EB5F
:10236000D067981140427B1122F0010203EB40003C
:102370008A1A02EB400006EB4103C2B2029800EB5E
:10238000810793F8800007F58057C0F3420000EE04
:10239000100AB8EE400A10EE100A87ED910A504577
:1023A00005DDF2EE000A30EE600A87ED910A00EEDC
:1023B000108A00EE909A1BF90210B8EEC00AB8EE2F
:1023C000601B97ED912A00EE901A22EE000AF8EEBB
:1023D000E00A30EE800A87ED910AB0EE000B04F0BF
:1023E00033FA97ED911A641C202CB7EEC11A81EED6
:1023F000002BB7EEC20B87ED910AA9DB6D1C182DDF
:10240000A5DBBDE8FE8F0000000040402DE9F84349
:10241000B0F8683000258946190B072900DD10390E
:102420008DF80010C3F30322072A00DD103A8DF85F
:102430000220C3F30311072900DD10398DF80110C4
:1024400003F00F02072A00DD103A8DF80320B0F8E0
:102450007000E846C0F303265FF0000404EB45106B
:1024600000EE106AC11700EBD07200EB916300EB35
:10247000D1679B115B4222F001017A1102EB43020A
:10248000411A01EB4201C9B209EB8007B8EE401BCB
:1024900018F9010007F5E05700EE900AB8EEE00ADF
:1024A00087ED910AB0EE000B04F0CEF997ED911A8A
:1024B000641C202CB7EEC12A82EE001BB7EEC10BC4
:1024C00087ED910ACADB6D1C182DC5DBBDE8F883CA
:1024D0002DE9F34F028C0021B0F92230B8B002F0A0
:1024E0000F0AB3F5004FC2F30319C2F3032E00DB4A
:1024F0001BB220AA00EB41048D00491CA48C0629C4
:1025000004F00F064FEA143CC4F30317C4F3032886
:1025100002EB850404F1040442F8256084E880118C
:10252000E8DB0021934652F82140072C03DD103CE4
:102530005A464BF82140491C1829F3DB0022694612
:1025400000EB42049500521C248E082A04F00F066A
:102550004FEA143CC4F30317C4F3032801EB8504CA
:1025600004F1040441F8256084E88011E8DB0022CE
:1025700051F82240072C02DD103C41F82240521C49
:10258000202AF5DB002400225BF8245005FA0EF522
:1025900002EB4416DDF8E4C000EB46070CEB460600
:1025A000B7F88070BF0AA6F8447C1F2F02DD403FB9
:1025B000A6F8447CBFB231F8228007FA0AF7521C11
:1025C000202A08FA09F805EB080C1F446744A6F80E
:1025D000447CDDDB641C182CD5DB3AB0BDE8F08F01
:1025E00070B50C460546254A2DED028BB0F86410F7
:1025F000880A00EE100AB8EE400A10EE100A904267
:1026000003DDDFED1F0A30EE600A9FED1E1AC1F3F5
:1026100009001D4900EE900A20EE018AB8EE600A1A
:1026200010EE100A884203DDDFED180A30EE600A72
:10263000F4EE000AB5F86260B2EE0C1B60EE208A80
:10264000B0EE000B04F000F9288CB2EE002B00F481
:10265000704001EE100A84ED018AC4ED028AB8EEE2
:10266000411BA68181EE003B33EE020BB7EEC00B9F
:1026700084ED040ABDEC028B70BD00000000F8413F
:1026800000008042000080390080FF430000804449
:1026900090F87800094A00EE100AB8EE400A10EEF1
:1026A000100A904203DDDFED060A30EE600ADFED2E
:1026B000050A20EE200A81ED060A70470000FE425E
:1026C000000080430000003DB0F86620100A7F281B
:1026D00001DDA0F58070D2B24FF440434001088084
:1026E00003EB42124A807047002901DA002102E020
:1026F000202900DB1F21002A01DA002202E0182A2B
:1027000000DB172201EB421100EB810090ED000A83
:102710007047000070B5044600F022F90546601CC1
:1027200002D004480078044400F01AF9401BA0428B
:10273000FAD370BDD0DC00242DE9F84F03247A4D84
:1027400000234FF001094FF0B04B4FF00F0AE4E0C7
:1027500009FA03F6324078D00F7907F00307012F0A
:1027600001D0022F1AD187684FEA430ED1F80CC06E
:1027700004FA0EF827EA08070CFA0EFC4CEA070CDC
:10278000C0F808C0476891F804C0B743CCF3001CF8
:102790000CFA03FC4CEA070CC0F804C00E79F643AF
:1027A000B6070BD0C6684FEA43088F6804FA08FCE6
:1027B00026EA0C0607FA08F73743C7600E7906F0D9
:1027C0000306022E12D1DE080F694FEA437C00EBAC
:1027D0008606B646366A4FEADC6C0AFA0CF807FA47
:1027E0000CF726EA08063743CEF820700F79066802
:1027F0004FEA430807F0030704FA08FC07FA08F752
:1028000026EA0C06374307604E6816F4403F1CD09A
:10281000464E376847F00207376036689F0706F074
:102820000206009623F0030606F1B046B6463F0FB7
:10283000D6F80864DFF8F8800AFA07FC404526EA73
:102840000C0603D14FF0000C3AE065E0DFF8E4C07D
:10285000604502D14FF0010C32E0DFF8DCC060458A
:1028600002D14FF0020C2BE0DFF8D0C0604502D15E
:102870004FF0030C24E0DFF8C8C0604502D14FF0F0
:10288000040C1DE0DFF8BCC0604502D14FF0050C20
:1028900016E0DFF8B4C0604502D14FF0060C0FE03F
:1028A000DFF8A8C0604502D14FF0070C08E0DFF860
:1028B000A0C0604502D14FF0090C01E04FF00A0CB6
:1028C0000CFA07FC4CEA060CCEF808C44F68DBF89B
:1028D0000060FF0226EA020600D516435F46CBF8E9
:1028E0000060D1F804C0DBF804605FEA8C2C26EAB3
:1028F000020600D516437E606E684F6826EA02061F
:10290000BF0300D516436E602E684F6826EA0206A4
:10291000FF0300D516432E605B1C0A6832FA03F6EB
:102920007FF416AFBDE8F88F80000058F4440258D9
:10293000000002580004025800080258000C025817
:10294000001002580014025800180258001C0258C7
:10295000002402580AB1816170470904FBE70000B6
:102960000148806870470000D0DC002430B590F842
:102970004120202A24D190F84020012A20D0012390
:1029800080F84030242280F841202023002402686F
:10299000156825F0010515600268156825F4805555
:1029A0001560026815680D43156001680A6842F0F9
:1029B00001020A6080F8413080F84040002030BDBC
:1029C000022030BD30B590F84120202A22D190F865
:1029D0004020012A1ED0012380F84030242280F8B4
:1029E0004120202400250268136823F001031360AE
:1029F0000268136823F4706343EA012111600168DF
:102A00000A6842F001020A6080F8414080F84050B4
:102A1000002030BD022030BD074908B50A6842F0E9
:102A200002020A60096801F00201009103490A6884
:102A300002430A6008BD0000F44402580404005830
:102A400070B5040004D094F84100002510B106E0F0
:102A5000012070BD204684F8405000F0AFF92420DA
:102A600084F841002068016821F001010160D4E987
:102A7000001020F0706008612068816821F4004136
:102A80008160E06821680128A06830D040F40440EB
:102A90008860E0680228206841682BD021F400613A
:102AA000416020682021154A436813434360206831
:102AB000C26822F40042C26054F8106B0DCC10437F
:102AC00040EA0320F06054F81C3CD4E900021043B3
:102AD000186054F81C0D026842F00102026065643F
:102AE00084F84110256384F84250002070BD40F402
:102AF0000040CDE741F40061D2E700000080000211
:102B00002DE9FF4F83B0044690F841009A46934662
:102B1000DDE91087DDF84890202874D15FEA0800CD
:102B200014D09FB194F8400001286CD0012084F8A3
:102B30004000FFF715FF0122064619230090D1033C
:102B4000204602F057F9002871D103E04FF40070DD
:102B500060646CE00025C4F82480222184F84110D0
:102B6000402084F8420065646785534665635A4691
:102B700004992046CDE9009602F0C0F810B184F81F
:102B8000405054E0618DFF2734484FF08078FF2992
:102B90004FF0007A04D927853A464346009005E075
:102BA000618D53462185009094F828202046049991
:102BB00002F008F900224B4604212046009602F05C
:102BC00019F9A0BB2068616A406A0870606A401CFD
:102BD0006062208D401E81B22185608D401E60851F
:102BE000608DD8B1D1B900224B4680212046009695
:102BF00002F000F9D8B9608DFF2805D927853A463B
:102C00004346009506E026E0608D534620850095FA
:102C100094F828202046049902F0D4F8608D00280A
:102C2000C8D132464946204602F022F918B10120A7
:102C300007B0BDE8F08F21682020094AC8612168EB
:102C40004B6813404B6084F8410084F842500020E8
:102C500084F84050ECE70220EAE7000000240080FE
:102C600000E800FE2DE9FF4F83B0044690F84100D4
:102C70009A469346DDE91087DDF84890202871D107
:102C80005FEA080014D09FB194F84000012869D091
:102C9000012084F84000FFF763FE01220646192355
:102CA0000090D103204602F0A5F800286ED103E081
:102CB0004FF40070606469E00025C4F8248021218D
:102CC00084F84110402084F84200656467855346CB
:102CD00065635A4604992046CDE9009602F040F813
:102CE00010B184F8405051E0608DFF274FF080789C
:102CF000FF284FF0007A04D927853A4643460095CD
:102D000005E0608D53462085009594F828202046E4
:102D1000049902F057F832464946204602F0D4F8AA
:102D2000A0BB606A216800788862606A401C6062AB
:102D3000608D401E6085208D401E80B22085618D93
:102D4000D9B1D0B900224B4680212046009602F02E
:102D500051F8D8B9608DFF2805D927853A464346F2
:102D6000009506E026E0608D53462085009594F896
:102D700028202046049902F025F8608D0028CAD149
:102D800032464946204602F073F818B1012007B0D8
:102D9000BDE8F08F20682021074AC16120684368A0
:102DA0001340436084F8411084F84250002084F8B6
:102DB0004050ECE70220EAE700E800FE10B5B4B0AE
:102DC000044614212EA8FDF718FBB8216846FDF72C
:102DD00014FB1949206888422CD10020209008213A
:102DE0000446CDE90010684600F042FA08B1FEF74B
:102DF00080FF1248016841F00201016000680DF196
:102E0000B80C122100F002003390C02004238CE89B
:102E1000130002220A48CDE931232EA9FFF78CFCCA
:102E200006480830016841F400110160006800F4B0
:102E30000010339034B010BD00540040E0440258FC
:102E4000000402580248816802781144816070478A
:102E5000D0DC0024032010B500F078F801F01AF857
:102E60000F4A104914681368C4F3032203F00F03D8
:102E70008A5CC95C02F01F0201F01F01D0400A4ABF
:102E800020FA01F11160094908600F2000F010F8E4
:102E900008B1012010BD00F02BF8002010BD00008B
:102EA000184402581C000108E0DC0024DCDC00248B
:102EB00070B50D4D04462878A0B14FF47A71B1FB7E
:102EC000F0F00A490968B1FBF0F001F02FFD48B9B4
:102ED000102C07D200222146501E00F017F80020C7
:102EE0006C6070BD012070BDD0DC0024DCDC0024EF
:102EF000054808B5016841F002010160006800F072
:102F00000200009008BD0000F44402580E4BF0B4DB
:102F10001B680D46C3F30223C3F10706042E00D934
:102F20000426191D072901D2002300E0DB1E01241D
:102F300004FA06F19C40491E2940641E9940144041
:102F40002143F0BC03F06EBC0CED00E0064900F03C
:102F5000070210B54FF6FF040868044B204040EA12
:102F600002201843086010BD0CED00E00000FA05D7
:102F7000134970B50A68D243520705D5096801F0B4
:102F80000701814213D118E00A6822F007020243C8
:102F90000A60FFF7E5FC0A4D4FF47A760446083DD7
:102FA00007E000BFFFF7DCFC001BB04201D90120A5
:102FB00070BD2868C0438004F4D4002070BD0000B8
:102FC0000C48025810B500F01FFF05490968054A72
:102FD000C1F30211515C01F01F01C84010BD000097
:102FE000204402581C000108494930B5484C0B1DCB
:102FF0000A68143409681D68246802F00303C5F3E5
:103000000012C1F30531C4F3CC04002914FB02F211
:1030100000EE102AF8EE400A75D03F4A9FED3D1AA7
:10302000B7EE000A6BB1DFED3D1A012B01D0022B88
:1030300064D002EE101A1168F8EE422A81EEA22A3C
:1030400021E0334C283C23689B0612D5344B24687E
:1030500001EE901A1168C4F3C104F8EE612AE3404E
:1030600001EE903AC1F30801F8EE611A81EEA22A4E
:103070000BE001EE901ADFED2B2A00BFF8EE611A8B
:10308000116882EEA12AC1F3080101EE901A1168BD
:10309000F8EE611A40EE811A71EE800A62EE200AA3
:1030A000C1F3462101EE101AB8EE411A31EE001AB2
:1030B000C0EE811ABCEEE11A80ED001A1168C1F36E
:1030C000064101EE101AB8EE411A31EE001AC0EEB8
:1030D000811ABCEEE11A80ED011A1168C1F3066194
:1030E00001EE101AB8EE411A31EE000A80EE801A95
:1030F000BCEEC10A80ED020A30BD04E001EE901A78
:10310000DFED092ABAE70021016041608160F3E741
:103110002844025800000039384402580024744AF8
:103120000090D0030024744C20BCBE4B494930B5FC
:10313000484C0B1D0A681C3409681D68246802F09D
:103140000303C5F30022C1F30551C4F3CC040029E5
:1031500014FB02F200EE102AF8EE400A75D03F4A46
:103160009FED3D1AB7EE000A6BB1DFED3D1A012B62
:1031700001D0022B64D002EE101A1168F8EE422A38
:1031800081EEA22A21E0334C283C23689B0612D50D
:10319000344B246801EE901A1168C4F3C104F8EEB0
:1031A000612AE34001EE903AC1F30801F8EE611A9A
:1031B00081EEA22A0BE001EE901ADFED2B2A00BF70
:1031C000F8EE611A116882EEA12AC1F3080101EE3E
:1031D000901A1168F8EE611A40EE811A71EE800AB9
:1031E00062EE200AC1F3462101EE101AB8EE411A30
:1031F00031EE001AC0EE811ABCEEE11A80ED001A21
:103200001168C1F3064101EE101AB8EE411A31EE11
:10321000001AC0EE811ABCEEE11A80ED011A1168A5
:10322000C1F3066101EE101AB8EE411A31EE000A40
:1032300080EE801ABCEEC10A80ED020A30BD04E0C7
:1032400001EE901ADFED092ABAE700210160416022
:103250008160F3E7284402580000003940440258D6
:103260000024744A0090D0030024744C20BCBE4B50
:103270002DE9FE4F0546DFF800A450F8081B002496
:10328000FD4FC943019005F1280026460AF1240AA2
:10329000009008011DD4686E50B1B0F5801F0CD0AD
:1032A000B0F5001F0ED0B0F5401F1ED001240FE076
:1032B000386840F40030386017E00198022102F0CD
:1032C000E5FB03E00098022102F070FC04000CD042
:1032D00026462888C043C00523D4A86D05281ED2E1
:1032E000DFE800F00C11161B1B006A6EDAF8001004
:1032F00021F440111143CAF80010EAE7386840F49D
:103300000030386009E00198002102F0BFFB03E0C3
:103310000098002102F04AFC0446C4B100E00124F8
:1033200026462888DFF85083C04308F12C08400562
:103330002FD4D5F8A400B0F5C00F28D010DCB8B158
:10334000B0F5001F19D0B0F5800F0FD11AE0AA6DAB
:10335000DAF8001021F007011143CAF80010E0E785
:10336000B0F5000F13D0B0F5200F10D001240FE0FE
:10337000386840F40030386009E00198002102F01C
:1033800085FB03E00098002102F010FC044694B194
:1033900026462888C043000530D4D5F8A800B0F1EF
:1033A000407F29D011DCC0B1B0F1807F1AD0B0F1DC
:1033B000007F10D11BE0D5F8A420D8F8001021F42C
:1033C00060011143C8F80010E3E7B0F1806F13D03B
:1033D000B0F1A06F10D001240FE0386840F4003045
:1033E000386009E00198002102F050FB03E00098EA
:1033F000002102F0DBFB044694B126462868DFF882
:1034000078B2C0430BF1200B80011FD4E86CD8B117
:1034100010280FD0202812D0302815D0012414E015
:10342000D5F8A820D8F8001021F0E0611143C8F8C1
:103430000010E3E7386840F40030386004E0019899
:10344000022102F023FB044674B126462888C043BB
:10345000C0042BD4E86DB0F5005F20D00DDCA0B126
:10346000B0F5805F0FD115E0EA6CDBF8001021F0B9
:1034700030011143CBF80010E8E7B0F5405F13D0FE
:10348000B0F5804F10D001240FE0386840F40030D0
:10349000386009E00198002102F0F8FA03E0009892
:1034A000002102F083FB04468CB126462888C043E5
:1034B000800429D4286EB0F5403F23D010DC08B337
:1034C000B0F5803F14D0B0F5003F0FD115E0EA6DA4
:1034D000DAF8001021F4E0411143CAF80010E5E7E2
:1034E000B0F5802F0ED0B0F5A02F0BD001240AE04C
:1034F0000198012102F0CAFA03E00098012102F0CC
:1035000055FB044694B126462888C04340042AD47B
:10351000D5F8AC00B0F1405F23D010DC08B3B0F1B7
:10352000805F14D0B0F1005F0FD115E02A6EDAF899
:10353000001021F4E0211143CAF80010E4E7B0F1D3
:10354000804F0ED0B0F1A04F0BD001240AE00198BB
:10355000012102F09BFA03E00098012102F026FB12
:10356000044674B126462888C04300041FD4E86E80
:10357000D8B1B0F1805F0ED0B0F1005F10D001245F
:1035800014E0D5F8AC20D8F8001021F0E041114348
:10359000C8F80010E7E7386840F40030386004E00D
:1035A0000198012102F072FA044674B12646286897
:1035B000C043C0011ED4A86CD0B101280ED002288F
:1035C00011D0032814D0012413E0EA6EDAF80010B9
:1035D00021F040511143CAF80010E8E7386840F480
:1035E0000030386004E00198022102F04FFA0446EE
:1035F0006CB126462868C043400255D41F48016874
:1036000041F480710160FFF7ABF981460EE0AA6CCE
:10361000DBF8001021F003011143CBF80010E9E7BB
:10362000FFF79EF9A0EB090064283BD81348006817
:10363000C005F5D5BCBBDFF84090B5F8B01009F176
:103640004409D9F8000001F4407100F44070884248
:1036500011D0D9F80010D9F8002021F4407142F4BB
:103660008032C9F80020D9F8002022F48032C9F84D
:103670000020C9F8001003E02C440258004802580A
:10368000D5F8B000B0F5807F19D1FFF769F9029045
:1036900011E000BFFFF764F90299411A41F2883046
:1036A000814208D9032426462878DFF81494C043C1
:1036B000C00721D03CE0D9F800008007EAD5D5F852
:1036C000B010C1F301200328FE480DD0016821F499
:1036D0007C510160B5F8B020D9F80010C2F30B029C
:1036E0001143C9F80010DFE7F74A036802EA111234
:1036F00023F47C511143ECE7A86F182816D005DCA1
:10370000A0B1082808D0102804D10AE020280DD044
:1037100028280BD001240AE00198012102F0B6F913
:1037200003E00098012102F041FA044664B1264604
:103730002878C04380071ED4686F062819D2DFE8B6
:1037400000F0160C11161616AA6FD9F8001021F009
:1037500038011143C9F80010EAE70198012102F08D
:1037600095F903E00098012102F020FA04467CB1AB
:1037700000E0012426462878C04340071FD4D5F82E
:103780009000062819D2DFE800F0160C1116161664
:103790006A6FD9F8001021F007011143C9F8001031
:1037A000E9E70198012102F071F903E00098012195
:1037B00002F0FCF90446A4B100E001242646287872
:1037C000C04380062BD4D5F88C00B0F1405F24D0E4
:1037D00011DC10B3B0F1805F15D0B0F1005F10D1F3
:1037E00016E0D5F89020D8F8001021F00701114319
:1037F000C8F80010E3E7B0F1804F0ED0B0F1A04F51
:103800000BD001240AE00198002102F03FF903E007
:103810000098022102F0CAF9044694B1264628789D
:10382000C04340062BD4D5F89800B0F5406F24D0A3
:1038300011DC10B3B0F5806F15D0B0F5006F10D16A
:1038400016E0D5F88C20D9F8001021F0E0411143A2
:10385000C9F80010E3E7B0F5805F0ED0B0F5A05FC7
:103860000BD001240AE00198002102F00FF903E0D7
:103870000098022102F09AF9044694B1264628786D
:10388000C04300062BD4D5F89C00B0F5C04F24D01F
:1038900011DC10B3B0F5005F15D0B0F5804F10D13A
:1038A00016E0D5F89820D8F8001021F4E051114323
:1038B000C8F80010E3E7B0F5004F0ED0B0F5204F88
:1038C0000BD001240AE00198002102F0DFF803E0A8
:1038D0000098022102F06AF9044654B1264628787D
:1038E000C04300071ED4D5F88000B0F5805F0AD031
:1038F0000FE0D5F89C20D8F8001021F46041114366
:10390000C8F80010EBE70098022102F04FF900B16F
:103910000126D5F88020D9F8001021F44051114338
:10392000C9F800102878C043C00613D4D5F8940015
:10393000B0F5807F05D10098022102F037F900B17F
:103940000126D5F89420D8F8001021F440711143D5
:10395000C8F800102868C043000316D4D5F8A000AA
:1039600038B1B0F5803F09D0B0F5003F0BD001244D
:103970000AE00198002102F089F803E00098022192
:1039800002F014F904468CB126462868C04340036F
:1039900022D4D5F88400B0F5801F11D0B0F5001FF7
:1039A00013D0B0F5401F15D0012414E0D5F8A020A5
:1039B000D8F8001021F440311143C8F80010E4E7B2
:1039C000386840F40030386004E00098012102F0CB
:1039D000EDF804465CB126462868C043C0031CD4F9
:1039E000286D70B1B0F5803F10D0012414E0D5F8F7
:1039F0008420D9F8001021F440111143C9F80010B7
:103A0000EAE7386840F40030386004E001980221A9
:103A100002F03CF80446DCB126462868C04380002A
:103A200005D40098022102F0C1F800B101262868EF
:103A3000C04380031BD4E86FB8B1B0F5807F10D0CD
:103A4000B0F5007F11D0B0F5407F0ED001240DE01D
:103A50002A6DDBF8001021F480311143CBF80010FF
:103A6000DBE7386840F4003038607CB326462868CD
:103A7000C043C00207D42A6FDAF8001021F00041D9
:103A80001143CAF800102868C043800207D4AA6E08
:103A9000DAF8001021F080711143CAF8001028688C
:103AA000C043400009D40748016821F40041016087
:103AB0000168D5F8B420114301602868C04306E0CE
:103AC0005444025810440258CFFFFF001DE007D4B1
:103AD0006A6DDBF8001021F040511143CBF8001063
:103AE0002868C043000208D4D5F88820D9F800100F
:103AF00021F440011143C9F8001028790024C04383
:103B000000F00100204309D00EE0EA6FD9F8001060
:103B100021F440711143C9F80010A8E70198002171
:103B200001F0B4FF00B106462879C04300F002005E
:103B3000204305D10198012101F0A8FF00B10646FC
:103B40002879C04300F00400204305D101980221E8
:103B500001F09CFF00B106462879C04300F0080040
:103B6000204305D10098002102F020F800B106465C
:103B70002879C04300F01000204305D100980121AE
:103B800002F014F800B106462879C04300F0200086
:103B9000044304D10098022102F008F800B916B1DC
:103BA0000120BDE8FE8F0020FBE700002DE9F05F5B
:103BB00004000F467ED0DFF83882D8F8000000F00D
:103BC0000F00B8420CD2D8F8001021F00F01394391
:103BD000C8F80010D8F8000000F00F00B84269D112
:103BE0002078844D40070AD52069296801F07001CA
:103BF000884204D9296821F07001014329602078A6
:103C00007C4E361D00070AD56069316801F07001ED
:103C1000884204D9316821F0700101433160207875
:103C2000C0060AD5A069316801F4E061884204D970
:103C3000316821F4E061014331602078DFF8B4B1EC
:103C400080060BF1080B0CD5E1695846DBF8002023
:103C500002F07002914204D9026822F070020A4315
:103C60000260207880070AD5E068296801F00F011A
:103C7000884204D9296821F00F0101432960207886
:103C8000C0073ED05B49A2682868183920F47060EC
:103C9000104328606068022818D0032819D00968EA
:103CA000012819D0490700294ADADFF848A1AAF10A
:103CB000080A00E044E0DAF8002022F0070202439C
:103CC000CAF80020FEF74CFE814612E0096889031D
:103CD000E9E709688901E6E7C905E4E7FEF740FE80
:103CE000A0EB090141F28830814202D90320BDE8EE
:103CF000F09F6168DAF8000000F03800B0EBC10F07
:103D0000ECD1207880070AD5E068296801F00F011E
:103D1000884204D2296821F00F0101432960D8F8B4
:103D20000010404601F00F01B9420BD9016821F0A3
:103D30000F0139430160006800F00F00B84201D064
:103D40000120D4E7207840070AD52069296801F0CE
:103D50007001884204D2296821F070010143296072
:103D6000207800070AD56069316801F07001884247
:103D700004D2316821F07001014331602078C0061F
:103D80000AD5A069316801F4E061884204D2316843
:103D900021F4E06101433160207880060CD5E169AF
:103DA0005846DBF8002002F07002914204D202680B
:103DB00022F070020A43026000F06CF80E492A6893
:103DC0002B68C2F3032203F00F038A5CC95C02F084
:103DD0001F0201F01F01D040084A20FA01F11160D2
:103DE0000749086007480068BDE8F05FFFF760B862
:103DF00000200052184402581C000108E0DC002496
:103E0000DCDC0024D4DC002430B500F043F80B4A9D
:103E10000B490C4B15681468C5F3032204F00F041A
:103E20008A5C095D02F01F0201F01F01D040064AC2
:103E300020FA01F119601060084630BD184402589C
:103E40001C000108E0DC0024DCDC002400B5FFF7E6
:103E5000DBFF05490968054AC1F30211515C01F015
:103E60001F01C84000BD00001C4402581C0001088E
:103E700000B5FFF7C9FF05490968054AC1F30221EA
:103E8000515C01F01F01C84000BD00001C440258F5
:103E90001C000108454970B545480968434B103B73
:103EA00011F0380208D00111082A03D0102A0BD0D3
:103EB000182A0BD0084670BD19688906FBD5196809
:103EC000C1F3C101C84070BD3A4870BD3749374D94
:103ED00018310C1D24350A68096826682D6802F01F
:103EE000030406F00102C1F30511C5F3CC0515FB6F
:103EF00002F200EE102AB8EE400AE9B32F4ADFEDD5
:103F00002E0AB7EE001A6CB1DFED2D1A012C01D08C
:103F1000022C43D002EE101A1068F8EE422A81EE0D
:103F2000A22A1EE01C68A40611D51B6801EE901A97
:103F30001168C3F3C103F8EE612AD84001EE900A7C
:103F4000C1F30800F8EE611A81EEA22A0BE001EE3F
:103F5000901ADFED1C2A00BFF8EE611A106882EE9D
:103F6000A12AC0F3080001EE900AF8EE611A40EEB3
:103F7000201A31EE810A00E015E022EE000A1068F6
:103F8000C0F34620401C00EE900AF8EE600A80EE76
:103F9000201ABCEEC10A10EE100A70BD01EE901A94
:103FA000DFED092AD8E7002070BD00001044025858
:103FB0000090D00340787D01000000393044025861
:103FC0000024744A0024744C20BCBE4B2DE9F05FE1
:103FD00004007DD0FF4F2078FE4D1837DFF8F483C2
:103FE000103DC00748D0D8F80000396800F038000C
:103FF000102815D0182803D101F0030002280FD093
:104000006068B0F5803F12D010B1B0F5A02F18D085
:10401000286820F480302860286820F4802009E097
:104020002868800328D560680028D2D024E028685A
:1040300040F480302860606888B1FEF791FC064645
:1040400009E0286840F480202860F0E7FEF788FC4B
:10405000801B64287ED828688003F7D50CE0FEF723
:104060007FFC064605E000BFFEF77AFC801B642853
:10407000F0D828688003F7D42078800756D5D8F880
:104080000000DFF85093396810F03800A9F10C09EE
:104090000ED0182801D188070AD0E068A8B3296893
:1040A00021F0190101432960FEF75AFC064628E079
:1040B0002868400702D5E06800288AD0E1682868AF
:1040C00020F0190008432860FEF74AFC064606E087
:1040D000D2E000BFFEF744FC801B0228BAD8286853
:1040E0004007F7D5217CD9F8002022F0FE4242EAB1
:1040F0000161C9F8001019E0FEF732FC801B0228AC
:10410000A8D828684007F7D5ECE7FFE7286820F033
:1041100001002860FEF724FC064604E0FEF720FCC0
:10412000801B022896D828684007F7D42078C0065C
:1041300046D5D8F80000DFF89C92396800F03800C6
:10414000A9F10409082812D0182805D101F00300AC
:10415000012800E0CEE00AD0E0690028286820D0DD
:1041600040F080002860FEF7FBFB064615E028685B
:10417000C00502D5E06980287ED194F82010D9F8D6
:10418000002022F07C5242EA0161C9F8001017E0D9
:10419000FEF7E6FB801B0228A0D82868C005F7D5EB
:1041A000EBE720F080002860FEF7DAFB064604E02B
:1041B000FEF7D6FB801B022890D82868C005F7D4EC
:1041C0002078000729D58348616964300029814639
:1041D000016811D041F001010160FEF7C1FB064604
:1041E00005E000BFFEF7BCFB801B022888D8D9F889
:1041F00000008007F6D510E021F001010160FEF714
:10420000AFFB064605E000BFFEF7AAFB801B0228B5
:1042100070D8D9F800008007F6D42078800623D51E
:10422000A0690028286810D040F480502860FEF76C
:1042300097FB064605E000BFFEF792FB801B0228B5
:1042400058D828688004F7D50EE020F48050286004
:10425000FEF786FB064604E0FEF782FB801B022881
:1042600048D828688004F7D42078400751D5DFF873
:104270006891D9F8001000E015E141F48071C9F8A7
:104280000010FEF76DFB064605E000BFFEF768FB79
:10429000801B64282ED8D9F80000C005F6D54D4EF5
:1042A000A068603601280AD008B1052813D030680C
:1042B00020F001003060306820F0040002E0306837
:1042C00040F001003060A06841F2883A98B1FEF7F2
:1042D00047FB81460AE0306840F004003060EEE7BA
:1042E000FEF73EFBA0EB0901514503D8306880077B
:1042F000F6D50EE072E0FEF733FB814606E000BF24
:10430000FEF72EFBA0EB0901514567D83068800706
:10431000F6D4606A00287CD0DFF8B8A0D8F8001086
:104320000AF1200A4FF6F87B0AF10408C1F3C20132
:104330000329AAF104096DD00228286820F08070B2
:10434000286003D0FEF70CFB044681E0FEF708FB73
:10435000064604E0FEF704FB801B022875D8286897
:104360008001F7D4E26A40F2F331386854F8283F0C
:10437000884340EA021018433860217B4FF4FE0C5A
:1043800022894FF0FE47208A4902267D521E401E98
:10439000A1F5007189B2C2F308021143761E0CEA3E
:1043A00000400143484607EA06621143CAF800107C
:1043B000D9F8001021F00101C9F80010D8F8003038
:1043C000266A23EA0B0343EAC601C8F80010D9F8AD
:1043D000001004E0104402580048025835E0A26979
:1043E00021F00C011143C9F800100168E26921F0C5
:1043F000020111430160016841F4803101600168EC
:1044000041F400310160016841F4802101600168DC
:1044100001E06CE020E041F001010160286840F01B
:1044200080702860FEF79CFA044604E0FEF798FAD4
:10443000001B022809D828688001F7D557E000BF83
:10444000FEF78EFA001B022802D90320BDE8F09F78
:1044500028688001F4D44AE039680128DAF80000BD
:1044600021D0A26A01F0030393421CD1E26AC1F396
:1044700005118A4217D1216BC0F30802491E8A42F6
:1044800011D1616BC0F34622491E91420BD1A16B41
:10449000C0F30642491E914205D1E16BC0F30660AC
:1044A000491E814201D00120D0E7A16C4646D8F8D0
:1044B0000000C0F3CC00814219D0D9F800004D466D
:1044C00020F00100C9F80000FEF74AFA4FEA0007A1
:1044D000FEF746FAB842FBD0A26C306820EA0B0027
:1044E00040EAC2003060286840F0010028600020E7
:1044F000ACE700002DE9F047040029D0594A4FF0FD
:1045000000092068584B594D9042C4F8289006D0B5
:10451000984204D0A84202D0E1680F2918D8E16877
:104520004FF0010AE76B0831C9080AEB57167143CF
:10453000904205D0984203D0A84201D0082907D85C
:10454000904203D0984201D0A84204D1102902D948
:104550000120BDE8F08794F8810020B9204684F856
:10456000809000F085F8022084F8810020680168BE
:1045700021F0010101602068A1698268B1F1806FBA
:1045800002F4F81110D16268B2F5800F01D01AB1AF
:104590000AE0A26B22B107E0A26BB2F1805F03D107
:1045A000026842F4805202606068400209D5E06807
:1045B000072806D32068236D026822F480721A430C
:1045C00003E02068026822F480720260A66AE06953
:1045D000E26B25683043E3680A4310431843A86040
:1045E000D4E90D02D4E90581636A25691843D4F83A
:1045F00020C00A43266810432843A56DD4E9017200
:10460000D4E9123140EA080040EA0C00384308437C
:10461000104318432843F060606868B920688168D7
:1046200021F4C05141F4006181602068816821F467
:10463000C06141F4806181602068016D21F0010159
:1046400001656068400206D52068626DC16821F08E
:1046500000411143C160C4F8849084F881A0002017
:1046600077E700000030014000380040003C004087
:1046700010B5B4B0044614212EA8FBF7BEFEB82135
:104680006846FBF7BAFE1849206888422AD181148F
:10469000002017900446CDE900106846FEF7E8FDBB
:1046A00008B1FDF726FB1148016841F48051016013
:1046B000006800F4805033900C481038016841F0D5
:1046C0000101016000682EAB022100F0010033906F
:1046D000A020052283E8130005482EA9CDE9314228
:1046E000FEF72AF834B010BD00300140F044025803
:1046F000000002582DE9F84F994617468A460446AD
:10470000FEF72EF9064694F88100012839D1BAF156
:10471000000F7CD0002FFCD094F88000012830D00E
:10472000A26800254FF0010884F88080032184F8F6
:104730008110C4F88450C4F85CA06566A4F8685081
:10474000656725672C34B2F5C02FA786E786E58715
:1047500054F82C0D18D0C16821F4C02141F4003167
:10476000C160206841686FF30F01394341602068E0
:10477000016841F0010101606068B0F5800F08D068
:104780000CE00220BDE8F88F016841F4006101608F
:10479000E7E72068016841F400710160E0680F28D4
:1047A0001CD820E02068416989070BD5E16D0968B4
:1047B0000162E06D001DE065B4F86200401EA4F8DF
:1047C00062000BE0FEF7CCF8811B494503D3B9F139
:1047D000FF3F03D09BE0B9F1000F31D0B4F8620085
:1047E0000028DFD177E007282ED870E020684169E3
:1047F00089071DD5B4F8621001290DD9E16B59B1B3
:10480000E16D09680162E06D001DE06500E07CE09B
:10481000B4F86200801E08E0E16D09880184E06D53
:10482000801CE065B4F86200401EA4F862000BE052
:10483000FEF796F8811B494503D3B9F1FF3F03D03A
:1048400065E0B9F1000F62D0B4F862000028CDD164
:1048500041E02068416989072DD5B4F86210032929
:104860000CD9E16B402909D9E16D09680162E06D5D
:10487000001DE065B4F86200001F19E0B4F8621092
:1048800001290BD9E16B49B1E16D09880184E06D23
:10489000801CE065B4F86200801E09E0E16D0978D3
:1048A00080F82010E06D401CE065B4F86200401E06
:1048B000A4F862000BE0FEF753F8811B494503D3CF
:1048C000B9F1FF3F03D022E0B9F1000F1FD0B4F8D7
:1048D00062000028BDD100224B46082120460096E8
:1048E00001F052FB28B1D4F8840040F02000C4F855
:1048F0008400204601F0EAFA84F88180D4F884002C
:1049000084F8805000283FF43DAF01203AE720466C
:1049100001F0DCFAD4F8841084F8805041F48071FE
:10492000C4F8841084F8818003202BE7401EB0F186
:10493000807F10B501D3012010BD4FF0E0246061ED
:104940000F21601701F06EFF0020A0610721216197
:1049500010BD30B590F88410012918D0012280F8DC
:1049600084202421C0F888100022202401680B68CC
:104970000D6823F0005325F001050D6042660168C3
:104980000B60C0F8884080F88420104630BD0220BB
:1049900030BD70B5044690F8840001281DD0012276
:1049A00084F884202420C4F8880020680568026800
:1049B00022F0010202602068826822F060620A43ED
:1049C0008260204601F0B2FB2268202100201560A1
:1049D000C4F8881084F8840070BD022070BD70B5E2
:1049E000044690F8840001281DD0012284F8842018
:1049F0002420C4F8880020680568026822F00102BB
:104A000002602068826822F060420A438260204689
:104A100001F08CFB2268202100201560C4F888106A
:104A200084F8840070BD022070BD10B5040003D06E
:104A3000D4F8880010B107E0012010BD002084F8F0
:104A40008400204600F026F82420C4F8880020685E
:104A5000016821F001010160A06A10B1204601F057
:104A600087FB204601F068FC0128E6D020684168F9
:104A700021F4904141602068816821F02A01816021
:104A80002068016841F0010101602046BDE8104046
:104A900001F0D2BB10B5B4B0044614212EA8FBF728
:104AA000ACFCB8216846FBF7A8FC1849206888428E
:104AB0002AD100201D9002210446CDE9001068464D
:104AC000FEF7D6FB08B1FDF714F91148016841F46F
:104AD00000310160006800F4003033900C48083861
:104AE000016841F0080101600068072260213094EC
:104AF00000F0080033900220CDE92E10CDE93102FC
:104B000004482EA9FDF718FE34B010BD0044004043
:104B1000E8440258000C02582DE9F8430446D0F846
:104B20008800984616460D46202802D00220BDE88F
:104B3000F883A5B19EB10021C4F890102120C4F8DB
:104B400088001834FDF70CFF814654F8100CA68736
:104B5000E6872027183CB0F5805F02D003E00120F3
:104B6000E5E7206910B12E46002510E000260EE092
:104B70008021204601F0CEFDC0B9DEB116F8010B50
:104B800021688862B4F85600401EA4F85600B4F8B4
:104B900056004B464FF00002CDF800800028E7D1C8
:104BA0004FF04001204601F0B5FD48B1C4F88870CF
:104BB0000320BCE735F8020B2168C0F30800E0E7EA
:104BC000C4F888700020B2E7FEE701688A69D24322
:104BD000920701D400228A6200688169C943C9072B
:104BE00003D0816941F00101816170472DE9F047EF
:104BF000044600680026894617464FF020083546CF
:104C00008169C90641D51021C1612FE0B9F1FF3F8B
:104C10002CD0FDF7A5FEC11B494502D8B9F1000F04
:104C200024D12068426894F84210836902F48042DB
:104C3000DB431B0415D4B2F5804F12D0202910D0CD
:104C4000416841F480414160FDF78AFE074608E073
:104C5000FDF786FEC01B192803D9012645F0200563
:104C600004E020688069C0438006F1D42068806930
:104C7000C043800602D5002EC8D003E016B92168D3
:104C8000C1F81C80012645F0040521688869C20529
:104C900005D54FF48072CA6145F001050126410532
:104CA0000AD5216880054FF4806245F00805CA6185
:104CB0004FF0010602D40AE0800507D520680126DE
:104CC0004FF4007145F00205C16100E08EB120464D
:104CD000FFF77BFF20680021074F43683B4043609C
:104CE000606C2843606484F8418084F8421084F842
:104CF00040103046BDE8F08700E800FE2DE9F8439B
:104D0000174604461548DAB2DDE908981E460090B9
:104D10000023204600F056F842464946204600F05F
:104D2000D3F8B8B9012EFDB208D02068390A8162E3
:104D300042464946204600F0C7F858B920688562C7
:104D4000002240214B462046CDF8008000F052F86A
:104D5000002800D00120BDE8F8830000002000807A
:104D60002DE9F8430446164817461E46DAB200906D
:104D7000C3022046DDE9089800F024F8424649467F
:104D8000204600F0A1F8B8B9012EFDB208D0206885
:104D9000390A816242464946204600F095F858B9E2
:104DA00020688562002280214B462046CDF8008095
:104DB00000F020F8002800D00120BDE8F8830000B2
:104DC0000020008070B50068C1F3090141EA02418A
:104DD000074D049C19434FF480664268214306EA5C
:104DE00054532B439A4321F000410A43426070BD63
:104DF000FF63FF032DE9F0411D4617460E460446AA
:104E0000DDF8188028E0424629462046FFF7EEFEEE
:104E100010B10120BDE8F081681C1DD0FDF7A0FD98
:104E2000A0EB0800A84200D8B5B92068806936EA2E
:104E300000000FD00020B8420ED1626C002084F830
:104E40004000202142F02002626484F8411084F87E
:104E50004200DEE70120EEE72068806936EA0000C4
:104E600004D00020B842CED00020D3E70120F9E7DB
:104E700070B516460D4604461FE0324629462046C8
:104E8000FFF7B4FE08B1012070BDFDF769FD801B7E
:104E9000A84200D88DB920688069C04380060CD52F
:104EA000626C002084F84000202142F020026264FD
:104EB00084F8411084F84200E5E720688069C04327
:104EC0008006DAD4002070BD70B516460D46044643
:104ED00021E0324629462046FFF788FE08B101202E
:104EE00070BD681C17D0FDF73BFD801BA84200D8A1
:104EF0008DB920688069C04380070CD5626C0020A2
:104F000084F84000202142F02002626484F84110BD
:104F100084F84200E3E720688069C0438007D8D462
:104F2000002070BD2DE9F0411C4615460E4607468F
:104F30002A2000F0C3F9BF1CB8B200F0B2F9AD1CD2
:104F4000A8B200F0AEF92B2000F0B8F9761CB0B290
:104F500000F0A7F9641CA0B200F0A3F9BDE8F0418D
:104F60002C2000F0ABB910B514460B460246FFF7F3
:104F7000D9FF2046BDE8104000F093B92DE9F04775
:104F80000C468046581E1F46511E164683B2DDF859
:104F900020908AB221464046FFF7C4FF0AE045460A
:104FA00004E0484600F07DF96D1CADB2B542F8D37F
:104FB000641CA4B2BC42F2D3BDE8F08710B5694CC2
:104FC000002202212046FDF7C5FC6420FDF7A2FB6C
:104FD000012220460221FDF7BDFC6420FDF79AFB6B
:104FE000012220461021FDF7B5FC6420FDF792FB5D
:104FF000112000F063F97820FDF78CFB362000F0DB
:105000005DF9002000F06EF93A2000F057F9052014
:1050100000F068F9B22000F051F90C2000F062F9BC
:105020000C2000F05FF9002000F05CF9332000F064
:1050300059F9332000F056F9B72000F03FF9352038
:1050400000F050F9BB2000F039F9192000F04AF9BE
:10505000C02000F033F92C2000F044F9C22000F009
:105060002DF9012000F03EF9C32000F027F91220AD
:1050700000F038F9C42000F021F9202000F032F9C6
:10508000C62000F01BF90F2000F02CF9D02000F012
:1050900015F9A42000F026F9A12000F023F9E02062
:1050A00000F00CF9D02000F01DF9042000F01AF9EE
:1050B0000D2000F017F9112000F014F9132000F072
:1050C00011F92B2000F00EF93F2000F00BF95420CD
:1050D00000F008F94C2000F005F9182000F002F962
:1050E0000D2000F0FFF80B2000F0FCF81F2000F06E
:1050F000F9F8232000F0F6F8E12000F0DFF8D020E6
:1051000000F0F0F8042000F0EDF80C2000F0EAF8D0
:10511000112000F0E7F8132000F0E4F82C2000F054
:10512000E1F83F2000F0DEF8442000F0DBF85120E9
:1051300000F0D8F82F2000F0D5F81F2000F0D2F8AA
:105140001F2000F0CFF8202000F0CCF8232000F042
:10515000C9F8212000F0B2F8BDE81040292000F085
:10516000ADB80000000002582DE9FF4F81B00446A1
:10517000203ADDE90F7B0090D0B203904FEA570848
:105180004FEAD80000FB07FA0298C11904EB0800A7
:10519000401E82B22046491E8BB20299FFF7C2FE22
:1051A000002637E0102F24D0202F35D103981C493A
:1051B00001EB80105FF0000510F806904FF0010041
:1051C000BBF1000F00FA05F000EA090016D020B18B
:1051D000049A20460299FFF7C6FE0098641CA4B208
:1051E000211A414510D10298009C401C80B20290C7
:1051F0000EE003980B4901EB0010DBE708B10498BF
:1052000000E00E9800F04DF86D1CEDB2082DD5D3DE
:10521000761CB6B25645C5D305B0BDE8F08F000088
:1052200010E4000820DE00082DE9FE4F99461446E0
:105230008A460546DDE90D67DDF830800CE0CDF8E3
:1052400000804B46CDE9016751462846FFF78CFFA9
:1052500005EB560085B2641C2278002AEFD1BDE828
:10526000FE8F00002DE9F041174601F15F0293B275
:1052700000F17F04A2B280266025FFF753FE0024D0
:1052800016FB05F609E000BF37F81450280A00F0B5
:1052900012F8E8B200F00FF8641CA642F4D8BDE89A
:1052A000F08110B50446000A00F01CF8E0B2BDE839
:1052B000104000F017B800F015B8000070B5084CA9
:1052C0000022042105462046FDF744FB284600F055
:1052D00009F82046BDE8704001220421FDF73ABBE1
:1052E0000000025831B5094C002208212046FDF784
:1052F00031FB074801224FF47A736946FFF7FAF948
:10530000012220460821FDF725FB38BD0000025888
:10531000401B01244FF450720B464FF4105100F023
:1053200043B970B50C460546FDF7CEF9214628462F
:10533000FDF756F921462846FCF74EFF2146284640
:10534000FDF7A6F9B5F870002146C0F3013084F8E6
:1053500024002846FCF748FF21462846FCF762FF58
:1053600021462846FCF7C8FC21462846FDF7B0F840
:1053700021462846FCF7BAFF21462846FDF746F8A5
:1053800021462846FCF7C6FD21462846FCF76EFD5F
:1053900021462846BDE87040FCF77EBE2DE9FC475B
:1053A00000240F464FF40046814641F288382546D6
:1053B00001226B463146484600F0F6F8002809D134
:1053C000BDF800106D1CADB2454501F0080003D9D1
:1053D0006FF06200BDE8FC870028E9D04FF45075FB
:1053E0004FF48068052C1ED230223146484600F02A
:1053F00001F9411CEED03B462A464146484600F0A2
:10540000D3F80028E6D101226B463146484600F029
:10541000CBF80028DED1BDF8000004F10104E4B2AD
:1054200010F0080FDED1042C02D96FF00700D1E78D
:10543000012248F20D0101AB484600F0B5F8BDF875
:1054400004100028A7F88016BDF8001001F0010133
:10545000A7F88216BED10846BCE7000070B50C461E
:1054600005462DED048B00F053F8B5F840062549AC
:1054700000EE900AB0EE408A9FED230AF8EE600A33
:1054800010EE900A884201DD70EEC00AB5F8000601
:1054900001EE100AB8EE411A11EE100A884201DD41
:1054A00031EE401A94ED040A00EE801A80EE810A73
:1054B000B3EE021BB7EEC09AB0EE000B01F0C4F9D8
:1054C00029EE003B9FED111A94ED010AF7EE000A58
:1054D00038EE411AA089D4ED021AB3EE092A40EE43
:1054E000010AB7EEC30B01EE100ABDEC048BB8EE57
:1054F000411AC0EE202A32EEC10AC0EE210A30EE77
:10550000820A70BD00FEFF460000804733335340DF
:1055100070B50C46214A2DED048BB0F8541600EE00
:10552000101AB8EE408A18EE101A914203DD9FED72
:105530001C0A38EE408AB0F88006C0F3812594F842
:10554000240000EE100AB8EE401BB0EE000B01F094
:105550007BF901EE105AB0EE409BB0EE000BB8EEB6
:10556000C11B01F071F989EE002BB4F90200B4F906
:10557000001000EE100A01EE101ADFED0A1AF8EE24
:10558000C00AB8EEC11AB7EEC20B50EE080ABDEC65
:10559000048B80EE810A30EE210A70BD00FEFF46CA
:1055A00000008047333353403EB515461C460A463B
:1055B0004FF6FF734106009403EA45004FF4FA7377
:1055C000090ECDE901030A480223FDF799FA58B103
:1055D0004FF0FF303EBD00BF34F810100A0A42EA17
:1055E000012124F81010401CA842F5DB00203EBD2C
:1055F000EC1A01247FB5130A43EA0222ADF80C200D
:10560000400602240A464FF4FA7503AB8DE83800D1
:10561000000E234601460448FDF724FB002800D075
:10562000E01E04B070BD0000EC1A012438B548F249
:105630000D04054601226B462146FFF7B5FF002801
:1056400007D1BDF80000214640F480522846FFF7FC
:10565000D1FF38BDF8B5054648F20D0448076B4642
:1056600001222146860D2846FFF79EFF002808D11B
:10567000BDF80000214620F4607228463243FFF74F
:10568000B9FFF8BDF0B587B014216846FAF7B5FE4A
:105690002648016841F004010160016801F004013D
:1056A0000591016841F080010160016801F080010D
:1056B0000591016841F001010160016801F00101FB
:1056C0000591016841F008010160016801F00801DD
:1056D0000591016841F00201016000680122144F48
:1056E0001E2100F0020005903846FDF733F9012431
:1056F000694602250620CDE90004CDE90245384679
:10570000FDF71AF800260395182069468DE8510028
:105710003846FDF711F810206946CDE90006054826
:105720000294FDF709F807B0F0BD0000E04402580C
:1057300000000258000802581448002110B5124C0D
:105740000123134A0460C0E90121C0E9033141612A
:105750008161C1610162FDF773F908B1FCF7C9FA13
:105760000A480021FDF702F908B1FCF7C2FA074820
:105770000021FDF727F908B1FCF7BBFABDE810409E
:105780000120FDF749B9000000540040EC1A012443
:105790005C1A60002DE9F04114484FF480060021A6
:1057A000114D33010724C0E90341DA00C0E90513B4
:1057B000C0E90721416277118162C162416381635F
:1057C000C163016441648164C164016541658165AF
:1057D00080E8E000FEF78EFE002803D0BDE8F0412F
:1057E000FCF787BABDE8F08100300140401B01247E
:1057F0001848002110B5164C0C224FF461230460A8
:10580000C0E90131C160C0E904128161C161016276
:1058100041628162FFF709F908B1FCF76AFA0D48A5
:105820000021FFF7DCF808B1FCF763FA0948002112
:10583000FFF7AFF808B1FCF75CFA0648FFF789F804
:10584000002803D0BDE81040FCF753BA10BD00009B
:1058500000440040C81B0124FEE7FEE7704700003B
:105860002DE9F043884681462DED048B9FED821A89
:105870005FF000004FF44072B0EE410A09EB800186
:10588000401CD1ED000A904230EE800AF6DBDFEDDD
:105890007B2AB0EE002AF1EE041AC0EE220AB5EE21
:1058A000003AB7EE005AF1EE002AF3EE0F3A4FF04D
:1058B0007E5730EEC24A30EEA10ADFED715A002465
:1058C00070EE444A5FF00003484600EE103A00EEE6
:1058D000904AF8EEC01AB8EEE00A61EE831A20EEA4
:1058E000032ABDEEE10AFDEEC20A10EE106A10EEC8
:1058F000905A00EE106A00EE905A2A463146B8EEF1
:10590000C06AB8EEE00A71EEC61A32EE402AFCF721
:10591000EBFEB0EE406A711C2A46F0EE468A48461D
:10592000FCF7E2FEB0EE406A6A1C3146F0EE467AC1
:105930004846FCF7D9FEB0EE406A6A1C4846711C26
:10594000B0EE467AFCF7D0FEF0EE450A21EE828AF0
:1059500070EEE16A30EEC26A26EE822A26EE869A60
:1059600026EE216A69EE281A46EE271A42EE071A39
:1059700048EE001A71EEC41A81EEA40A10EE100A65
:10598000B84201DDB0EE600AB5EEC00AF1EE10FAE1
:1059900002D2B0EE410A04E010EE100AB0F1785FD6
:1059A00008DAB6EE002AF0EE411A00EE222AF0EEF6
:1059B000410A3BE010EE100AB0F17B5F0ADAB4EE68
:1059C000006AB0EE602A30EE460AF0EE411A60EE50
:1059D000220A2BE010EE100A2A4988420ADAF5EE74
:1059E000081AB0EE602A30EE610A00EE622A60EE1C
:1059F000221A1BE010EE100A234988420ADAF6EE5A
:105A0000041AB0EE412A30EE610AF0EE601A40EE60
:105A1000620A0BE0B6EE0C2AF0EE601A30EE420A93
:105A2000F0EE410AB0EE602A40EE621A60EEA50A7E
:105A300003EBC4155B1CFCEEE00A21EEA30A62EE48
:105A4000231A10EE901ABCEEC00AFCEEE11A10EE1A
:105A5000100A11EE902AC00240EA41101043802B38
:105A600028F81500FFF630AF641C602CFFF62AAF53
:105A7000BDEC048BBDE8F083000000000000404452
:105A800000007C420000203F0000603F2DE9F0470D
:105A9000454D044689464FF0000A2868C0438007F8
:105AA0000AD0414E283E306820F080603060FCF71C
:105AB00057FF0746B04608E00120BDE8F08700BF69
:105AC000FCF74EFFC01B022867D8D8F80000000181
:105AD000F6D4206829684FF4FE0721F47C313E0299
