:020000040800F2
:1000000018B50024E102000817490008853C0008E3
:1000100015490008890D0008C556000800000000B9
:10002000000000000000000000000000874E0008F3
:10003000AD0D00080000000019490008ED4E000851
:10004000FB020008FB020008FB020008FB0200089C
:10005000FB020008FB020008FB020008FB0200088C
:10006000FB020008FB020008FB020008FB0200087C
:10007000FB020008FB020008FB020008FB0200086C
:10008000FB020008FB020008FB020008FB0200085C
:10009000FB020008FB020008FB020008FB0200084C
:1000A000FB020008FB020008FB020008FB0200083C
:1000B000FB020008FB020008FB020008FB0200082C
:1000C000FB020008FB020008FB020008FB0200081C
:1000D000FB020008FB020008FB020008FB0200080C
:1000E000FB020008FB02000800000000FB02000801
:1000F000FB020008FB020008FB020008FB020008EC
:10010000FB020008FB020008FB020008FB020008DB
:10011000FB020008FB020008FB020008FB020008CB
:10012000FB020008FB020008FB020008FB020008BB
:10013000FB020008FB020008FB020008FB020008AB
:1001400000000000000000000000000000000000AF
:10015000FB020008FB020008FB020008FB0200088B
:10016000FB020008FB020008FB020008FB0200087B
:10017000FB020008FB020008FB0200080000000070
:10018000FB020008FB020008FB020008FB0200085B
:10019000FB020008FB020008FB020008FB0200084B
:1001A000FB020008FB020008FB0200080000000040
:1001B000FB020008FB020008FB020008FB0200082B
:1001C000FB020008FB020008000000000000000025
:1001D0000000000000000000FB020008000000001A
:1001E000000000000000000000000000000000000F
:1001F0000000000000000000FB020008FB020008F5
:10020000FB020008FB02000800000000FB020008DF
:10021000FB020008FB020008FB020008FB020008CA
:10022000FB02000800000000FB02000800000000C4
:10023000FB020008FB02000800000000FB020008AF
:10024000FB020008FB020008FB020008FB0200089A
:10025000FB020008FB020008FB020008FB0200088A
:10026000FB020008FB020008FB020008FB0200087A
:10027000FB020008FB020008FB020008000000006F
:10028000FB020008FB020008FB020008FB0200085A
:1002900000000000FB020008FB0200080000000054
:1002A00000000000FB020008FB020008FB0200083F
:1002B000FB020008FB020008FB020008FB0200082A
:1002C000FB020008FB020008FB020008DFF80CD06C
:1002D00000F060FA00480047C16A000818B5002421
:1002E0000648804706480047FEE7FEE7FEE7FEE7D0
:1002F000FEE7FEE7FEE7FEE7FEE7FEE7894F0008C0
:10030000CD0200082DE9F05F0546002092469B468D
:1003100088460646814640241BE02846414647461B
:10032000224600F057F853465A46C01A914110D35E
:1003300011461846224600F03EF82D1A67EB0108D8
:100340004F4622460120002100F035F817EB000946
:100350004E41201EA4F10104DFDC484631462A4606
:100360004346BDE8F09FD2B201E000F8012B491EE0
:10037000FBD270470022F6E710B513460A46044642
:100380001946FFF7F0FF204610BD30B50B46014679
:1003900000202022012409E021FA02F59D4205D324
:1003A00003FA02F5491B04FA02F52844151EA2F1CE
:1003B0000102F1DC30BD202A04DB203A00FA02F110
:1003C000002070479140C2F1200320FA03F3194343
:1003D00090407047202A04DB203A21FA02F00021E5
:1003E000704721FA02F3D040C2F120029140084345
:1003F000194670472DE9FE4F804681EA0300C00F81
:100400000C46009021F0004123F00045B8EB0200BB
:10041000A94105D24046214690461C460B4602465D
:1004200023F00040104347D0270DC7F30A00C3F361
:100430000A510290401A019040286BDAC3F313006E
:1004400040F4801B0098924620B10023D2EB030AAF
:1004500063EB0B0B01985946C0F140025046FFF781
:10046000AAFF06460D4650465946019A00F0A4F9E7
:1004700010EB08006141002487EA115284EAE77317
:100480001A4340D0009A62B3019A012A4FEA0752F8
:1004900015DC001B61EB02014FF0004202EA07523B
:1004A000CDE90042001C41F5801132462B4600F098
:1004B000A4F903B0BDE8F08F40462146F9E7001BE0
:1004C00061EB0201001C41F5801300185B4120180C
:1004D000A2F5001747EB030140EAD570B6196D414C
:1004E00011E06D084FEA360645EAC0754FEA07523B
:1004F000001B61EB0201001C41F5801149084FEA25
:1005000030000019514132462B4603B0BDE8F04F90
:1005100000F064B90098012240000023D0EB0202F1
:1005200063EBE073009821464FEAE074B8EB0000FB
:1005300061EB0401E9E783F000435BE781F00041F0
:1005400058E72DE9FE4F81EA030404F0004421F04E
:10055000004100944FF0000B23F0004350EA0104E7
:100560005ED052EA03045BD0C3F30A54C1F30A55C8
:100570002C44A4F2F3340194A0FB0254C1F3130100
:1005800041F48011C3F3130343F4801301FB0244CD
:1005900000FB034E840A970A44EA815447EA8357D2
:1005A000A4FB076802958D0A05FB07854FEA932C8B
:1005B00004FB0C542705029D4FEA065847EA1637FC
:1005C000B5EB08056EEB070C870E920E47EA811714
:1005D00042EA8312A7FB0201B6EB0B0164EB0004B5
:1005E0002B0D43EA0C335E1844EB1C50DA4651469F
:1005F000E7FB0201C5F313044FEA0B3343EA14533C
:100600004FEA0432019C43EA0603A4F10C0402946D
:10061000009CCDE900B400F0F0F803B0BDE8F08F25
:1006200000200146F9E72DE9F04D81EA030404F0CA
:10063000004B21F0004514464FF0000A23F0004122
:1006400050EA050220D054EA01021DD0C5F30A5732
:100650000246C5F31303C1F31300C1F30A5640F475
:10066000801543F48013A7EB0608101BD64608F24A
:10067000FD3873EB050002D308F1010801E0921880
:100680005B41B8F1000F03DA00200146BDE8F08DB0
:1006900000204FF48011064684460EE0171B73EBD2
:1006A000050705D3121B63EB050306434CEA010C57
:1006B00049084FEA300092185B4150EA0107EDD13A
:1006C00052EA030012D082EA040083EA05010843DB
:1006D00005D0101BAB4106D20122002306E0002208
:1006E0004FF0004302E06FF0010253101AEB0600D6
:1006F0004CEB085110EB0A0041EB0B01BDE8F04D4B
:1007000000F06CB870B521F0004303430CD0C1F386
:100710000A550024D5EB040564EB0403D617AD1A83
:10072000B34102DB0020014670BD201841EB0251AD
:1007300070BDC1F30A52C1F3130140F2FF3341F41B
:1007400080119A4202DA00200146704740F233439A
:100750009A42A2F2334202DC5242FFF73BBEFFF75D
:100760002ABE000030B5041E71F1000404DB4FF016
:100770000044404264EB0101141E73F1000405DBE8
:100780001C464FF00043524263EB0403994208BFFA
:10079000904230BD064C074D06E0E06840F0010392
:1007A00094E8070098471034AC42F6D3FFF792FD67
:1007B000D88F0008F88F0008202A06DBCB17203AD4
:1007C00041FA02F043EAE07306E041FA02F3D04056
:1007D000C2F12002914008431946704710B5141E1B
:1007E00073F1000408DA401C41F1000192185B41EA
:1007F0001A4301D120F0010010BD2DE9F04D9246C1
:100800009B4611B1B1FA81F202E0B0FA80F22032D7
:100810009046FFF7D0FD04460F4640EA0A0041EA41
:100820000B0153465A46084313D0114653EA0100C0
:1008300019D0C8F140025046FFF7CCFD05460E46E0
:10084000504659464246FFF7B6FD084305D0012001
:1008500004E020463946BDE8F08D0020054346EA15
:10086000E0762C4337430A986305E40AA0EB0800BE
:100870000022FD0A44EA47540A3002D5002001460E
:10088000E9E7010510196941DDE9084500196941E9
:10089000BDE8F04DA2E770B58C1810F8015B15F0BB
:1008A000070301D110F8013B2A1106D110F8012BE2
:1008B00003E010F8016B01F8016B5B1EF9D12B0707
:1008C00005D40023521E0DD401F8013BFAE710F8BD
:1008D000013BCB1A921C03E013F8015B01F8015BAA
:1008E000521EF9D5A142D8D3002070BD2DE9F74F93
:1008F00006460D4600242DED020B2DED0C8B88B025
:10090000B0EE608AF0EE40BAB0F88206029030464F
:1009100003F05CFEF0EE408A2946304603F0FCFD11
:10092000B0EE409A9FEDFEAAB1EE001B39EE0A0A26
:10093000B7EEC00A04F018FFF7EEC09B38EE0A0AC3
:10094000B1EE001BB7EEC00A04F00EFF95ED0B2AC6
:10095000B7EE008ADFEDF32AB7EEC00BF249F0EEF6
:10096000480A30EE691ADFEDF1AAC1EE2B1AB0EE9B
:10097000601A02EE221A80EE812A30EE61BA8DED05
:10098000042ACDED050AB5F9400095ED0D1A00EEEB
:10099000100AF8EEC01AB0EE600A01EE210A8DEDE1
:1009A000060AB5F94220D5ED0E1A101A01EE100A0A
:1009B000B8EEC11A41EE810A20EE800A8DED070AD9
:1009C000B6F8140600EE100AB8EE400A10EE100A4F
:1009D000884201DD30EE6A0AB6F810268027B5F9A4
:1009E000140000EE902AB6F880366A46B8EE601A17
:1009F00000EE900A07EA531A8DED001AF8EEE00AAD
:100A0000B6F8500680EE80CA00EE100AB8EE400A32
:100A10008DED010A02EB84008B4690ED000A10EE8A
:100A2000103A8B4203DD30EE6A0A80ED000A20EEB8
:100A30000C0A641C022C80ED000AEBDB95ED082A01
:100A4000F3EE091A05F500509FEDB90AD5ED072A16
:100A50009DED001AF0EE480A79EE61CA05F52051C5
:100A60000391B0F94C1A38EEC0DAB0EE600A01EE2C
:100A7000901A02EE2C0A42EE8D0AF8EEE11A60EEB0
:100A8000211A01EEE01A8DED001A95F82520524545
:100A90000ED1B0F94E0ADDED011A01EE100AB8EEE2
:100AA000C11A20EE010A40EE601ACDED011A12E0E3
:100AB000B0F94E1A039801EE901A9DED011A90EDCF
:100AC000942AF8EEE11A71EE821A21EE800A00EE05
:100AD000601A8DED011A002404F1020CE0174FEAB0
:100AE000EC7804EB906204EBD06192115242491110
:100AF00001EB420104EB9077E31C04EBD4720CEBA6
:100B0000987052104FEAE378524204F1010903EB66
:100B10009878801004EB42024FEAE97C49B24A40DF
:100B2000A0EBA80809EB9C704FFA82FE4A42012311
:100B300008EBA00003EB4202A0EBA7005043BAF180
:100B4000000F42B27DD07046B6F88236834279D12A
:100B500036F8140000EE100AB8EE400A10EE100A43
:100B6000584501DD30EE6A0A05EB840000F5805738
:100B700005EB4403D7ED911A60EE0C0AB0EE480A7B
:100B8000B3F9443C00F5E05C01EEAC0A01EE903AAA
:100B90009CED912AB0EE481AF8EEE11A02EE0D1A19
:100BA00095F8257020EE210A574540EE410A14D0F1
:100BB00000EE102A4FF0FF37039B07EB4101B8EE20
:100BC000C02A00EE101AD3ED961A93ED951AB8EEDE
:100BD000C00A41EE800A41EE420A029995ED060AEA
:100BE000F0EE489A05EB8101029A01F52051C0EE22
:100BF000AB8AD0ED110A91ED911A95ED0A2A68465B
:100C000040EE410AB0EE691A00EB820002EE2C1AA7
:100C1000D0ED001A20EE819A40EE618AB7EEC90A43
:100C2000B0EE081B04F0A0FDB0EE681A09EE0B1A36
:100C3000B7EEC11A20EE010BB7EEC00BB7EEC00A3B
:100C400001E02FE08FE005F00BFA05F009FA95EDD1
:100C50000C1AB7EEC12A20EE020BB7EEC00BF0EE75
:100C6000690A41EE4A0A09EE200AC8EE800A30EE0F
:100C70008B0AB7EEC00A05F0F3F905F0F1F99FED24
:100C80002D1BB5F93E0030EE411B00EE900AF8EE48
:100C9000E00AB7EEC10BF4EEC00AF1EE10FA03DD84
:100CA00000201CE008464FE7B5F9400000EE900A2E
:100CB000F8EEE00AF4EEC00AF1EE10FA01DD0120D0
:100CC0000DE0B5F9420000EE900AF8EEE00AF4EE0D
:100CD000C00AF1EE10FA01DD022000E0032004AAB0
:100CE00005EB400105EB800302EB8000B1F93C10FD
:100CF00093ED0B1A00EE901AD0ED001AF8EEE00A10
:100D000030EE600A61EE890A41EE009A29EEA00AEF
:100D1000C8EE800A30EE8B0AB7EEC00A0EE0000083
:100D2000339388430000204200FEFF4600008047C6
:100D300033335340000000606612714005F090F9B3
:100D400005F08EF99FED0D2B9FED0E1A189930EEE0
:100D5000420BB7EEC00B20EE010ABCEEC00A10EE4B
:100D6000100A21F81400641CB4F5407FFFF6B4AEFD
:100D700008B0BDEC0C8B05B0BDE8F08F666666660A
:100D8000661271400000C842FEE7401A00F12101DE
:100D900003296FF0050205D3411C032902D31F3834
:100DA000032801D21046704700207047704772B682
:100DB000FEE700002DE9F34FB0F840101E23BBB052
:100DC000B0F842B001F00F090446C1F3031203EB7F
:100DD000113AC1F303210020CDE938120DF180084A
:100DE00004EB40018200401CB1F8441001F00F03F5
:100DF0000F0BC1F30315C1F3032608EB820101F1C8
:100E0000040148F82230062881E8E000E8DB0020F1
:100E100058F82010072902DD103948F82010401C2E
:100E20001828F5DB0020694604EB40038200401CD3
:100E3000B3F85030082803F00F054FEA133CC3F312
:100E40000316C3F3032701EB820303F1040341F804
:100E5000225083E8C010E7DB5FF0000051F820204B
:100E6000072A02DD103A41F82020401C2028F5DB3B
:100E70000120002500FA09F95FF000063C9A06EB14
:100E80004510274904EB400302EB8007B3F88000CC
:100E9000C0F3051000EE100AB8EE400A10EE100A7A
:100EA00087ED110A884205DDDFED1E0A30EE600A8B
:100EB00087ED110A58F8252038985DF82610B0EE15
:100EC000402A824039985A4400EE909A00EE10AAC7
:100ED00081405018F8EEE00AB8EE401B00EE100A10
:100EE00062EE200AB8EEC00A30EE200A87ED110A41
:100EF000B0EE000B04F038FC97ED111A761C202E92
:100F0000B7EEC11A81EE002BB7EEC20B87ED110AC6
:100F1000B4DB6D1C182DAFDB3DB0BDE8F08F0000D9
:100F20000000F8410000804230B5838A8024B0F888
:100F30006A20224D04EA131002F03F0400EE104A2A
:100F400080F08003B8EE400A10EE100AA84203DDDC
:100F5000DFED1B0A30EE600AC2F38410194C00EE7C
:100F6000900A9FED191ADFED191AF8EE600A20EECB
:100F7000011A10EE900AA04201DD70EEE10AD00ADB
:100F800000EE100AB6EE002AB8EE400A60EE820AC1
:100F900010EE100AA04201DD30EE610AF4EE001AF4
:100FA00001F5205281F8253020EE210A82ED941AB5
:100FB000C2ED950A82ED960A30BD00000000F841AE
:100FC00000008042000070410000803D00000042AF
:100FD0002DE9F04106460D461B212DED048BB0F89E
:100FE0004000B6F8742001EB1031C2F30900B0F5EF
:100FF000007F60F30F0403DBA0F5806060F30F0453
:10100000900A1F2860F31F4402DD403860F31F443C
:10101000B6F87230484A04EB2440C3F3090300EEEB
:10102000103A60F31F44B8EE408A18EE100A90425E
:1010300003DD9FED420A38EE408A00EE101AB8EE4A
:10104000401BB0EE000B04F08FFBB7EEC82AB6F8D9
:1010500072003B49800A82EE001B00EE100AB8EED7
:10106000400A10EE100A8842F7EEC18B03DDDFED77
:10107000350A30EE600A9FED341AF7EE000A96F852
:10108000760040EE010A00EE100A304FDFED309A94
:10109000B8EE408AB0EE680A18EE100A20EE809A88
:1010A000B84201DD38EE698A96F87000C0F303108B
:1010B000083000EE100AB8EE401BB0EE000B04F052
:1010C00053FBB7EEC81A81EE002BB7EEC20B85EDCD
:1010D000080AB6F87600000A00EE100AB8EE408A58
:1010E00018EE100AB84201DD38EE698AB6F87000D1
:1010F000C0F3032000EE100AB8EE401BB0EE000B68
:1011000004F032FBB7EEC81A05F5205005F5005182
:10111000221481EE002BB7EEC20B85ED070AC0ED5D
:10112000918A80ED929AA1F84C4AA1F84E2ABDEC22
:10113000048BBDE8F08100000080FF430000804484
:101140000000F841000080420000003C0000FE4228
:10115000000080432DE9F0410E46844600214FF601
:10116000FF730C460D46084606EB410202F500529D
:101170004F1CB9B2A2F85C3A0529A2F8663AF3D33B
:1011800000214FF4407300BF0CEB4102B2F8802005
:10119000BAB1D20707D006EB450202F500526D1C2A
:1011A000ADB2A2F8661A491C89B2994203D2052C45
:1011B00001D2052DE8D3042C0CD96FF00200BDE854
:1011C000F08106EB440202F50052641CA4B2A2F8BE
:1011D0005C1AE8E7042D02D96FF00300EFE761190C
:1011E000042902D96FF00400E9E7002317E000BFEB
:1011F00006EB43015F1C01F500580CE006EB4700CD
:1012000000F50050B0F85C1AB8F85C0AFFF7BDFDB5
:101210000028D4D17F1CA742F0DB5B1C9BB2A34209
:10122000E6D3002317E000BF06EB43015F1C01F586
:1012300000580CE006EB470000F50050B0F8661AC5
:10124000B8F8660AFFF7A1FD0028B8D17F1CAF42AD
:10125000F0DB5B1C9BB2AB42E6D3002317E000BF80
:1012600006EB4301002701F500580CE006EB4700B0
:1012700000F50050B0F8661AB8F85C0AFFF785FD73
:1012800000289CD17F1CAF42F0DB5B1C9BB2A342C9
:10129000E6D394E7B0F96000B0F5004F00DB00B290
:1012A00088827047B0F878000A4A000A00EE100AF7
:1012B000B8EE400A10EE100A904203DDDFED060A98
:1012C00030EE600ADFED050A20EE200A81ED0A0A01
:1012D000704700000000FE4200008043000000391B
:1012E000F0B530F87E4F00252D4E6FF027028A872B
:1012F0002A46CD8710F80459C4F30134012304EBC6
:101300008404C5F30315A1F8405087886400DFED1D
:10131000250A15FB04F5C7F30327A1F8405017FB76
:101320000454A1F842400578047900EE105A04F004
:101330000F040834B8EE400AA34081ED0B0A04887C
:10134000240A00EE104AB8EE400A81ED0C0A8478B7
:1013500000EE104AB8EE400A81ED0D0A4088000AFE
:1013600000EE100AB8EE400A81ED0E0A01EB820091
:1013700090ED0B0A10EE104AB44203DD30EE600A25
:1013800080ED0B0A00EE103A90ED0B1A521CB8EEED
:10139000C00A042AC1EE001AC0ED0B1AE6DBF0BD4C
:1013A0000000FE42000080432DE9F34F0646B0F8EE
:1013B0006C00002581B040F307217F2900DD49B290
:1013C0008DF8001040B27F2800DD40B28DF8020099
:1013D000B6F86E0040F307217F2900DD49B28DF891
:1013E000011040B27F2800DD40B28DF8030096F86E
:1013F00070200120DFF8CCA0EB46C2F3031102F00D
:101400000F0201F1080900FA02F8002404EB45116B
:10141000C81701EBD17201EB906301EBD067981113
:1014200040427B1122F0010203EB40008A1A02EBDA
:10143000400006EB4103C2B2029800EB810793F82B
:10144000800007F58057C0F3420000EE100AB8EEA6
:10145000400A10EE100A87ED910A504505DDF2EEC4
:10146000000A30EE600A87ED910A00EE108A00EE65
:10147000909A1BF90210B8EEC00AB8EE601B97ED07
:10148000912A00EE901A22EE000AF8EEE00A30EE01
:10149000800A87ED910AB0EE000B04F065F997ED34
:1014A000911A641C202CB7EEC11A81EE002BB7EE06
:1014B000C20B87ED910AA9DB6D1C182DA5DBBDE8D9
:1014C000FE8F0000000040402DE9F843B0F868307E
:1014D00000258946190B072900DD10398DF8001009
:1014E000C3F30322072A00DD103A8DF80220C3F36C
:1014F0000311072900DD10398DF8011003F00F02E8
:10150000072A00DD103A8DF80320B0F87000E84695
:10151000C0F303265FF0000404EB451000EE106AF0
:10152000C11700EBD07200EB916300EBD1679B1108
:101530005B4222F001017A1102EB4302411A01EBF6
:101540004201C9B209EB8007B8EE401B18F901004F
:1015500007F5E05700EE900AB8EEE00A87ED910A31
:10156000B0EE000B04F000F997ED911A641C202CEA
:10157000B7EEC12A82EE001BB7EEC10B87ED910AD0
:10158000CADB6D1C182DC5DBBDE8F8832DE9F34FD0
:10159000028C0021B0F92230B8B002F00F0AB3F586
:1015A000004FC2F30319C2F3032E00DB1BB220AAC3
:1015B00000EB41048D00491CA48C062904F00F06A1
:1015C0004FEA143CC4F30317C4F3032802EB850469
:1015D00004F1040442F8256084E88011E8DB00216E
:1015E000934652F82140072C03DD103C5A464BF835
:1015F0002140491C1829F3DB0022694600EB420414
:101600009500521C248E082A04F00F064FEA143C61
:10161000C4F30317C4F3032801EB850404F10404A5
:1016200041F8256084E88011E8DB002251F822406F
:10163000072C02DD103C41F82240521C202AF5DB29
:10164000002400225BF8245005FA0EF502EB441644
:10165000DDF8E4C000EB46070CEB4606B7F88070F7
:10166000BF0AA6F8447C1F2F02DD403FA6F8447C49
:10167000BFB231F8228007FA0AF7521C202A08FA72
:1016800009F805EB080C1F446744A6F8447CDDDB31
:10169000641C182CD5DB3AB0BDE8F08F70B50C4651
:1016A0000546254A2DED028BB0F86410880A00EE3D
:1016B000100AB8EE400A10EE100A904203DDDFED8A
:1016C0001F0A30EE600A9FED1E1AC1F309001D4982
:1016D00000EE900A20EE018AB8EE600A10EE100AC1
:1016E000884203DDDFED180A30EE600AF4EE000AEE
:1016F000B5F86260B2EE0C1B60EE208AB0EE000B13
:1017000004F032F8288CB2EE002B00F4704001EEA9
:10171000100A84ED018AC4ED028AB8EE411BA6814D
:1017200081EE003B33EE020BB7EEC00B84ED040AF2
:10173000BDEC028B70BD00000000F841000080424B
:10174000000080390080FF430000804490F878005A
:10175000094A00EE100AB8EE400A10EE100A904254
:1017600003DDDFED060A30EE600ADFED050A20EE4C
:10177000200A81ED060A70470000FE420000804307
:101780000000003DB0F86620100A7F2801DDA0F5BA
:101790008070D2B24FF440434001088003EB421204
:1017A0004A807047002901DA002102E0202900DB8D
:1017B0001F21002A01DA002202E0182A00DB17228A
:1017C00001EB421100EB810090ED000A7047000030
:1017D00070B5044600F022F90546601C02D00448AA
:1017E0000078044400F01AF9401BA042FAD370BDFF
:1017F00080A900242DE9F84F03247A4D00234FF0EF
:1018000001094FF0B04B4FF00F0AE4E009FA03F67C
:10181000324078D00F7907F00307012F01D0022F53
:101820001AD187684FEA430ED1F80CC004FA0EF8BB
:1018300027EA08070CFA0EFC4CEA070CC0F808C0AF
:10184000476891F804C0B743CCF3001C0CFA03FCC2
:101850004CEA070CC0F804C00E79F643B6070BD06B
:10186000C6684FEA43088F6804FA08FC26EA0C06AB
:1018700007FA08F73743C7600E7906F00306022E11
:1018800012D1DE080F694FEA437C00EB8606B646AC
:10189000366A4FEADC6C0AFA0CF807FA0CF726EA0B
:1018A00008063743CEF820700F7906684FEA4308E0
:1018B00007F0030704FA08FC07FA08F726EA0C0603
:1018C000374307604E6816F4403F1CD0464E3768D9
:1018D00047F00207376036689F0706F00206009659
:1018E00023F0030606F1B046B6463F0FD6F808646B
:1018F000DFF8F8800AFA07FC404526EA0C0603D117
:101900004FF0000C3AE065E0DFF8E4C0604502D13A
:101910004FF0010C32E0DFF8DCC0604502D14FF03F
:10192000020C2BE0DFF8D0C0604502D14FF0030C71
:1019300024E0DFF8C8C0604502D14FF0040C1DE080
:10194000DFF8BCC0604502D14FF0050C16E0DFF8AF
:10195000B4C0604502D14FF0060C0FE0DFF8A8C01C
:10196000604502D14FF0070C08E0DFF8A0C06045E9
:1019700002D14FF0090C01E04FF00A0C0CFA07FC01
:101980004CEA060CCEF808C44F68DBF80060FF0292
:1019900026EA020600D516435F46CBF80060D1F870
:1019A00004C0DBF804605FEA8C2C26EA020600D54E
:1019B00016437E606E684F6826EA0206BF0300D5B4
:1019C00016436E602E684F6826EA0206FF0300D5B4
:1019D00016432E605B1C0A6832FA03F67FF416AFDA
:1019E000BDE8F88F80000058F44402580000025807
:1019F0000004025800080258000C02580010025857
:101A00000014025800180258001C02580024025802
:101A10000AB1816170470904FBE700000148806852
:101A20007047000080A9002430B590F84120202A9A
:101A300024D190F84020012A20D0012380F84030A2
:101A4000242280F84120202300240268156825F014
:101A5000010515600268156825F480551560026857
:101A600015680D43156001680A6842F001020A60BA
:101A700080F8413080F84040002030BD022030BD69
:101A800030B590F84120202A22D190F84020012A38
:101A90001ED0012380F84030242280F841202024E9
:101AA00000250268136823F00103136002681368BD
:101AB00023F4706343EA0121116001680A6842F06F
:101AC00001020A6080F8414080F84050002030BD9B
:101AD000022030BD074908B50A6842F002020A60D8
:101AE000096801F00201009103490A6802430A6093
:101AF00008BD0000F44402580404005870B5040006
:101B000004D094F84100002510B106E0012070BD1A
:101B1000204684F8405000F0AFF9242084F84100BA
:101B20002068016821F001010160D4E9001020F073
:101B3000706008612068816821F400418160E0687C
:101B400021680128A06830D040F404408860E06833
:101B50000228206841682BD021F400614160206890
:101B60002021154A4368134343602068C26822F469
:101B70000042C26054F8106B0DCC104340EA0320C1
:101B8000F06054F81C3CD4E900021043186054F88B
:101B90001C0D026842F001020260656484F8411085
:101BA000256384F84250002070BD40F40040CDE72A
:101BB00041F40061D2E70000008000022DE9FF4FF0
:101BC00083B0044690F841009A469346DDE91087B9
:101BD000DDF84890202874D15FEA080014D09FB146
:101BE00094F8400001286CD0012084F84000FFF7F1
:101BF00015FF0122064619230090D103204602F06A
:101C000057F9002871D103E04FF4007060646CE074
:101C10000025C4F82480222184F84110402084F853
:101C2000420065646785534665635A4604992046B9
:101C3000CDE9009602F0C0F810B184F8405054E0AD
:101C4000618DFF2734484FF08078FF294FF0007AEC
:101C500004D927853A464346009005E0618D5346F6
:101C60002185009094F828202046049902F008F974
:101C700000224B4604212046009602F019F9A0BB31
:101C80002068616A406A0870606A401C6062208D4A
:101C9000401E81B22185608D401E6085608DD8B167
:101CA000D1B900224B4680212046009602F000F96F
:101CB000D8B9608DFF2805D927853A464346009557
:101CC00006E026E0608D53462085009594F8282094
:101CD0002046049902F0D4F8608D0028C8D132461D
:101CE0004946204602F022F918B1012007B0BDE8AC
:101CF000F08F21682020094AC86121684B68134091
:101D00004B6084F8410084F84250002084F8405031
:101D1000ECE70220EAE700000024008000E800FE73
:101D20002DE9FF4F83B0044690F841009A46934650
:101D3000DDE91087DDF84890202871D15FEA0800BE
:101D400014D09FB194F84000012869D0012084F894
:101D50004000FFF763FE0122064619230090D103DD
:101D6000204602F0A5F800286ED103E04FF4007081
:101D7000606469E00025C4F82480212184F84110C2
:101D8000402084F8420065646785534665635A467F
:101D900004992046CDE9009602F040F810B184F88D
:101DA000405051E0608DFF274FF08078FF284FF0C2
:101DB000007A04D927853A464346009505E0608DB0
:101DC00053462085009594F828202046049902F077
:101DD00057F832464946204602F0D4F8A0BB606A64
:101DE000216800788862606A401C6062608D401ED5
:101DF0006085208D401E80B22085618DD9B1D0B91B
:101E000000224B4680212046009602F051F8D8B9B6
:101E1000608DFF2805D927853A464346009506E0A0
:101E200026E0608D53462085009594F828202046B2
:101E3000049902F025F8608D0028CAD1324649463F
:101E4000204602F073F818B1012007B0BDE8F08F0A
:101E500020682021074AC16120684368134043601D
:101E600084F8411084F84250002084F84050ECE798
:101E70000220EAE700E800FE10B5B4B004461421E1
:101E80002EA8FEF777FAB8216846FEF773FA1949CB
:101E9000206888422CD10020209008210446CDE9FA
:101EA0000010684600F042FA08B1FEF780FF1248C1
:101EB000016841F00201016000680DF1B80C1221C7
:101EC00000F002003390C02004238CE813000222AB
:101ED0000A48CDE931232EA9FFF78CFC06480830CB
:101EE000016841F400110160006800F400103390B3
:101EF00034B010BD00540040E044025800040258C1
:101F000002488168027811448160704780A90024EA
:101F1000032010B500F078F801F01AF80F4A1049C4
:101F200014681368C4F3032203F00F038A5CC95CCE
:101F300002F01F0201F01F01D0400A4A20FA01F10D
:101F40001160094908600F2000F010F808B1012065
:101F500010BD00F02BF8002010BD000018440258FE
:101F6000328F000890A900248CA9002470B50D4D73
:101F700004462878A0B14FF47A71B1FBF0F00A4919
:101F80000968B1FBF0F001F02FFD48B9102C07D221
:101F900000222146501E00F017F800206C6070BD32
:101FA000012070BD80A900248CA90024054808B533
:101FB000016841F002010160006800F00200009039
:101FC00008BD0000F44402580E4BF0B41B680D46E7
:101FD000C3F30223C3F10706042E00D90426191DFA
:101FE000072901D2002300E0DB1E012404FA06F1D8
:101FF0009C40491E2940641E994014402143F0BC76
:1020000003F09EBB0CED00E0064900F0070210B59E
:102010004FF6FF040868044B204040EA02201843B2
:10202000086010BD0CED00E00000FA05134970B522
:102030000A68D243520705D5096801F007018142B9
:1020400013D118E00A6822F0070202430A60FFF782
:10205000E5FC0A4D4FF47A760446083D07E000BFE0
:10206000FFF7DCFC001BB04201D9012070BD2868DD
:10207000C0438004F4D4002070BD00000C48025816
:1020800010B500F01FFF05490968054AC1F30211A8
:10209000515C01F01F01C84010BD000020440258EF
:1020A000328F0008494930B5484C0B1D0A6814347A
:1020B00009681D68246802F00303C5F30012C1F328
:1020C0000531C4F3CC04002914FB02F200EE102AFF
:1020D000F8EE400A75D03F4A9FED3D1AB7EE000A70
:1020E0006BB1DFED3D1A012B01D0022B64D002EE63
:1020F000101A1168F8EE422A81EEA22A21E0334C30
:10210000283C23689B0612D5344B246801EE901AB4
:102110001168C4F3C104F8EE612AE34001EE903A7D
:10212000C1F30801F8EE611A81EEA22A0BE001EE7C
:10213000901ADFED2B2A00BFF8EE611A116882EECB
:10214000A12AC1F3080101EE901A1168F8EE611A94
:1021500040EE811A71EE800A62EE200AC1F3462138
:1021600001EE101AB8EE411A31EE001AC0EE811AD3
:10217000BCEEE11A80ED001A1168C1F3064101EED0
:10218000101AB8EE411A31EE001AC0EE811ABCEEF8
:10219000E11A80ED011A1168C1F3066101EE101A0F
:1021A000B8EE411A31EE000A80EE801ABCEEC10A88
:1021B00080ED020A30BD04E001EE901ADFED092A3D
:1021C000BAE70021016041608160F3E728440258CA
:1021D00000000039384402580024744A0090D003AB
:1021E0000024744C20BCBE4B494930B5484C0B1DF3
:1021F0000A681C3409681D68246802F00303C5F3EB
:102200000022C1F30551C4F3CC04002914FB02F2EF
:1022100000EE102AF8EE400A75D03F4A9FED3D1AB5
:10222000B7EE000A6BB1DFED3D1A012B01D0022B96
:1022300064D002EE101A1168F8EE422A81EEA22A4A
:1022400021E0334C283C23689B0612D5344B24688C
:1022500001EE901A1168C4F3C104F8EE612AE3405C
:1022600001EE903AC1F30801F8EE611A81EEA22A5C
:102270000BE001EE901ADFED2B2A00BFF8EE611A99
:10228000116882EEA12AC1F3080101EE901A1168CB
:10229000F8EE611A40EE811A71EE800A62EE200AB1
:1022A000C1F3462101EE101AB8EE411A31EE001AC0
:1022B000C0EE811ABCEEE11A80ED001A1168C1F37C
:1022C000064101EE101AB8EE411A31EE001AC0EEC6
:1022D000811ABCEEE11A80ED011A1168C1F30661A2
:1022E00001EE101AB8EE411A31EE000A80EE801AA3
:1022F000BCEEC10A80ED020A30BD04E001EE901A86
:10230000DFED092ABAE70021016041608160F3E74F
:102310002844025800000039404402580024744AFE
:102320000090D0030024744C20BCBE4B2DE9FE4F1E
:102330000546DFF800A450F8081B0024FD4FC943F0
:10234000019005F1280026460AF1240A00900801B0
:102350001DD4686E50B1B0F5801F0CD0B0F5001FD1
:102360000ED0B0F5401F1ED001240FE0386840F4B5
:102370000030386017E00198022102F0E3FB03E02F
:102380000098022102F06EFC04000CD0264628883A
:10239000C043C00523D4A86D05281ED2DFE800F095
:1023A0000C11161B1B006A6EDAF8001021F44011A4
:1023B0001143CAF80010EAE7386840F4003038608A
:1023C00009E00198002102F0BDFB03E00098002124
:1023D00002F048FC0446C4B100E0012426462888E7
:1023E000DFF85083C04308F12C0840052FD4D5F8FE
:1023F000A400B0F5C00F28D010DCB8B1B0F5001FB4
:1024000019D0B0F5800F0FD11AE0AA6DDAF80010DC
:1024100021F007011143CAF80010E0E7B0F5000F02
:1024200013D0B0F5200F10D001240FE0386840F42D
:102430000030386009E00198002102F083FB03E0DE
:102440000098002102F00EFC044694B1264628882C
:10245000C043000530D4D5F8A800B0F1407F29D0A2
:1024600011DCC0B1B0F1807F1AD0B0F1007F10D183
:102470001BE0D5F8A420D8F8001021F46001114326
:10248000C8F80010E3E7B0F1806F13D0B0F1A06F8F
:1024900010D001240FE0386840F40030386009E0C3
:1024A0000198002102F04EFB03E00098002102F0A9
:1024B000D9FB044694B126462868DFF878B2C043B9
:1024C0000BF1200B80011FD4E86CD8B110280FD07D
:1024D000202812D0302815D0012414E0D5F8A820E7
:1024E000D8F8001021F0E0611143C8F80010E3E7CC
:1024F000386840F40030386004E00198022102F0AE
:1025000021FB044674B126462888C043C0042BD45E
:10251000E86DB0F5005F20D00DDCA0B1B0F5805FB4
:102520000FD115E0EA6CDBF8001021F03001114307
:10253000CBF80010E8E7B0F5405F13D0B0F5804F5E
:1025400010D001240FE0386840F40030386009E012
:102550000198002102F0F6FA03E00098002102F051
:1025600081FB04468CB126462888C043800429D4C8
:10257000286EB0F5403F23D010DC08B3B0F5803FA3
:1025800014D0B0F5003F0FD115E0EA6DDAF8001075
:1025900021F4E0411143CAF80010E5E7B0F5802FBF
:1025A0000ED0B0F5A02F0BD001240AE00198012134
:1025B00002F0C8FA03E00098012102F053FB044640
:1025C00094B126462888C04340042AD4D5F8AC00EC
:1025D000B0F1405F23D010DC08B3B0F1805F14D0BD
:1025E000B0F1005F0FD115E02A6EDAF8001021F487
:1025F000E0211143CAF80010E4E7B0F1804F0ED09B
:10260000B0F1A04F0BD001240AE00198012102F0A3
:1026100099FA03E00098012102F024FB044674B10A
:1026200026462888C04300041FD4E86ED8B1B0F114
:10263000805F0ED0B0F1005F10D0012414E0D5F817
:10264000AC20D8F8001021F0E0411143C8F8001088
:10265000E7E7386840F40030386004E00198012171
:1026600002F070FA044674B126462868C043C001DF
:102670001ED4A86CD0B101280ED0022811D0032896
:1026800014D0012413E0EA6EDAF8001021F0405172
:102690001143CAF80010E8E7386840F400303860A9
:1026A00004E00198022102F04DFA04466CB126467E
:1026B0002868C043400255D41F48016841F4807126
:1026C0000160FFF7ABF981460EE0AA6CDBF8001061
:1026D00021F003011143CBF80010E9E7FFF79EF961
:1026E000A0EB090064283BD813480068C005F5D565
:1026F000BCBBDFF84090B5F8B01009F14409D9F837
:10270000000001F4407100F44070884211D0D9F803
:102710000010D9F8002021F4407142F48032C9F849
:102720000020D9F8002022F48032C9F80020C9F82E
:10273000001003E02C44025800480258D5F8B000BD
:10274000B0F5807F19D1FFF769F9029011E000BF61
:10275000FFF764F90299411A41F28830814208D9A1
:10276000032426462878DFF81494C043C00721D0FC
:102770003CE0D9F800008007EAD5D5F8B010C1F3E5
:1027800001200328FE480DD0016821F47C5101602E
:10279000B5F8B020D9F80010C2F30B021143C9F804
:1027A0000010DFE7F74A036802EA111223F47C51B4
:1027B0001143ECE7A86F182816D005DCA0B1082853
:1027C00008D0102804D10AE020280DD028280BD0EA
:1027D00001240AE00198012102F0B4F903E0009815
:1027E000012102F03FFA044664B126462878C0432E
:1027F00080071ED4686F062819D2DFE800F0160C97
:1028000011161616AA6FD9F8001021F038011143DD
:10281000C9F80010EAE70198012102F093F903E0FA
:102820000098012102F01EFA04467CB100E0012468
:1028300026462878C04340071FD4D5F890000628C4
:1028400019D2DFE800F0160C111616166A6FD9F8C7
:10285000001021F007011143C9F80010E9E70198C1
:10286000012102F06FF903E00098012102F0FAF96A
:102870000446A4B100E0012426462878C04380061F
:102880002BD4D5F88C00B0F1405F24D011DC10B30C
:10289000B0F1805F15D0B0F1005F10D116E0D5F82F
:1028A0009020D8F8001021F007011143C8F800105B
:1028B000E3E7B0F1804F0ED0B0F1A04F0BD0012470
:1028C0000AE00198002102F03DF903E0009802219E
:1028D00002F0C8F9044694B126462878C043400661
:1028E0002BD4D5F89800B0F5406F24D011DC10B38C
:1028F000B0F5806F15D0B0F5006F10D116E0D5F8A7
:102900008C20D9F8001021F0E0411143C9F80010E3
:10291000E3E7B0F5805F0ED0B0F5A05F0BD00124E7
:102920000AE00198002102F00DF903E0009802216D
:1029300002F098F9044694B126462878C043000670
:102940002BD4D5F89C00B0F5C04F24D011DC10B3C7
:10295000B0F5005F15D0B0F5804F10D116E0D5F876
:102960009820D8F8001021F4E0511143C8F8001065
:10297000E3E7B0F5004F0ED0B0F5204F0BD00124A7
:102980000AE00198002102F0DDF803E0009802213E
:1029900002F068F9044654B126462878C04300077F
:1029A0001ED4D5F88000B0F5805F0AD00FE0D5F8CE
:1029B0009C20D8F8001021F460411143C8F80010A1
:1029C000EBE70098022102F04DF900B10126D5F89D
:1029D0008020D9F8001021F440511143C9F80010AB
:1029E0002878C043C00613D4D5F89400B0F5807F92
:1029F00005D10098022102F035F900B10126D5F881
:102A00009420D8F8001021F440711143C8F8001048
:102A10002868C043000316D4D5F8A00038B1B0F53B
:102A2000803F09D0B0F5003F0BD001240AE00198A7
:102A3000002102F087F803E00098022102F012F969
:102A400004468CB126462868C043400322D4D5F8FA
:102A50008400B0F5801F11D0B0F5001F13D0B0F581
:102A6000401F15D0012414E0D5F8A020D8F800109C
:102A700021F440311143C8F80010E4E7386840F40D
:102A80000030386004E00098012102F0EBF80446C1
:102A90005CB126462868C043C0031CD4286D70B1C1
:102AA000B0F5803F10D0012414E0D5F88420D9F887
:102AB000001021F440111143C9F80010EAE738680A
:102AC00040F40030386004E00198022102F03AF846
:102AD0000446DCB126462868C043800005D400982F
:102AE000022102F0BFF800B101262868C04380032C
:102AF0001BD4E86FB8B1B0F5807F10D0B0F5007F7F
:102B000011D0B0F5407F0ED001240DE02A6DDBF826
:102B1000001021F480311143CBF80010DBE7386856
:102B200040F4003038607CB326462868C043C002B9
:102B300007D42A6FDAF8001021F000411143CAF8D7
:102B400000102868C043800207D4AA6EDAF800108B
:102B500021F080711143CAF800102868C04340007A
:102B600009D40748016821F4004101600168D5F8E3
:102B7000B420114301602868C04306E05444025861
:102B800010440258CFFFFF001DE007D46A6DDBF848
:102B9000001021F040511143CBF800102868C043C9
:102BA000000208D4D5F88820D9F8001021F440019B
:102BB0001143C9F8001028790024C04300F0010037
:102BC000204309D00EE0EA6FD9F8001021F44071DB
:102BD0001143C9F80010A8E70198002101F0B2FFE5
:102BE00000B106462879C04300F00200204305D119
:102BF0000198012101F0A6FF00B106462879C043E3
:102C000000F00400204305D10198022101F09AFF51
:102C100000B106462879C04300F00800204305D1E2
:102C20000098002102F01EF800B106462879C04342
:102C300000F01000204305D10098012102F012F8A5
:102C400000B106462879C04300F02000044304D1B7
:102C50000098022102F006F800B916B10120BDE883
:102C6000FE8F0020FBE700002DE9F05F04000F4617
:102C70007ED0DFF83882D8F8000000F00F00B842AC
:102C80000CD2D8F8001021F00F013943C8F8001019
:102C9000D8F8000000F00F00B84269D12078844DC8
:102CA00040070AD52069296801F07001884204D9DB
:102CB000296821F070010143296020787C4E361D7F
:102CC00000070AD56069316801F07001884204D9B3
:102CD000316821F07001014331602078C0060AD5C7
:102CE000A069316801F4E061884204D9316821F4B7
:102CF000E061014331602078DFF8B4B180060BF168
:102D0000080B0CD5E1695846DBF8002002F0700290
:102D1000914204D9026822F070020A4302602078CE
:102D200080070AD5E068296801F00F01884204D9BC
:102D3000296821F00F01014329602078C0073ED0A7
:102D40005B49A2682868183920F470601043286035
:102D50006068022818D0032819D00968012819D002
:102D6000490700294ADADFF848A1AAF1080A00E079
:102D700044E0DAF8002022F007020243CAF80020FB
:102D8000FEF74CFE814612E009688903E9E709680D
:102D90008901E6E7C905E4E7FEF740FEA0EB09017B
:102DA00041F28830814202D90320BDE8F09F61687A
:102DB000DAF8000000F03800B0EBC10FECD1207859
:102DC00080070AD5E068296801F00F01884204D223
:102DD000296821F00F0101432960D8F8001040460E
:102DE00001F00F01B9420BD9016821F00F013943FD
:102DF0000160006800F00F00B84201D00120D4E764
:102E0000207840070AD52069296801F070018842BE
:102E100004D2296821F0700101432960207800075D
:102E20000AD56069316801F07001884204D23168C6
:102E300021F07001014331602078C0060AD5A069F5
:102E4000316801F4E061884204D2316821F4E06124
:102E500001433160207880060CD5E1695846DBF8E3
:102E6000002002F07002914204D2026822F0700247
:102E70000A43026000F06CF80E492A682B68C2F31E
:102E8000032203F00F038A5CC95C02F01F0201F009
:102E90001F01D040084A20FA01F11160074908607B
:102EA00007480068BDE8F05FFFF760B800200052F7
:102EB00018440258328F000890A900248CA90024DD
:102EC00084A9002430B500F043F80B4A0B490C4BA1
:102ED00015681468C5F3032204F00F048A5C095DC9
:102EE00002F01F0201F01F01D040064A20FA01F152
:102EF00019601060084630BD18440258328F00082F
:102F000090A900248CA9002400B5FFF7DBFF054938
:102F10000968054AC1F30211515C01F01F01C84064
:102F200000BD00001C440258328F000800B5FFF7B6
:102F3000C9FF05490968054AC1F30221515C01F046
:102F40001F01C84000BD00001C440258328F000819
:102F5000454970B545480968434B103B11F03802AC
:102F600008D00111082A03D0102A0BD0182A0BD040
:102F7000084670BD19688906FBD51968C1F3C101FF
:102F8000C84070BD3A4870BD3749374D18310C1DE7
:102F900024350A68096826682D6802F0030406F0E3
:102FA0000102C1F30511C5F3CC0515FB02F200EED9
:102FB000102AB8EE400AE9B32F4ADFED2E0AB7EE29
:102FC000001A6CB1DFED2D1A012C01D0022C43D078
:102FD00002EE101A1068F8EE422A81EEA22A1EE0D4
:102FE0001C68A40611D51B6801EE901A1168C3F382
:102FF000C103F8EE612AD84001EE900AC1F308003F
:10300000F8EE611A81EEA22A0BE001EE901ADFEDD4
:103010001C2A00BFF8EE611A106882EEA12AC0F3E4
:10302000080001EE900AF8EE611A40EE201A31EE27
:10303000810A00E015E022EE000A1068C0F3462085
:10304000401C00EE900AF8EE600A80EE201ABCEEFA
:10305000C10A10EE100A70BD01EE901ADFED092AC8
:10306000D8E7002070BD0000104402580090D00343
:1030700040787D0100000039304402580024744A31
:103080000024744C20BCBE4B2DE9F05F04007DD0C1
:10309000FF4F2078FE4D1837DFF8F483103DC0074E
:1030A00048D0D8F80000396800F03800102815D052
:1030B000182803D101F0030002280FD06068B0F592
:1030C000803F12D010B1B0F5A02F18D0286820F49E
:1030D00080302860286820F4802009E02868800378
:1030E00028D560680028D2D024E0286840F48030D9
:1030F0002860606888B1FEF791FC064609E0286800
:1031000040F480202860F0E7FEF788FC801B6428EC
:103110007ED828688003F7D50CE0FEF77FFC0646D2
:1031200005E000BFFEF77AFC801B6428F0D8286811
:103130008003F7D42078800756D5D8F80000DFF850
:103140005093396810F03800A9F10C090ED01828F6
:1031500001D188070AD0E068A8B3296821F01901D5
:1031600001432960FEF75AFC064628E0286840071C
:1031700002D5E06800288AD0E168286820F01900AC
:1031800008432860FEF74AFC064606E0D2E000BF8E
:10319000FEF744FC801B0228BAD828684007F7D500
:1031A000217CD9F8002022F0FE4242EA0161C9F8F0
:1031B000001019E0FEF732FC801B0228A8D828680E
:1031C0004007F7D5ECE7FFE7286820F0010028600A
:1031D000FEF724FC064604E0FEF720FC801B0228D4
:1031E00096D828684007F7D42078C00646D5D8F886
:1031F0000000DFF89C92396800F03800A9F104095A
:10320000082812D0182805D101F00300012800E099
:10321000CEE00AD0E0690028286820D040F0800085
:103220002860FEF7FBFB064615E02868C00502D5BE
:10323000E06980287ED194F82010D9F8002022F08F
:103240007C5242EA0161C9F8001017E0FEF7E6FB84
:10325000801B0228A0D82868C005F7D5EBE720F02E
:1032600080002860FEF7DAFB064604E0FEF7D6FB96
:10327000801B022890D82868C005F7D42078000762
:1032800029D583486169643000298146016811D0DD
:1032900041F001010160FEF7C1FB064605E000BFF9
:1032A000FEF7BCFB801B022888D8D9F800008007F5
:1032B000F6D510E021F001010160FEF7AFFB0646F4
:1032C00005E000BFFEF7AAFB801B022870D8D9F8E2
:1032D00000008007F6D42078800623D5A069002856
:1032E000286810D040F480502860FEF797FB06460F
:1032F00005E000BFFEF792FB801B022858D8286823
:103300008004F7D50EE020F480502860FEF786FB9D
:10331000064604E0FEF782FB801B022848D8286896
:103320008004F7D42078400751D5DFF86891D9F8A8
:10333000001000E015E141F48071C9F80010FEF7BB
:103340006DFB064605E000BFFEF768FB801B6428A6
:103350002ED8D9F80000C005F6D54D4EA0686036CD
:1033600001280AD008B1052813D0306820F00100E8
:103370003060306820F0040002E0306840F0010066
:103380003060A06841F2883A98B1FEF747FB814669
:103390000AE0306840F004003060EEE7FEF73EFBE4
:1033A000A0EB0901514503D830688007F6D50EE03F
:1033B00072E0FEF733FB814606E000BFFEF72EFB0E
:1033C000A0EB0901514567D830688007F6D4606AE0
:1033D00000287CD0DFF8B8A0D8F800100AF1200A45
:1033E0004FF6F87B0AF10408C1F3C2010329AAF1E0
:1033F00004096DD00228286820F08070286003D06E
:10340000FEF70CFB044681E0FEF708FB064604E0ED
:10341000FEF704FB801B022875D828688001F7D4CA
:10342000E26A40F2F331386854F8283F884340EAB2
:10343000021018433860217B4FF4FE0C22894FF0B4
:10344000FE47208A4902267D521E401EA1F50071CA
:1034500089B2C2F308021143761E0CEA0040014310
:10346000484607EA06621143CAF80010D9F800106E
:1034700021F00101C9F80010D8F80030266A23EACB
:103480000B0343EAC601C8F80010D9F8001004E0A5
:10349000104402580048025835E0A26921F00C019E
:1034A0001143C9F800100168E26921F002011143DB
:1034B0000160016841F480310160016841F400312C
:1034C0000160016841F480210160016801E06CE065
:1034D00020E041F001010160286840F08070286020
:1034E000FEF79CFA044604E0FEF798FA001B022857
:1034F00009D828688001F7D557E000BFFEF78EFA9B
:10350000001B022802D90320BDE8F09F2868800133
:10351000F4D44AE039680128DAF8000021D0A26A20
:1035200001F0030393421CD1E26AC1F305118A4200
:1035300017D1216BC0F30802491E8A4211D1616B79
:10354000C0F34622491E91420BD1A16BC0F3064243
:10355000491E914205D1E16BC0F30660491E8142CC
:1035600001D00120D0E7A16C4646D8F80000C0F396
:10357000CC00814219D0D9F800004D4620F001005E
:10358000C9F80000FEF74AFA4FEA0007FEF746FACC
:10359000B842FBD0A26C306820EA0B0040EAC200BF
:1035A0003060286840F0010028600020ACE700008F
:1035B0002DE9F047040029D0594A4FF0000920684E
:1035C000584B594D9042C4F8289006D0984204D0E8
:1035D000A84202D0E1680F2918D8E1684FF0010A2B
:1035E000E76B0831C9080AEB57167143904205D0C2
:1035F000984203D0A84201D0082907D8904203D0AE
:10360000984201D0A84204D1102902D90120BDE876
:10361000F08794F8810020B9204684F8809000F06B
:1036200085F8022084F881002068016821F00101FA
:1036300001602068A1698268B1F1806F02F4F8111D
:1036400010D16268B2F5800F01D01AB10AE0A26B06
:1036500022B107E0A26BB2F1805F03D1026842F4AD
:10366000805202606068400209D5E068072806D3EE
:103670002068236D026822F480721A4303E02068F8
:10368000026822F480720260A66AE069E26B256833
:103690003043E3680A4310431843A860D4E90D029D
:1036A000D4E90581636A25691843D4F820C00A4328
:1036B000266810432843A56DD4E90172D4E912317C
:1036C00040EA080040EA0C0038430843104318431E
:1036D0002843F060606868B92068816821F4C051AF
:1036E00041F4006181602068816821F4C06141F487
:1036F000806181602068016D21F0010101656068D1
:10370000400206D52068626DC16821F00041114376
:10371000C160C4F8849084F881A0002077E700009D
:103720000030014000380040003C004010B5B4B00B
:10373000044614212EA8FCF71DFEB8216846FCF7AC
:1037400019FE1849206888422AD181140020179058
:103750000446CDE900106846FEF7E8FD08B1FDF724
:1037600026FB1148016841F480510160006800F4B3
:10377000805033900C481038016841F0010101601D
:1037800000682EAB022100F001003390A02005223A
:1037900083E8130005482EA9CDE93142FEF72AF847
:1037A00034B010BD00300140F0440258000002580F
:1037B0002DE9F84F994617468A460446FEF72EF93A
:1037C000064694F88100012839D1BAF1000F7CD067
:1037D000002FFCD094F88000012830D0A26800258A
:1037E0004FF0010884F88080032184F88110C4F828
:1037F0008450C4F85CA06566A4F8685065672567C6
:103800002C34B2F5C02FA786E786E58754F82C0D37
:1038100018D0C16821F4C02141F40031C160206892
:1038200041686FF30F01394341602068016841F03E
:10383000010101606068B0F5800F08D00CE0022043
:10384000BDE8F88F016841F400610160E7E7206896
:10385000016841F400710160E0680F281CD820E085
:103860002068416989070BD5E16D09680162E06D47
:10387000001DE065B4F86200401EA4F862000BE091
:10388000FEF7CCF8811B494503D3B9F1FF3F03D0C4
:103890009BE0B9F1000F31D0B4F862000028DFD10D
:1038A00077E007282ED870E02068416989071DD588
:1038B000B4F8621001290DD9E16B59B1E16D0968C5
:1038C0000162E06D001DE06500E07CE0B4F862009C
:1038D000801E08E0E16D09880184E06D801CE065D0
:1038E000B4F86200401EA4F862000BE0FEF796F800
:1038F000811B494503D3B9F1FF3F03D065E0B9F11E
:10390000000F62D0B4F862000028CDD141E02068F9
:10391000416989072DD5B4F8621003290CD9E16BF0
:10392000402909D9E16D09680162E06D001DE0657B
:10393000B4F86200001F19E0B4F8621001290BD935
:10394000E16B49B1E16D09880184E06D801CE0659F
:10395000B4F86200801E09E0E16D097880F820105B
:10396000E06D401CE065B4F86200401EA4F86200FF
:103970000BE0FEF753F8811B494503D3B9F1FF3F34
:1039800003D022E0B9F1000F1FD0B4F86200002884
:10399000BDD100224B4608212046009601F050FA86
:1039A00028B1D4F8840040F02000C4F884002046F8
:1039B00001F0E8F984F88180D4F8840084F880501C
:1039C00000283FF43DAF01203AE7204601F0DAF944
:1039D000D4F8841084F8805041F48071C4F88410C5
:1039E00084F8818003202BE7401EB0F1807F10B562
:1039F00001D3012010BD4FF0E02460610F2160175A
:103A000001F09EFE0020A0610721216110BD30B5AC
:103A100090F88410012918D0012280F884202421F4
:103A2000C0F888100022202401680B680D6823F07C
:103A3000005325F001050D60426601680B60C0F877
:103A4000884080F88420104630BD022030BD70B51B
:103A5000044690F8840001281DD0012284F88420B7
:103A60002420C4F8880020680568026822F001025A
:103A700002602068826822F060620A438260204609
:103A800001F0E2FA2268202100201560C4F88810B5
:103A900084F8840070BD022070BD70B5044690F8B3
:103AA000840001281DD0012284F884202420C4F839
:103AB000880020680568026822F001020260206820
:103AC000826822F060420A438260204601F0BCFA1C
:103AD0002268202100201560C4F8881084F8840032
:103AE00070BD022070BD10B5040003D0D4F888006A
:103AF00010B107E0012010BD002084F884002046AA
:103B000000F026F82420C4F888002068016821F01D
:103B100001010160A06A10B1204601F0B7FA204609
:103B200001F098FB0128E6D02068416821F490411B
:103B300041602068816821F02A0181602068016865
:103B400041F0010101602046BDE8104001F002BBD8
:103B500010B5B4B0044614212EA8FCF70BFCB82114
:103B60006846FCF707FC1849206888422AD10020E3
:103B70001D9002210446CDE900106846FEF7D6FBF1
:103B800008B1FDF714F91148016841F400310160F2
:103B9000006800F4003033900C480838016841F0A8
:103BA00008010160006807226021309400F00800DD
:103BB00033900220CDE92E10CDE9310204482EA920
:103BC000FDF718FE34B010BD00440040E844025830
:103BD000000C02582DE9F8430446D0F888009846B6
:103BE00016460D46202802D00220BDE8F883A5B174
:103BF0009EB10021C4F890102120C4F88800183428
:103C0000FDF70CFF814654F8100CA687E6872027A5
:103C1000183CB0F5805F02D003E00120E5E72069A1
:103C200010B12E46002510E000260EE0802120462F
:103C300001F0FEFCC0B9DEB116F8010B2168886204
:103C4000B4F85600401EA4F85600B4F856004B468F
:103C50004FF00002CDF800800028E7D14FF040017E
:103C6000204601F0E5FC48B1C4F888700320BCE7A9
:103C700035F8020B2168C0F30800E0E7C4F888704B
:103C80000020B2E7FEE701688A69D243920701D4B7
:103C900000228A6200688169C943C90703D081692B
:103CA00041F00101816170472DE9F0470446006849
:103CB0000026894617464FF0200835468169C90617
:103CC00041D51021C1612FE0B9F1FF3F2CD0FDF7A4
:103CD000A5FEC11B494502D8B9F1000F24D12068C7
:103CE000426894F84210836902F48042DB431B046B
:103CF00015D4B2F5804F12D0202910D0416841F47C
:103D000080414160FDF78AFE074608E0FDF786FE28
:103D1000C01B192803D9012645F0200504E02068BE
:103D20008069C0438006F1D420688069C043800662
:103D300002D5002EC8D003E016B92168C1F81C8056
:103D4000012645F0040521688869C20505D54FF4B0
:103D50008072CA6145F00105012641050AD5216836
:103D600080054FF4806245F00805CA614FF00106F6
:103D700002D40AE0800507D5206801264FF40071BF
:103D800045F00205C16100E08EB12046FFF77BFFE0
:103D900020680021074F43683B404360606C284324
:103DA000606484F8418084F8421084F84010304602
:103DB000BDE8F08700E800FE2DE9F8431746044609
:103DC0001548DAB2DDE908981E4600900023204627
:103DD00000F056F842464946204600F0D3F8B8B9FC
:103DE000012EFDB208D02068390A81624246494658
:103DF000204600F0C7F858B92068856200224021AB
:103E00004B462046CDF8008000F052F8002800D044
:103E10000120BDE8F8830000002000802DE9F84370
:103E20000446164817461E46DAB20090C3022046E2
:103E3000DDE9089800F024F842464946204600F0A3
:103E4000A1F8B8B9012EFDB208D02068390A816204
:103E500042464946204600F095F858B920688562E8
:103E6000002280214B462046CDF8008000F020F84B
:103E7000002800D00120BDE8F88300000020008069
:103E800070B50068C1F3090141EA0241074D049C85
:103E900019434FF480664268214306EA54532B438A
:103EA0009A4321F000410A43426070BDFF63FF0363
:103EB0002DE9F0411D4617460E460446DDF81880F0
:103EC00028E0424629462046FFF7EEFE10B10120C9
:103ED000BDE8F081681C1DD0FDF7A0FDA0EB080037
:103EE000A84200D8B5B92068806936EA00000FD032
:103EF0000020B8420ED1626C002084F840002021DE
:103F000042F02002626484F8411084F84200DEE747
:103F10000120EEE72068806936EA000004D0002026
:103F2000B842CED00020D3E70120F9E770B516469D
:103F30000D4604461FE0324629462046FFF7B4FEF0
:103F400008B1012070BDFDF769FD801BA84200D8B3
:103F50008DB920688069C04380060CD5626C002052
:103F600084F84000202142F02002626484F841106D
:103F700084F84200E5E720688069C0438006DAD40F
:103F8000002070BD70B516460D46044621E032464D
:103F900029462046FFF788FE08B1012070BD681C45
:103FA00017D0FDF73BFD801BA84200D88DB92068D3
:103FB0008069C04380070CD5626C002084F8400003
:103FC000202142F02002626484F8411084F842000B
:103FD000E3E720688069C0438007D8D4002070BD23
:103FE0002DE9F0411C4615460E4607462A2000F0F2
:103FF000C3F9BF1CB8B200F0B2F9AD1CA8B200F012
:10400000AEF92B2000F0B8F9761CB0B200F0A7F999
:10401000641CA0B200F0A3F9BDE8F0412C2000F030
:10402000ABB910B514460B460246FFF7D9FF204640
:10403000BDE8104000F093B92DE9F0470C468046EA
:10404000581E1F46511E164683B2DDF820908AB2D4
:1040500021464046FFF7C4FF0AE0454604E04846D3
:1040600000F07DF96D1CADB2B542F8D3641CA4B26A
:10407000BC42F2D3BDE8F08710B5694C00220221A2
:104080002046FDF7C5FC6420FDF7A2FB0122204677
:104090000221FDF7BDFC6420FDF79AFB01222046BA
:1040A0001021FDF7B5FC6420FDF792FB112000F014
:1040B00063F97820FDF78CFB362000F05DF90020D5
:1040C00000F06EF93A2000F057F9052000F068F989
:1040D000B22000F051F90C2000F062F90C2000F041
:1040E0005FF9002000F05CF9332000F059F933202B
:1040F00000F056F9B72000F03FF9352000F050F9F4
:10410000BB2000F039F9192000F04AF9C02000F076
:1041100033F92C2000F044F9C22000F02DF90120E1
:1041200000F03EF9C32000F027F9122000F038F922
:10413000C42000F021F9202000F032F9C62000F060
:104140001BF90F2000F02CF9D02000F015F9A42065
:1041500000F026F9A12000F023F9E02000F00CF98E
:10416000D02000F01DF9042000F01AF90D2000F015
:1041700017F9112000F014F9132000F011F92B2089
:1041800000F00EF93F2000F00BF9542000F008F980
:104190004C2000F005F9182000F002F90D2000F085
:1041A000FFF80B2000F0FCF81F2000F0F9F82320A6
:1041B00000F0F6F8E12000F0DFF8D02000F0F0F891
:1041C000042000F0EDF80C2000F0EAF8112000F0D7
:1041D000E7F8132000F0E4F82C2000F0E1F83F208D
:1041E00000F0DEF8442000F0DBF8512000F0D8F8B1
:1041F0002F2000F0D5F81F2000F0D2F81F2000F08B
:10420000CFF8202000F0CCF8232000F0C9F82120BE
:1042100000F0B2F8BDE81040292000F0ADB8000071
:10422000000002582DE9FF4F81B00446203ADDE935
:104230000F7B0090D0B203904FEA57084FEAD800A6
:1042400000FB07FA0298C11904EB0800401E82B275
:104250002046491E8BB20299FFF7C2FE002637E0C6
:10426000102F24D0202F35D103981C4901EB80104A
:104270005FF0000510F806904FF00100BBF1000F51
:1042800000FA05F000EA090016D020B1049A204691
:104290000299FFF7C6FE0098641CA4B2211A41459A
:1042A00010D10298009C401C80B202900EE003984E
:1042B0000B4901EB0010DBE708B1049800E00E9811
:1042C00000F04DF86D1CEDB2082DD5D3761CB6B2BA
:1042D0005645C5D305B0BDE8F08F00002673000831
:1042E000366D00082DE9FE4F994614468A4605466C
:1042F000DDE90D67DDF830800CE0CDF800804B463D
:10430000CDE9016751462846FFF78CFF05EB5600C3
:1043100085B2641C2278002AEFD1BDE8FE8F000030
:104320002DE9F041174601F15F0293B200F17F04DD
:10433000A2B280266025FFF753FE002416FB05F687
:1043400009E000BF37F81450280A00F012F8E8B26C
:1043500000F00FF8641CA642F4D8BDE8F08110B557
:104360000446000A00F01CF8E0B2BDE8104000F07E
:1043700017B800F015B8000070B5084C00220421F1
:1043800005462046FDF744FB284600F009F8204684
:10439000BDE8704001220421FDF73ABB000002583D
:1043A00031B5094C002208212046FDF731FB0748B2
:1043B00001224FF47A736946FFF7FAF90122204689
:1043C0000821FDF725FB38BD00000258F8AF002496
:1043D0004FF450720B464FF4105100F043B970B5D2
:1043E0000C460546FDF7CEF921462846FDF756F95D
:1043F00021462846FCF74EFF21462846FDF7A6F940
:10440000B5F870002146C0F3013084F82400284636
:10441000FCF748FF21462846FCF762FF2146284664
:10442000FCF7C8FC21462846FDF7B0F8214628468F
:10443000FCF7BAFF21462846FDF746F821462846F4
:10444000FCF7C6FD21462846FCF76EFD21462846AE
:10445000BDE87040FCF77EBE2DE9FC4700240F4606
:104460004FF40046814641F28838254601226B46CA
:104470003146484600F0F6F8002809D1BDF8001092
:104480006D1CADB2454501F0080003D96FF0620024
:10449000BDE8FC870028E9D04FF450754FF48068E0
:1044A000052C1ED230223146484600F001F9411C4D
:1044B000EED03B462A464146484600F0D3F8002855
:1044C000E6D101226B463146484600F0CBF8002881
:1044D000DED1BDF8000004F10104E4B210F0080FD1
:1044E000DED1042C02D96FF00700D1E7012248F297
:1044F0000D0101AB484600F0B5F8BDF804100028E6
:10450000A7F88016BDF8001001F00101A7F8821687
:10451000BED10846BCE7000070B50C4605462DED3F
:10452000048B00F053F8B5F84006254900EE900AD8
:10453000B0EE408A9FED230AF8EE600A10EE900A72
:10454000884201DD70EEC00AB5F8000601EE100ADF
:10455000B8EE411A11EE100A884201DD31EE401A20
:1045600094ED040A00EE801A80EE810AB3EE021B7D
:10457000B7EEC09AB0EE000B01F0F6F829EE003B62
:104580009FED111A94ED010AF7EE000A38EE411A78
:10459000A089D4ED021AB3EE092A40EE010AB7EE63
:1045A000C30B01EE100ABDEC048BB8EE411AC0EE4D
:1045B000202A32EEC10AC0EE210A30EE820A70BD16
:1045C00000FEFF46000080473333534070B50C4671
:1045D000214A2DED048BB0F8541600EE101AB8EEF7
:1045E000408A18EE101A914203DD9FED1C0A38EE46
:1045F000408AB0F88006C0F3812594F8240000EECC
:10460000100AB8EE401BB0EE000B01F0ADF801EE61
:10461000105AB0EE409BB0EE000BB8EEC11B01F09B
:10462000A3F889EE002BB4F90200B4F9001000EEF3
:10463000100A01EE101ADFED0A1AF8EEC00AB8EE01
:10464000C11AB7EEC20B50EE080ABDEC048B80EE27
:10465000810A30EE210A70BD00FEFF46000080474F
:10466000333353403EB515461C460A464FF6FF739A
:104670004106009403EA45004FF4FA73090ECDE9B0
:1046800001030A480223FDF799FA58B14FF0FF30B1
:104690003EBD00BF34F810100A0A42EA012124F896
:1046A0001010401CA842F5DB00203EBDA4AF002442
:1046B0007FB5130A43EA0222ADF80C20400602241B
:1046C0000A464FF4FA7503AB8DE83800000E234616
:1046D00001460448FDF724FB002800D0E01E04B08A
:1046E00070BD0000A4AF002438B548F20D040546A3
:1046F00001226B462146FFF7B5FF002807D1BDF820
:104700000000214640F480522846FFF7D1FF38BD13
:10471000F8B5054648F20D0448076B4601222146CC
:10472000860D2846FFF79EFF002808D1BDF800003F
:10473000214620F4607228463243FFF7B9FFF8BDE6
:10474000F0B587B014216846FBF714FE26480168CF
:1047500041F004010160016801F004010591016864
:1047600041F080010160016801F08001059101685C
:1047700041F001010160016801F00101059101684A
:1047800041F008010160016801F00801059101682C
:1047900041F00201016000680122144F1E2100F067
:1047A000020005903846FDF733F9012469460225D9
:1047B0000620CDE90004CDE902453846FDF71AF898
:1047C00000260395182069468DE851003846FDF70C
:1047D00011F810206946CDE9000605480294FDF75E
:1047E00009F807B0F0BD0000E0440258000002588C
:1047F000000802581448002110B5124C0123134A36
:104800000460C0E90121C0E9033141618161C161F6
:104810000162FDF773F908B1FCF7C9FA0A480021F3
:10482000FDF702F908B1FCF7C2FA07480021FDF7CD
:1048300027F908B1FCF7BBFABDE810400120FDF7ED
:1048400049B9000000540040A4AF00245C1A600085
:104850002DE9F04114484FF480060021114D330139
:104860000724C0E90341DA00C0E90513C0E90721C4
:10487000416277118162C16241638163C1630164F6
:1048800041648164C16401654165816580E8E0003F
:10489000FEF78EFE002803D0BDE8F041FCF787BA92
:1048A000BDE8F08100300140F8AF00241848002135
:1048B00010B5164C0C224FF461230460C0E901319D
:1048C000C160C0E904128161C1610162416281621B
:1048D000FFF709F908B1FCF76AFA0D480021FFF764
:1048E000DCF808B1FCF763FA09480021FFF7AFF8DC
:1048F00008B1FCF75CFA0648FFF789F8002803D0F6
:10490000BDE81040FCF753BA10BD00000044004061
:1049100080B00024FEE7FEE7704700002DE9F04379
:10492000884681462DED048BDFED811A5FF0000093
:104930004FF44072B0EE610A09EB8001401CD1EDEA
:10494000000A904230EE800AF6DB9FED7A2AF1EE03
:10495000002AB7EE081AC0EE020AB5EE003AB7EE2A
:10496000005AF3EE0F3A4FF07E5730EEC14A30EE68
:10497000A20ADFED715A002470EE444A5FF0000392
:10498000484600EE103A00EE904AB8EEC01AB8EE73
:10499000E00A21EE032A20EE031ABDEEC20AFDEE64
:1049A000C10A10EE106A10EE905A00EE106A00EE86
:1049B000905A2A463146B8EEC06AB8EEE00A32EEA6
:1049C000462A71EE400AFCF7EDFEB0EE406A711C1B
:1049D0002A46F0EE468A4846FCF7E4FEB0EE406A0E
:1049E0006A1C3146F0EE467A4846FCF7DBFEB0EE34
:1049F000406A6A1C4846711CB0EE467AFCF7D2FE4B
:104A0000B0EE451A22EE208A31EE426A71EE606AFB
:104A100026EE269A26EE206A26EE822A69EE280ADB
:104A200042EE270A46EE070A48EE000A30EEC40AB4
:104A3000C0EE240A10EE900AB84201DDF0EE410A01
:104A4000F5EEC00AF1EE10FA02D2F0EE610A04E0CF
:104A500010EE900AB0F1785F08DAB6EE000AB0EE18
:104A6000612A00EEA20AB0EE611A3BE010EE900A55
:104A7000B0F17B5F0ADAB4EE006AB0EE410A70EE84
:104A8000C60AB0EE612A20EEA21A2BE010EE900AC0
:104A90002A4988420ADAB5EE080A70EEC00AB0EE7A
:104AA000410A00EEE20A20EEA22A1BE010EE900A74
:104AB000234988420ADAB6EE042AB0EE610A70EEA3
:104AC000C20AB0EE412A00EEE21A0BE0B6EE0C0A82
:104AD000B0EE412A70EEC00AB0EE611AB0EE410AA3
:104AE00000EEE22A21EE251A03EBC4155B1C62EEF0
:104AF000230A20EE232ABCEEC10AFCEEE00ABCEE3B
:104B0000C21A10EE100A10EE901A11EE102AC90205
:104B100041EA40101043802B28F81500FFF630AF13
:104B2000641C602CFFF62AAFBDEC048BBDE8F0835B
:104B3000000000000000404400007C420000203FD4
:104B40000000603F2DE9F047454D044689464FF08F
:104B5000000A2868C04380070AD0414E283E3068CA
:104B600020F080603060FCF759FF0746B04608E04F
:104B70000120BDE8F08700BFFCF750FFC01B0228F2
:104B800067D8D8F800000001F6D4206829684FF4EF
:104B9000FE0721F47C313E0241EA00302860207A91
:104BA000A389B4F804C040022D4D2D495B1E227C20
:104BB000ACF1010C1035091DA0F5007080B2521E39
:104BC000CCF3080C07EA034340EA0C00184306EA5A
:104BD0000262104328600868626920F0C000104338
:104BE00008600A68A06922F0200202430A60281DBA
:104BF0000A6822F010020A6002684FF6F873E4694E
:104C00009A4342EAC40202600868B9F1000F40F01A
:104C100010020A6011D00868B9F1010F11D040F4F8
:104C200000100860D8F80000444640F08060C8F8E2
:104C30000000FCF7F3FE05460DE0086840F4002094
:104C4000EFE740F48010ECE7FCF7E8FE401B022899
:104C500001D903208DE720680001F5D5504688E78B
:104C6000284402582DE9F047454D044689464FF047
:104C7000000A2868C04380070AD0414E283E3068A9
:104C800020F080503060FCF7C9FE0746B04608E0CF
:104C90000120BDE8F08700BFFCF7C0FEC01B022862
:104CA00067D8D8F800008000F6D4208829684FF42F
:104CB000FE0721F07C713E0241EA00502860207A14
:104CC000A389B4F804C040022D4D2D495B1E227CFF
:104CD000ACF1010C1835091DA0F5007080B2521E10
:104CE000CCF3080C07EA034340EA0C00184306EA39
:104CF0000262104328600868626920F44060104333
:104D000008600A68A06922F4007202430A60281D44
:104D10000A6822F480720A6002684FF6F873E46948
:104D20009A4342EAC40202600868B9F1000F40F4F5
:104D300080720A6011D00868B9F1010F11D040F0FB
:104D400080700860D8F80000444640F08050C8F8F1
:104D50000000FCF763FE05460DE0086840F48000A3
:104D6000EFE740F40000ECE7FCF758FE401B022898
:104D700001D903208DE720688000F5D5504688E7EB
:104D80002844025810B5026840F26F3351699469A3
:104D900044F0080494610268946944F0100494613A
:104DA0000268146824F001041460026814699C43CA
:104DB00014610268936823F44043936090F8812063
:104DC000042A0CD08A060AD5D0F8842042F080024A
:104DD000C0F884200268936943F02003936190F83F
:104DE0008120032A0CD04A060AD5D0F8842042F04C
:104DF0000402C0F884200268936943F04003936181
:104E00008A050AD5D0F8842042F00102C0F8842037
:104E10000268936943F400739361C9050AD5D0F819
:104E2000841041F00801C0F8841001688A6942F4D6
:104E300080728A610021A0F86210A0F86A1010BD8B
:104E40002DE9F0411C4616460D460746DDF8188050
:104E50000AE000BFFCF7E2FDA0EB0800A04202D38D
:104E6000601C01D00BE054B13868406935EA00009D
:104E700007D00020B042EDD00020BDE8F081032033
:104E8000FBE70120F6E77047154A5A23F0B40221E8
:104E9000DFED140A13705FF000044FF44075537097
:104EA00000EB8403641C93ED000A20EE200ABCEEA4
:104EB000C00A10EE103A1E0A5654491C5354491C9D
:104EC000AC42EDDBA5204FF0FF335054491C505449
:104ED000F0BC034940F204620348FEF77BBE0000C9
:104EE0009CA900240000C84280B00024FDF708B847
:104EF000F0B59DB04C216846FBF73CFA202113A881
:104F0000FBF738FA0220FDF791F81E48016821F4FA
:104F1000404101600168002401F440411B91016897
:104F20008904FCD50220099001210D91C2030A23B6
:104F3000DC25CDE900120AAA0526042782E829000B
:104F4000CDE90E60CDE9107468461294FEF79CF826
:104F500008B172B6FEE740201A9008230501CDE99A
:104F6000163013ABCDE918053F21032283E8160064
:104F700013A81146FDF778FE002801D072B6FEE7AF
:104F80001DB0F0BD184802582748F0B5274A0168FF
:104F900041F470010160106800F00F00072804D28E
:104FA000106820F00F00C01D106021490020204C27
:104FB00010340B681F4D43F001030B6020600B6839
:104FC0002B400B60136803F00F03072B04D9136801
:104FD00023F00F03DB1D1360154C174A1834174BD1
:104FE000261D371D2060124C154D28343060261DBB
:104FF0003860371D23603B1D35601C1D3A60251D40
:105000002E1D1860331D22602860326018600A6807
:1050100043F2D204064B0B4D22F4802260330A6027
:1050200018602C60F0BD000088ED00E00020005208
:10503000004402587FEDF6EA8002010100020202FC
:105040000000FF010040005230B5416EB9B1016867
:105050000D4B03F108048A688968C2F34262490F64
:105060005D5C615C2D01B5FBF1F1A0F86A10995C03
:10507000A25C0901B1FBF2F1A0F8681030BD01217A
:10508000A0F86A10F8E70000228F000890F82810B6
:10509000090706D50168836B4A6822F400421A4367
:1050A0004A6090F82810C90706D00168C36A4A68A8
:1050B00022F400321A434A6090F82810890706D576
:1050C0000168036B4A6822F480321A434A6090F800
:1050D0002810490706D50168436B4A6822F48022EC
:1050E0001A434A6090F82810C90606D50168C36BB8
:1050F0008A6822F480521A438A6090F82810890640
:1051000006D50168036C8A6822F400521A438A604B
:1051100090F82810490611D50168436C4A6822F4BA
:1051200080121A434A60416CB1F5801F06D10168B4
:10513000836C4A6822F4C0021A434A6090F828102F
:10514000090606D50168C26C486820F400201043A7
:10515000486070472DE9F84300250446C0F8905098
:10516000FCF75CFC8046206820266FF07E470068D4
:10517000000713D50022434631042046009700F073
:1051800057FA58B1216851E8000F20F0800041E83B
:105190000002002AF6D1C4F8886021E02068006887
:1051A000400722D5002243464FF480012046009755
:1051B00000F03EFAC8B1206850E8001F21F4907159
:1051C00040E80012002AF6D12068083050E8001F9D
:1051D00021F0010140E80012002AF5D1C4F88C60EA
:1051E000032084F88450BDE8F883C4F88860C4F8CC
:1051F0008C60E5662567002084F88450F3E70000A2
:1052000010B5026852E8001F21F4907142E80013C3
:10521000002BF6D10E4B0268083252E8001F1940ED
:1052200042E80014002CF6D1C16E012908D10268B1
:1052300052E8001F21F0100142E80013002BF6D1C4
:1052400000212022C0F88C20C166416710BD0000FB
:10525000FEFFFFEF2DE9F04304468068E24E87B081
:10526000E24B2168D4E90427D4F81CC010430A6833
:10527000002547EA0C073843324002430A602068A1
:10528000E268416821F44051114341602268A169FC
:105290009A4201D0206A01439668DFF854C3D54F83
:1052A000D54806EA0C060E4396602168666ACA6A0B
:1052B00022F00F023243CA622268BA420ED100685D
:1052C00000F0380018286FD07ADCB8B308286CD00A
:1052D00010286BD18BE0282868D18EE0C7498A421C
:1052E00009D1006800F0070006285FD2DFE800F06F
:1052F000507D7F818385C2498A4209D1006800F0D0
:10530000070006287BD2DFE800F0437072747678DD
:10531000BC498A4209D1006800F0070006286ED215
:10532000DFE800F036636567696BB7498A420BD1E5
:10533000006800F00700062861D200E043E0DFE8E3
:1053400000F0275456585A5CB0498A4206D100688A
:1053500000F0380018284CD0B7DD31E0AC498A4263
:1053600009D1006800F00700062848D2DFE800F005
:10537000103D3F414345A7498A420BD1006800F0E8
:10538000070006283BD2DFE800F00330323436381D
:10539000002035E0A0498A4209D1006800F03800B9
:1053A000182826D091DD0BE023E01EE027E09B4982
:1053B0008A420AD1006800F03800182819D084DD2C
:1053C000202888D11CE001201AE09A4217D18A488F
:1053D000001D006800F00700062810D2DFE800F08A
:1053E000030507090B0D02200AE0042008E008204D
:1053F00006E0102004E0202002E0402000E08020B1
:105400008749DFF820829A42874A4FF400434FEAE7
:1054100021174FF000064ED110281AD006DC0228C2
:1054200009D004280BD008287ED10DE020283ED0DA
:10543000402879D13DE0FCF723FE014610E06846A4
:10544000FCF730FE01990BE003A8FCF7CDFE0499B0
:1054500006E01068800605D51068C0F3C100C140A1
:10546000002970D0606A676838F8102007EB47039E
:10547000B1FBF2F0834257D8B0EB073F54D800237A
:1054800008461946FAF73EFF02467808130E120244
:1054900043EA012110183A4671410023FAF732FF1E
:1054A000624AA0F5407191423ED821688FE03946AA
:1054B000D8E71946D6E7D4F81CC04FF6EF799C45DB
:1054C00046D1082819D005DC58B101280CD0042891
:1054D00075D10DE0102815D0202835D040286ED188
:1054E00034E0FDF711FD01E0FDF720FD014610E07D
:1054F0006846FCF7D7FD01990BE003A8FCF774FEA2
:10550000049906E01068800604D51068C0F3C10055
:10551000C140C1B1636A606838F81330B1FBF3F180
:10552000490001EB500100E049E0B1FBF0F0A0F1CF
:105530001001494543D84FF6F0732168C0F3420289
:105540001840104343E043E03946E3E71946E1E7FA
:10555000082819D005DC58B101280CD004282ED118
:105560000DE0102815D020282BD0402827D12AE084
:10557000FDF7CAFC01E0FDF7D9FC014610E06846E2
:10558000FCF790FD01990BE003A8FCF72DFE0499B0
:1055900006E01068800604D51068C0F3C100C14061
:1055A000B1B1636A606838F81330B1FBF3F101EB15
:1055B0005001B1FBF0F0A0F11001494505D90125DA
:1055C00006E03946EDE71946EBE7216880B2C8608E
:1055D0000120A4F86A00A4F8680028466667A66758
:1055E00007B0BDE8F0830000F369FFCF000C00585E
:1055F000FFF4FF11001001405444025800440040E1
:1056000000480040004C00400050004000140140A1
:1056100000780040007C004000180140001C014060
:105620000090D0030A8F000800440258FFFC0F00CE
:105630002DE9F047994617460D460446089E4FF05F
:10564000000833E0701C31D0FCF7E8F9A0EB09004A
:10565000B04218D8BEB120680168490726D5802D10
:1056600024D0402D22D0C169C94309070DD4082593
:1056700005622046FFF7C4FDC4F89050012084F86D
:105680008480BDE8F0870320FBE7C069C0430005C4
:105690000CD421684FF4006008622046FFF7B0FD8B
:1056A0002021C4F8901084F88480ECE72068C06959
:1056B00035EA000004D00020B842C3D00020E0E763
:1056C0000120F9E7FEE700000FB4054B10B503A970
:1056D000044A029800F040FE10BC5DF814FB000084
:1056E000A96A000894A900240FB4084B10B504A9B6
:1056F00002AA039800F030FE044602A9002001F03F
:10570000C2F9204610BC5DF814FB0000876A00084F
:1057100003B401984100009850EAC12018BF04204A
:105720004A0D18BF40F0010040F2FF72B2EB515F2A
:1057300008BF40F00200012808BF052002B07047F2
:10574000090700284FEA116104DB00F1E02080F82E
:105750000014704700F00F0000F1E02080F8141DE5
:1057600070470000000000002DE9F04D2DED040B06
:105770002DED0A8B9AB0DDE92550279CDDF890A02D
:1057800025F0004624F00048BAF1000F14BF0121B3
:10579000002101EB4502F84953184A1093422AD3DD
:1057A000002814BF0123002303EB44030B44F349F7
:1057B0008B4220D358EA00019FEDF19B72D0DFF8B5
:1057C000C8B35D4503D1BAF1000F05D184E0BAF149
:1057D000000F08BF002100D0012101EB450111F5A8
:1057E000001F08D8002814BF0121002101EB44014B
:1057F00011F5001F0BD99DED261B9DED240B1AB052
:10580000BDEC0A8B04B0BDE8F04D00F0A5BC00274C
:10581000002DBCBFDD49884521DADD498845A8BF98
:1058200002271CDAC3451ADCDA4901EB2851142996
:1058300008DDC1F1340220FA02F101FA02F28242DB
:105840000DD108E058B9C1F1140228FA02F101FAA9
:1058500002F2424503D101F00101C1F1020756EA0B
:105860000A0120D1002C1EDA002D18BF022F01D012
:10587000012F0AD0022000F0A7FC1AB0BDEC0A8B61
:1058800004B0BDE8F04D00F057BC022000F09CFCD5
:1058900000F052FCB1EE400B1AB0BDEC0A8B04B024
:1058A000BDE8F08D18E09FEDBCAB9FEDBD8B0028EF
:1058B0007DD1B64880451CD105F1804010F580109F
:1058C00008BFBAF1000F07D0B34508DC002CA8BF11
:1058D0009DED260BE0DA07E0B0EE490BDCE7002C8B
:1058E000B8BF9DED260BD5DBAF48784490ED000B9B
:1058F000D2E7D84548D1002C43DA2EB186423AD1BE
:10590000BAF1000F3DD126E0BAF1000F13D002200A
:1059100000F05AFC00F030FC8DED020B9DED240BE5
:105920008DED000B10EE900A039961F31E000390B9
:105930009DED020BB0E78DED02AB9DED240B1AEE51
:10594000901A10EE900A8DED000B61F31E0003908B
:105950009DED020BA0E78DED028B9DED240B18EE63
:10596000901A10EE900A8DED000B61F31E0003906B
:105970009DED020B90E704DA9DED241B89EE010BEF
:105980008AE79DED240B87E786421ADAB4F1804F4F
:1059900004BF9DED240B20EE000B3FF47DAFA4F17E
:1059A0000050B0F1FF500CD1002D0ADB00E008E000
:1059B0009DED240B51EC100B01F088F941EC100B1C
:1059C0006AE79DED240B51EC100B01F061F8BAF180
:1059D000000FCDE90E0140D19FED750B46B3A6F146
:1059E000E040B0F17F600ED05E4536D1002D00DA88
:1059F00097B3022F0CBF01204FF0FF3000EE100ACA
:105A0000B8EEC00B48E7002D01DD002C0DDA002DAB
:105A100001DD002C1DDB002D14DA002C12DB012F20
:105A200008BF9FED650B3FF437AFB0EE4A0B33E78D
:105A3000022F18BF002D0CD0012F0AD1002DFFF628
:105A40002BAF06E0002DB8BF002C06DA012F3FF483
:105A500023AFB0EE480B1FE719E0012000EBE57023
:105A600050EA070113D0791EB0EE498B084308BFF6
:105A70009FED538B5448002580457ADD53495448A7
:105A8000884514DDB0420DDB002C19DB2CE0012031
:105A900000F09AFB1AB0BDEC0A8B04B0BDE8F04DE3
:105AA00000F05EBBB34502DC002C09DC1CE0864242
:105AB00002DA002C18DA03E05E4528DD002C13DD45
:105AC000022000F081FB00F057FB8DED020B28EE69
:105AD0000A0B8DED000B10EE900A039961F31E0086
